:1000000032C700004DC700004AC7000048C70000C3
:1000100046C7000044C7000042C7000040C70000B8
:100020003EC700003CC700000C94211938C70000EF
:1000300036C7000034C7000032C7000030C70000D8
:100040002EC700002CC700002AC7000028C70000E8
:1000500026C7000024C7000022C7000020C70000F8
:100060001EC700001CC700001AC7000018C7000008
:1000700016C700000C94980812C7000010C70000B3
:100080000EC700000CC700000AC7000008C7000028
:1000900006C7000004C7000002C7000000C7000038
:1000A000FEC60000FCC60000FAC6000005010904F7
:1000B000A10185010901A100093009311600FE26C0
:1000C000FF01350046FF03950275108102093515C1
:1000D00000253F3500452E95017506810275029574
:1000E0000181016500C0050209BB15C0253F457FA0
:1000F00075089501810205091901290815002501D6
:1001000045017501950881021909291075019508A5
:100110008102050109399501750415002507463B43
:100120000165148142750495018101550065000542
:100130000F0992A1028502099F09A009A409A50936
:10014000A61500250135004501750195058102952B
:1001500003810309941500250135004501750195BA
:1001600001810209221501252835014528750795C9
:10017000018102C00921A10285010922150125285A
:10018000350145287508950191020925A102092626
:100190000927093009310932093309340940094175
:1001A000094209430928250C15013501450C75083C
:1001B00095019100C0095009540951150026FF7F8F
:1001C000350046FF7F66031055FD751095039102BB
:1001D00055006600000952150026FF003500461044
:1001E0002775089501910209531501250835014528
:1001F000087508950191020955A102050109300908
:100200003115002501750195029102C0050F0956AF
:1002100095019102950591030957A1020B01000A6E
:10022000000B02000A0066140055FE150026B400FB
:10023000350047A08C000066000075089502910209
:100240005500660000C0050F66031055FD15002619
:10025000FF7F350046FF7F75109501660000550051
:10026000C0050F095AA1028502092215012528356A
:10027000014528750895019102095B095D15002665
:10028000FF00350046102795029102095C095E6661
:10029000031055FD26FF7F46FF7F75109102450034
:1002A0006600005500C0095FA102850309221501FF
:1002B0002528350145287508950191020923150067
:1002C0002501350045017504950191020958A102E7
:1002D0000B01000A000B02000A0075029502910250
:1002E000C01580257F36F0D846102709607508951F
:1002F00001910236F0D84610270961950191021547
:100300000026FF003500461027096309647508952B
:10031000024610279501C0096EA102850409221525
:1003200001252835014528750895019102097015A8
:100330000026FF0035004610277508950191020937
:100340006F1580257F36F0D8461027950191020958
:100350007166140055FE150026FF00350047A08C7D
:1003600000009102097226FF7F46FF7F6603105549
:10037000FD7510950191026600005500C00973A13A
:10038000028505092215012528350145287508959E
:1003900001910209701601FF26FF0036F0D84610C1
:1003A00027751095019102C00974A10285060922E2
:1003B0001501252835014528750895019102097513
:1003C00009761580257F36F0D846102775089502E6
:1003D0009102C00968A10285070922150125283567
:1003E000014528750895019102096C150026102712
:1003F0003500461027751095019102096915812570
:100400007F350046FF007508950C920201C0096611
:10041000A10285080501093009311581257F3500C4
:1004200046FF00750895029102C0050F0977A102E9
:10043000850A0922150125283501452875089501E9
:1004400091020978A1020979097A097B150125032E
:10045000750895019100C0097C150026FF00350044
:1004600046FF009102C00990A102850B09222528B0
:10047000150135014528750895019102C00996A11D
:1004800002850C099709980999099A099B099C15F5
:10049000012506750895019100C0097DA102850D11
:1004A000097E150026FF00350046102775089501C6
:1004B0009102C0096BA102850E092215012528357C
:1004C000014528750895019102096D150026FF0068
:1004D000350046FF00750895019102095166031029
:1004E00055FD150026FF7F350046FF7F75109501ED
:1004F00091025500660000C009ABA10285050925DF
:10050000A1020926092709300931093209330934C2
:1005100009400941094209430928250C1501350103
:10052000450C75089501B100C00501093B15002671
:10053000FF01350046FF01750A9501B1027506B14C
:1005400001C0050F0989A102850609222528150188
:100550003501452875089501B102098BA102098C66
:10056000098D098E2503150135014503750895018F
:10057000B100C009AC150027FFFF0000350047FFA0
:10058000FF000075109501B100C0097FA102850729
:100590000980751095011500350027FFFF00004701
:1005A000FFFF0000B102098326FF0046FF00750827
:1005B0009501B10209A909AA750195021500250145
:1005C00035004501B10275069501B103C0C00501B2
:1005D0000904A10185010904A1000930093109328A
:1005E00016000026FF03350046FF039503751081B2
:1005F0000209351500253F3500452E950175068108
:100600000275029501810165000933093415002541
:10061000FF45FF7508750895028102C009361580EF
:10062000257F45FF750895018102050209BB15006C
:10063000253F453F750895018102050919012908E3
:100640001500250145017501950881021909291038
:100650007501950881020501093995017504150098
:100660002507463B016514814275049501810155BA
:10067000006500050F0992A1028502099F09A009E2
:10068000A409A509A61500250135004501750195A8
:100690000581029503810309941500250135004564
:1006A00001750195018102092215012528350145B1
:1006B00028750795018102C00921A102850109223F
:1006C0001501252835014528750895019102092550
:1006D000A1020926092709300931093209330934F1
:1006E00009400941094209430928250C1501350132
:1006F000450C750895019100C00950095409511520
:100700000026FF7F350046FF7F66031055FD7510FC
:100710009503910255006600000952150026FF005E
:1007200035004610277508950191020953150125DA
:1007300008350145087508950191020955A1020582
:10074000010930093115002501750195029102C09A
:10075000050F095695019102950591030957A102CC
:100760000B01000A000B02000A0066140055FE157A
:100770000026B400350047A08C0000660000750814
:10078000950291025500660000C0050F66031055E2
:10079000FD150026FF7F350046FF7F751095016629
:1007A00000005500C0050F095AA102850209221553
:1007B00001252835014528750895019102095B0935
:1007C0005D150026FF0035004610279502910209AD
:1007D0005C095E66031055FD26FF7F46FF7F75109E
:1007E000910245006600005500C0095FA102850323
:1007F0000922150125283501452875089501910222
:100800000923150025013500450175049501910264
:100810000958A1020B01000A000B02000A00750230
:1008200095029102C01580257F36F0D84610270921
:100830006075089501910236F0D846102709619538
:10084000019102150026FF003500461027096309B3
:1008500064750895024610279501C0096EA10285AE
:1008600004092215012528350145287508950191AF
:10087000020970150026FF003500461027750895FF
:10088000019102096F1580257F36F0D84610279513
:10089000019102097166140055FE150026FF00350E
:1008A0000047A08C00009102097226FF7F46FF7F5F
:1008B00066031055FD751095019102660000550004
:1008C000C00973A1028505092215012528350145B6
:1008D0002875089501910209701601FF26FF003660
:1008E000F0D8461027751095019102C00974A10235
:1008F0008506092215012528350145287508950129
:100900009102097509761580257F36F0D8461027A3
:10091000750895029102C00968A102850709221590
:1009200001252835014528750895019102096C15A6
:1009300000261027350046102775109501910209F1
:10094000691581257F350046FF007508950C9202D8
:1009500001C00966A1028508050109300931158128
:10096000257F350046FF00750895029102C0050FEE
:100970000977A102850A0922150125283501452894
:100980007508950191020978A1020979097A097B14
:1009900015012503750895019100C0097C150026F5
:1009A000FF00350046FF009102C00990A102850BAF
:1009B0000922252815013501452875089501910260
:1009C000C00996A102850C099709980999099A0905
:1009D0009B099C15012506750895019100C0097DAC
:1009E000A102850D097E150026FF0035004610275F
:1009F000750895019102C0096BA102850E092215A7
:100A000001252835014528750895019102096D15C4
:100A10000026FF00350046FF007508950191020988
:100A20005166031055FD150026FF7F350046FF7FF8
:100A30007510950191025500660000C009ABA10236
:100A400085050925A102092609270930093109323E
:100A50000933093409400941094209430928250C91
:100A600015013501450C75089501B100C005010956
:100A70003B150026FF01350046FF01750A9501B1BF
:100A8000027506B101C0050F0989A1028506092278
:100A9000252815013501452875089501B102098BF6
:100AA000A102098C098D098E250315013501450325
:100AB00075089501B100C009AC150027FFFF0000C3
:100AC000350047FFFF000075109501B100C0097F98
:100AD000A10285070980751095011500350027FFD3
:100AE000FF000047FFFF0000B102098326FF004618
:100AF000FF0075089501B10209A909AA75019502BF
:100B00001500250135004501B10275069501B103B7
:100B1000C0C01201100100000008EB0356200100C4
:100B2000010200011201100100000008EB034E2039
:100B300001000102000109022900010100C032097F
:100B4000040000020300000009211101000122221B
:100B50000507050203400001070581034000010469
:100B600003090418034400650061006E002000437F
:100B70000061006D00650072006100000024034DFB
:100B8000005300200053006900640065007700698D
:100B9000006E00640065007200500072006F00205B
:100BA00000460046004200000024034D0053002090
:100BB000005300690064006500770069006E0064FE
:100BC000006500720057006800650065006C002039
:100BD0000046004600420000004374726C5265718A
:100BE0002876616C2C6964782C726571293A0053FF
:100BF000746F70206D616E75616C3A000A20206719
:100C000061696E3D000A20206661646554696D6506
:100C10003D0020206475726174696F6E3D0020286C
:100C2000456E61626C6564290A002028446973611D
:100C3000626C6564290A0020467265650020536570
:100C40006E740020506C6179696E670A0020416CF7
:100C50006C6F636174656400203D3E204D6964697A
:100C60003A00446576696365204761696E3A200001
:100C70004F746865722000426C6F636B204672652A
:100C8000653A200020556E6B6E6F776E206F706531
:100C9000726174696F6E002053746F70002053741A
:100CA000617274536F6C6F002053746172740045ED
:100CB0006666656374204F7065726174696F6E3A21
:100CC000004765745265706F72742050494420501B
:100CD0006F6F6C20466561747572650020206275C7
:100CE00074746F6E3D0020207265706561743D0004
:100CF0002020593D002020583D002020647572615D
:100D00003D0020206761696E3D0020207479706588
:100D10003D002020696420203D0053657420456615
:100D2000666563743A002C207374617475733D00BA
:100D3000437265617465204E65772045666665631C
:100D400074203D3E2069643D0055736220203D3E85
:100D5000002020656E6420203D00202073746172A5
:100D6000743D00202069643D005365742052616D1C
:100D70007020466F7263653A0020206D61676E696E
:100D8000747564653D00202069643D0053657420DE
:100D9000436F6E7374616E7420466F7263653A00C0
:100DA0002020706572696F642020203D0020207033
:100DB00068617365202020203D0020206F666673E7
:100DC00065742020203D0020206D61676E69747578
:100DD00064653D00202069643D00536574205065C2
:100DE00072696F6469633A002020636F6566662BE1
:100DF0003D0020206F66667365743D002020626CA4
:100E00006F636B203D00202069642020203D00534B
:100E1000657420436F6E646974696F6E3A002020B8
:100E20006661646554696D6520203D002020617411
:100E30007461636B54696D653D0020206661646573
:100E400020203D00202061747461636B3D002020F0
:100E50006964202020203D0053657420456E76652E
:100E60006C6F70653A0011241FBECFEFDAE0DEBF71
:100E7000CDBF12E0A0E0B1E0ECE7FAE302C00590DC
:100E80000D92AA3BB107D9F716E0AAEBB2E001C078
:100E90001D92AF35B107E1F7B4D40C943C1DB0C836
:100EA0005F935FB75F9357EE56BD4F93AF93BF937A
:100EB000B6E0A091220650912306452F53955093FA
:100EC000230653B15295507E477069F04530B9F012
:100ED000423069F04330F1F04630E9F04130E1F062
:100EE0004430D9F01BC0529556955E931AC0550FE9
:100EF0004C91542B5C935527551F5E9312C057FBA2
:100F0000550F550F4C91542B5C935527551F51F994
:100F10005E9307C056955695569556954C91542B11
:100F20005C93A0932206BF91AF914F915F915FBFF9
:100F30005F911895DC0154E0A50F5C91509550FB32
:100F40005095A1503C913695579550934A0642E0F2
:100F5000340F33705C91A1504C91469557955C7F4E
:100F6000532B50934B0638E0430F4F70A2505C91C7
:100F7000550F550F5051507F542B50934C063C91B8
:100F800042E0340F3370A3954C91407F342B32955F
:100F9000330F330F54E0A50F5C915095569537955C
:100FA0005695379530934D0656F9A3504C9145FB15
:100FB00057F950934E06A1505C9138E0530F5F7083
:100FC000440F551F440F551F50934F060895DC01E1
:100FD00045E0A40F5C91A395A3953C913873330F22
:100FE0003295550F369557954EEF340F3370509319
:100FF0004A064C914770A3505C91550F4695579502
:101000002EEF420F4370550F441F550F441F532BB3
:1010100050934B06342FA2505C91A3954C9148718C
:10102000550F440F429546955795409540FB529574
:10103000452F407F432B40934C065F7054F9352F6A
:10104000A3505C91507747E0A40F4C9146FB57F9B1
:10105000505157FB550F532B50934D06332730F902
:10106000AA955C91A3504C9146FB57F950954427A3
:10107000550F441F532B50934E06342FA2505C91B2
:10108000A395A3954C914770550F469557952EEF14
:10109000420F437057FB550F532B50934F06440F8D
:1010A00040F9409350060895482F362F8827F8942A
:1010B000E09AE89A2227189B2FEF51E053BD5CE994
:1010C00056BDA89A2093230652E2509322067894A4
:1010D0002498259850E05A95F1F7249A259A509132
:1010E0002306521719F4A89BFACF089550912306AE
:1010F000521B250F231728F444238AF7450F7AF350
:10110000E7CF83950895D0DF882371F050912306AF
:10111000563151F4F89455275093230650912206E6
:101120005395509322067894089581E090E00895B5
:101130001F920F920FB60F9211248F9381E080932C
:10114000BA028F910F900FBE0F901F901895CF93FA
:10115000DF93EB0183E085BD0E9413178091BA02F3
:101160008823C9F11092BA028091BB02813069F0E4
:10117000813028F0843089F08530C9F414C0809122
:1011800079008093BC0281E005C080917900809352
:10119000BD0284E08093BB020CC0809179008093F3
:1011A000BE0285E0F7CF809179008093BF02109254
:1011B000BB0280917C00887F80937C0090917C00B2
:1011C0008091BB028770892B80937C0080917A008C
:1011D000806480937A0081E0888380915106843016
:1011E000A1F520914D06229526952695237030E095
:1011F00080914C0690E0880F991F880F991F282B2B
:10120000392B8FEF90E02827392738872F8380915B
:101210004E0690E083709070982F882720914F069B
:10122000820F911D9A83898380914E0690E08C7F76
:101230009070880F991F880F991F9C838B838091D2
:101240004D0680958F738E8372C080914B0690E01F
:1012500083709070382F222780914A06280F311D05
:101260003A83298380914B0681FF03C03C6F3A8308
:10127000298380914C06282F30E02F70307066E073
:10128000220F331F6A95E1F780914B06869586956C
:10129000280F311D3C832B8380914C0683FF03C0B4
:1012A0003C6F3C832B8340914E06242F30E046FF59
:1012B00013C04F7B40934E0620914D0630E0207CBA
:1012C0003070220F331F220F331F942F990F990F65
:1012D00080E0280F391F0EC080914D0682958695BB
:1012E000869583702F773070220F331F220F331FA4
:1012F000280F311D38872F8380914C0682958F707F
:10130000898780914D068F7380528D8390914F060F
:101310009F73990F80914E06881F8827881F980F0A
:101320009E8380914F0685FF02C0906C9E8381E072
:1013300090E0DF91CF9108950E944A1786E0809354
:10134000240683E08093810085E085BD26E021505E
:10135000822F90E0FC01E65BF94FE081DC01AA5DA1
:10136000B94F8C918E13EC93222389F788EE93E08A
:1013700003D38DD310BA80917A00876080937A006E
:1013800080917C00806480937C0080917C008062EE
:1013900080937C0080917A00806880937A008091AD
:1013A0007A00886080937A0080917A0080648093CC
:1013B0007A000895CF92DF92EF92FF920F931F93DE
:1013C000DF93CF9300D0CDB7DEB7282F6A836A01B1
:1013D000933031F1943030F4913091F0923009F043
:1013E00056C007C0913209F439C0923209F04FC09B
:1013F0003CC066E3E62E6BE0F62E09E210E04BC03F
:1014000080915106843029F052E1E52E5BE0F52E03
:1014100004C044E2E42E4BE0F42E02E110E03BC0B5
:10142000813049F0813018F0823089F50BC0EFE54A
:10143000FBE0849103C0E3E6FBE08491082F10E019
:101440007F0129C080915106843021F4E9EAFBE054
:101450008491F4CFEDE7FBE08491F0CF38E4E32E04
:101460003BE0F32E09E010E016C080915106843075
:1014700039F09CEAE92E90E0F92E02E215E00BC06B
:101480008EECE82E85E0F82E04E415E004C0EE248E
:10149000FF2400E010E02983CE01019661E070E0B6
:1014A0000E94BC17CE01029661E070E00E94C7174F
:1014B000F601F182E082C8010F900F90CF91DF9189
:1014C0001F910F91FF90EF90DF90CF9008955E9A5B
:1014D00008955E9808956F927F928F929F92AF9237
:1014E000BF92DF92EF92FF920F931F93DF93CF9300
:1014F000CDB7DEB7C054D0400FB6F894DEBF0FBEF4
:10150000CDBF80915606843009F083C081E080937E
:10151000E9008091E80080FF13C0809100018E01F6
:101520000F5F1F4FB80113DEC8016AE070E040E0B2
:1015300050E00E944D1B8091E8008E778093E80078
:1015400082E08093E9008091E80082FF62C05E9AA9
:10155000DD245E010894A11CB11C22E0622E712CD6
:101560006C0E7D1E90EA892E9FE0992E3EC0C5012B
:1015700061E070E040E050E00E94FB1A8530B9F372
:10158000D394E981F0E0EE0FFF1FE851FE4F008198
:10159000118101501040C8018D0D911D80349105BD
:1015A00098F020E931E05E9888EE93E0F9013197F8
:1015B000F1F70197D9F75E9A88EE93E0F901319738
:1015C000F1F70197D9F7EFCFC301B80140E050E040
:1015D0000E94FB1A8530C1F3D00E0F5F1F4FC5016B
:1015E000B80175D5C4010197F1F72091F3008091FE
:1015F000F200F22EEE2490E08E299F29892B21F013
:101600008FE38D1508F0B3CF8091E8008B7780933E
:10161000E800C05CDF4F0FB6F894DEBF0FBECDBF51
:10162000CF91DF911F910F91FF90EF90DF90BF90CE
:10163000AF909F908F907F906F9008950F931F931E
:10164000DF93CF93CDB7DEB764970FB6F894DEBFC4
:101650000FBECDBF1091B802812F0E948C17882336
:10166000B1F089ED9BE00E94951789E596E062E074
:1016700070E00E94BC178BE596E062E070E00E948B
:10168000BC1788E596E061E070E00E94C717809182
:101690005806813021F0893009F069C028C0812FB7
:1016A0000E948C17882321F081E091E00E94B117FD
:1016B00080915706813A09F05AC05E9A8091590686
:1016C00090915A068E010F5F1F4F23E087309207DB
:1016D00019F4C801A8D33BC0B80139DD8091E800F6
:1016E000877F8093E800C8016AE070E038C0812FEE
:1016F0000E948C17882321F08BE091E00E94B117A3
:1017000080915706813299F55E9A8091E800877F33
:101710008093E8008E01055F1F4F60915D06709118
:101720005E06C8010E944D1A0E94721880915906E7
:1017300090915A0685509340C9F480ED97E0019747
:10174000F1F7C8018E010F5F1F4FB80148D4809197
:10175000E800877F8093E800C80165E070E00E94A0
:10176000E7198091E8008B778093E8005E98649693
:101770000FB6F894DEBF0FBECDBFCF91DF911F91A2
:101780000F9108950F931F9381E061EC42E30E9453
:101790003D18082F82E060EC42E30E943D18109251
:1017A000150110921601109217011092180110E005
:1017B00090E00823192300FF02C090E001C090E4EC
:1017C0008BB18F7B982B9BB91F910F91089584B794
:1017D000877F84BF88E10FB6F894809360001092F1
:1017E00060000FBE80E090E020E80FB6F8942093F0
:1017F0006100809361000FBE569A5E989DDD0C9447
:101800000919E5DF5E98789408C05E9A8CE291E051
:10181000B3D05E988CE291E0AFD087DC892BA9F33E
:101820005ADE0E943C180E943C180E940E1D0E9425
:101830003C18F3CF9EE1899FC001112483559E4F30
:101840009093C1028093C0020895853180F4282FBF
:1018500030E085E290E0289FF001299FF00D389F4D
:10186000F00D1124EE53FD4F808182608083089536
:10187000282F8531F8F4A82FB0E085E290E0A89FEA
:10188000F001A99FF00DB89FF00D1124EE53FD4F0C
:1018900080818D7F8083AF5CB94F15968C918823B2
:1018A00049F4E091C002F091C1020284F385E02D79
:1018B000822F099508951F9311E0812FD9DF1F5FB3
:1018C0001531D9F71F910895482F8531E8F4282F55
:1018D00030E085E290E0289FF001299FF00D389FCD
:1018E000F00D1124EE53FD4F10828091E90148174D
:1018F00010F44093E901E091C002F091C102048428
:10190000F585E02D842F099508952FEF8F3F9207DD
:1019100019F420E030E008C09C013070369527951E
:1019200080709F77280F391FC9010895282F33270A
:1019300027FD309587FF02C020583048C90108951F
:10194000689FB0011124672F770F770B6595659518
:10195000862F8F77089520E304C0922F9A95F1F790
:1019600081508823D1F708952498259885E0F3DFE6
:10197000249A259A81E0EFCF20EA3FE004C0A895A1
:10198000F9013197F1F701974FEF8F3F9407B9F7BE
:101990000895982F8091C80085FFFCCF9093CE00CA
:1019A0000895EF92FF920F931F93CF93DF937C01E3
:1019B0008B018091B902882341F088E59CE00E9468
:1019C0009517C701B8010E94C717C0E0D0E006C054
:1019D000F701EC0FFD1F8081DCDF2196C017D107D6
:1019E000B8F3DF91CF911F910F91FF90EF90089581
:1019F000FF920F931F93DF93CF9300D00F92CDB739
:101A0000DEB78C01F62EE091C002F091C102028097
:101A1000F381E02DCE0101960995698170E0C1DF67
:101A2000C8016F2D70E0BDDF1A8206C0F8018191F8
:101A30008F01980F9A83FA949A81FF20B9F79195B4
:101A40009F779A83CE01029661E070E0AADF87EF6C
:101A50008B83CE01039661E070E0A3DF0F900F90BF
:101A60000F90CF91DF911F910F91FF9008950F93E9
:101A70001F938C0182E69CE00E949517C801019695
:101A800061E070E00E94C7171F910F91089521E354
:101A900036E0C90160E070E049E150E00E94351D88
:101AA000539A1092C8008FE190E09093CD008093FC
:101AB000CC0086E88093CA0088E08093C900109229
:101AC000CE0022EC32E0C90160E070E049E053E072
:101AD0000E94351D2EE236E0C90160E070E043E06F
:101AE00050E00E94351D82E08093E901E091C00240
:101AF000F091C1020190F081E02D0995089582E0F6
:101B00008093E90122EC32E0C90160E070E049E035
:101B100053E00C94351D8091E901843111F440E0CB
:101B200038C04091E9014F5F4093E901415025E2FF
:101B300030E009C08091E9018431A0F48091E9018D
:101B40008F5F8093E9018091E90190E0829FF0012D
:101B5000839FF00D929FF00D1124EE53FD4F808175
:101B6000882341F7242F30E085E290E0289FF001A0
:101B7000299FF00D389FF00D1124DF01AE53BD4FAA
:101B800081E08C93E453FD4F8BE1DF011D928A9538
:101B9000E9F7842F08958CE191E00C94B117CF936D
:101BA000DF93EC01998182E080932E0680912F06CD
:101BB000846080932F0680912F06806180932F068A
:101BC00010923006913041F48DE291E00E94B117FD
:101BD00080912F068E7F09C0923051F48FE391E0FF
:101BE0000E94B11780912F06846080932F063EC01B
:101BF000933081F480E591E00E94B117E091C0023A
:101C0000F091C1020480F581E02D80E009951092E9
:101C100030062CC0943091F481E691E00E94B11717
:101C2000E091C002F091C1020480F581E02D81E0D5
:101C300009958BE490E0A0DE62DF18C0953019F4BE
:101C400087E691E004C0963029F48DE691E00E9489
:101C5000B1170CC0907C51F080E79CE00E94951772
:101C6000CE01019661E070E00E94C717DF91CF912D
:101C70000895DF93CF930F92CDB7DEB7FC0181813A
:101C800089838091B8020E948C17882351F087E7DE
:101C90009CE00E949517CE01019661E070E00E94E1
:101CA000C71789818F3F59F42ADFE091C002F09174
:101CB000C1020484F585E02D8FE7099501C004DE9B
:101CC0000F90CF91DF9108958091B8020E948C17F8
:101CD000882321F086E791E00C94B1170895809154
:101CE000B8020E948C17882321F080E991E00C94BF
:101CF000B1170895EF92FF921F93DF93CF930F9246
:101D0000CDB7DEB77C01FC01818189831091B802D7
:101D1000812F0E948C17882351F08FEA9CE00E944B
:101D20009517CE01019661E070E00E94BC17898191
:101D30008F3F11F48FE78983F70182818130F1F4BD
:101D4000812F0E948C17882321F088EA9CE00E9452
:101D5000A117F701818179DD9981E92FF0E0EF5C2E
:101D6000F94F8581882309F057C0E091C002F091B6
:101D7000C1020084F185E02D892F2EC0823071F5DB
:101D8000812F0E948C17882321F08DE99CE00E940E
:101D9000A11791DDE981F0E0EF5CF94F858188239F
:101DA00049F4E091C002F091C1020284F385E02D74
:101DB0008FE70995F701818148DDE981F0E0EF5C6B
:101DC000F94F8581882341F5E091C002F091C1026D
:101DD0000084F185E02D8FE709951EC0833069F4FA
:101DE000812F0E948C17882321F087E99CE00E94B4
:101DF000A117F70181813CDD0FC0812F0E948C1754
:101E0000882351F084E89CE00E94A117C701029644
:101E100061E070E00E94C7170F90CF91DF911F9192
:101E2000FF90EF900895CF93DF93EC018091B8027B
:101E30000E948C17882321F081EC9CE00E94A1175E
:101E40005EDE87E088838FEF9FEF9A8389838AE045
:101E50008B8383E08C83DF91CF910895EF92FF9283
:101E60000F931F93CF93DF93EC01998185E2989FA5
:101E70007001112482EC92E0E80EF91E8091B80204
:101E80000E948C17882309F464C08AE19DE00E94B7
:101E90009517CE016EE070E00E94C71782E19DE0C9
:101EA0000E949517CE01019661E070E00E94C7176D
:101EB0008AE09DE00E949517CE01029661E070E0F5
:101EC0000E94C71782E09DE00E949517CE010996F7
:101ED00061E070E00E94C7178AEF9CE00E949517AE
:101EE000CE01039662E070E00E94C7178B858823BD
:101EF000A1F085EF9CE00E949517CE010C9661E061
:101F000070E00E94C71780EF9CE00E949517CE01F9
:101F10000D9661E070E00E94C7178D819E81892B2C
:101F200051F086EE9CE00E949517CE01059662E086
:101F300070E00E94C7178A85882349F08CED9CE0E9
:101F4000F4D7CE010A9661E070E00E94C7170E94A4
:101F50003C188701065F1F4F8B819C81AFE78F3F45
:101F60009A0721F4F8011482138206C0CEDCD8014E
:101F700014969C938E9313978B819C81F701928387
:101F80008183808182FF0EC0E091C002F091C10286
:101F9000D80113966D917C9114970684F785E02DF6
:101FA00089810995E091C002F091C102048CF58D00
:101FB000E02DCE01B7010995682FF701808182FDE0
:101FC00007C0C7010A9614DDD7018C9184608C93F9
:101FD000DF91CF911F910F91FF90EF900895EF92B5
:101FE000FF920F931F93CF93DF937C01EB0186E069
:101FF000888391DD982F8983882319F482E08A836E
:102000003BC081E08A8305E2909F800111240E533A
:102010001D4F8FEF9FE7D80112969C938E931197D7
:1020200014969C938E9313978FEF15968C93159718
:1020300016961C92169717968C93179718968C9352
:10204000065F1F4FE091C002F091C102D7011196C7
:102050008C910680F781E02D81500995F8018183EC
:102060000A501040E091C002F091C1020088F1894D
:10207000E02DC701B80109958FEF9FEF9C838B83FB
:102080008091B80249D7882389F080E39DE04DD73D
:10209000CE01019661E070E06FD786E29DE045D702
:1020A000CE01029661E070E072D7E6D786EA91E051
:1020B0006881AE0125E030E075D785E090E05CDC1A
:1020C000DF91CF911F910F91FF90EF900895CF93E3
:1020D000DF93EC019B015E9A89E49DE06AEE71E07A
:1020E000AE0183D799818881873009F470C0883028
:1020F000A8F48330D1F1843030F4813029F182307A
:1021000009F079C024C0853009F447C0E091C002CD
:10211000F091C102863008F04EC035C08B3009F412
:102120005FC08C3038F4883009F454C08A3009F02C
:1021300062C053C08D3009F459C08D3008F453C0CB
:102140008E3009F058C055C0CE0188DE54C0E091F1
:10215000C002F091C10265E2969FB00111246E5356
:102160007D4F0288F389E02D2FC0E091C002F091ED
:10217000C10265E2969FB00111246E537D4F048821
:10218000F589E02D21C065E2969FB00111246E53C0
:102190007D4F0688F789E02D17C0E091C002F091CD
:1021A000C10265E2969FB00111246E537D4F008CF1
:1021B000F18DE02D09C065E2969FB00111246E53A8
:1021C0007D4F028CF38DE02DCE01099514C0CE0118
:1021D00086DD11C0CE0178DD0EC0CE018BDD0BC0D7
:1021E000CE0147DD08C0CE01DADC05C0CE013FDC00
:1021F00002C0CE01D0DC5E98DF91CF9108958C3083
:1022000010F080E00895E82FF0E0EC58FD4F808159
:102210000895FC0185E0808386E092E00895FB014B
:10222000DB011A963FE751963C93519721E0559672
:102230002C9355971E961C921E9750961C921E9298
:102240001F9754961C92549753961C921E92529725
:1022500023E2228712963C93129716961C921E92A6
:10226000159719963C93199724E61A962C931A976A
:102270001B961C921B9720E11C962C931C972EE416
:102280001D962C931D97FC018181813029F45A966B
:102290001C921E925997089581E091E05A969C9362
:1022A0008E9359970895EF92FF920F931F93DF93A8
:1022B000CF9300D00F92CDB7DEB78A0195EB99830B
:1022C0006A838B837E010894E11CF11CC70163E0E3
:1022D00070E067DB85EA8983802F8F778A830070BF
:1022E0001F771B83C70163E070E05BDB0F900F90EB
:1022F0000F90CF91DF911F910F91FF90EF90089574
:10230000BF92CF92DF92EF92FF920F931F93CF93E2
:10231000DF938C01EB01FC01D1806AE0E62EF12C09
:10232000EC0EFD1E8281883030F4833058F4813009
:1023300008F4AFC00AC08B3008F4A5C08B3009F098
:10234000A8C0A4C0CC24C39401C0CC24F8018485C7
:1023500090E0880F991F9C0120783170220F331F65
:102360008F779070280F391FF70130872783F80186
:10237000838194818F5F9F4729F08B819C818F5F40
:102380009F4721F4F701138A128A15C029813A81E7
:102390008B819C818217930748F489819A812B81D4
:1023A0003C81821B930BB1DAF70103C0F7018381F3
:1023B0009481938B828B8D81F8019185BB24891741
:1023C000A9F1BB24B3949D838F816185B9DAF701AC
:1023D00086878885F8016185B3DAF701848BCC2084
:1023E000F9F089856D81ACDA182F8E81810F9EDA24
:1023F000F701908F878B8E81811B98DAF701928F7E
:10240000818F888182FF12C04789508D8D2D64E7AE
:102410004ADFF701418D528D8D2D68E744DF06C0FC
:102420008985F80161858CDAF701818B888182FFCB
:1024300023C0F701478150858D2D68E434DFF70113
:10244000428953898D2D60E62EDFBB2011F1F70103
:1024500044898D2D6CE650E026DFF70146858D2DF1
:1024600064E650E020DFCC20A1F4F70141898D2DF6
:1024700064E750E018DF0DC0C7016BE1B9DA88816D
:102480008460888306C068818FE004C068818BE027
:1024900001C08BE190E0DF91CF911F910F91FF90F0
:1024A000EF90DF90CF90BF900895CF92DF92EF92A0
:1024B000FF920F931F93DF93CF930F92CDB7DEB7A9
:1024C0007C016B018091B80227D5882319F1F701AF
:1024D0008181898389E69DE028D5C70164E070E0A9
:1024E00056D583E69DE021D5CE01019661E070E0EE
:1024F0004ED58AE59DE019D5C701029661E070E0EE
:1025000046D581E59DE011D5C701039661E070E0F5
:102510003ED5B2D58601065F1F4FF7018281282F75
:10252000332727FD309587FF03C020953095316014
:10253000F801308F278BF7018381F8D9F801928F4A
:10254000818FF601808182FF0EC0F8014789508D8E
:10255000F701808168E7A7DEF801418D528DF70110
:10256000808164E7A0DE0F90CF91DF911F910F91E2
:10257000FF90EF90DF90CF900895CF92DF92EF928F
:10258000FF920F931F93DF93CF930F92CDB7DEB7D8
:102590007C016B01FC01818189838091B802BCD4EC
:1025A0008823C1F08CE89DE0C0D4C70164E070E0EE
:1025B000EED486E89DE0B9D4CE01019661E070E0EA
:1025C000E6D489E79DE0B1D4C701029662E070E0ED
:1025D000DED452D58601065F1F4FF7018281F601D6
:1025E0008187F7018281938197FD08C0F60165819B
:1025F000A7D9F801818B8FE790E008C0F6016581CB
:1026000080959ED9F801818B81E091E0908F878B36
:10261000F801128E118EF601808182FF0CC0F80144
:102620004189898164E750E03EDEF8014789508D99
:1026300089816CE738DE0F90CF91DF911F910F9168
:10264000FF90EF90DF90CF900895BF92CF92DF92EE
:10265000EF92FF920F931F93DF93CF930F92CDB71B
:10266000DEB77C016B01FC01818189838091B80216
:1026700053D4882381F18AED9DE057D4C70167E0E8
:1026800070E085D484ED9DE050D4CE01019661E0E8
:1026900070E07DD487EC9DE048D4C701029661E0EC
:1026A00070E075D48AEB9DE040D4C701039661E0E9
:1026B00070E06DD48DEA9DE038D4C701049661E0E6
:1026C00070E065D480EA9DE030D4C701059662E0F1
:1026D00070E05DD4D1D48601065F1F4FF70182817F
:1026E000F60181878FE790E0F801908F878B81E07A
:1026F00091E0928F818FF70165817681F3E0683EEA
:102700007F0710F081E004C06A30710520F48FE685
:10271000F801858B07C088EE93E00E94211D6F773A
:10272000F801658BF8018181823019F08181833055
:10273000A1F5F70184818052813C10F483E001C04F
:1027400082E0F8018183F6016581F7018281F8D882
:10275000B82EF701838187FD8F5F85958B0DE6D8B5
:10276000F801908F878BF701838187FD8F5F8595B7
:102770008B19DCD8F801928F818FF601808182FF5E
:102780000CC0F8014789508D898164E78CDDF80120
:10279000418D528D898168E786DDF601808182FF57
:1027A00006C0F8014589898160E750E07CDD0F9023
:1027B000CF91DF911F910F91FF90EF90DF90CF901D
:1027C000BF900895CF92DF92EF92FF920F931F93E5
:1027D000DF93CF930F92CDB7DEB78C016B01FC0175
:1027E00081818983FAE0EF2EF12CE60EF71E8091AD
:1027F000B80292D3882341F18FE09EE096D3C801BE
:1028000065E070E0C4D386E09EE08FD3CE010196F0
:1028100061E070E0BCD38CEF9DE087D3C8010296E5
:1028200061E070E0B4D382EF9DE07FD3C8010396EE
:1028300061E070E0ACD388EE9DE077D3C8010496E8
:1028400061E070E0A4D318D4F70181818D3008F4E1
:1028500079C0803120F0803109F074C04AC0EAE0CC
:10286000EE2EF12CEC0CFD1CF8018281882361F422
:1028700084815CD8F70190878783F801838156D8DB
:10288000F7019487838715C0F80184814FD8F70139
:1028900092878187F8018381803831F48FE790E057
:1028A000F7019687858705C0819540D8F7019687FF
:1028B0008587F601808182FF45C0F80182818823E7
:1028C00061F4F70147815085898168E4ECDCF70108
:1028D00043855485898160E534C0F701418552857F
:1028E00089816CE4E0DCF70145855685898164E5E2
:1028F00028C07AE0E72EF12CEC0CFD1CF801828157
:10290000882331F4848112D8F7019087878306C029
:10291000F80184810BD8F70192878187F6018081C5
:1029200082FF10C0F8018281882331F4F7014781CA
:102930005085898168E405C0F70141855285898108
:102940006CE4B1DC0F90CF91DF911F910F91FF905C
:10295000EF90DF90CF900895CF92DF92EF92FF92A9
:102960000F931F93DF93CF930F92CDB7DEB78C01F8
:102970006B01FC01818189838091B802CDD28823CB
:1029800081F188E59EE0D1D2C80168E070E0FFD215
:102990008EE49EE0CAD2CE01019661E070E0F7D2EB
:1029A00084E49EE0C2D2C801029661E070E0EFD2FA
:1029B0008AE39EE0BAD2C801039661E070E0E7D2F4
:1029C0008CE29EE0B2D2C801049662E070E0DFD2F1
:1029D0008EE19EE0AAD2C801069662E070E0D7D2EE
:1029E0004BD3AAE0EA2EF12CEC0CFD1CF8018281FD
:1029F000F6018783F8018381F6018087F8018681DB
:102A00009781F601948383836581F80182810E9416
:102A1000A00CF7018687F6016581F80183810E9489
:102A2000A00CF701848BF801848195810E94850CAC
:102A3000F701908B8787F801868197818F5F9F4789
:102A400021F4F701138A128A0CC0F6018181928168
:102A500023813481821B930B0E94850CF701938B99
:102A6000828BF601808182FF18C0F7014289538969
:102A7000898160E618DCF7014785508989816CE51A
:102A800012DCF701448989816CE650E00CDCF70127
:102A90004685898164E650E006DC0F90CF91DF9196
:102AA0001F910F91FF90EF90DF90CF900895AB01B1
:102AB00060E4F9CBDF93CF9300D00F92CDB7DEB7B0
:102AC00095EB99836A838B83CE01019663E070E076
:102AD0000E94D10C0F900F900F90CF91DF9108952D
:102AE00060E1E8CF60E3E6CF60E2E4CF1F93182F08
:102AF00083E192E062E070E00E94D10C112351F476
:102B000086E490E00E94BC0C8BE092E068E070E00C
:102B10000E94D10C1F9108951F93182F06C00E9488
:102B2000B40C8AE00E94AB0C11501123C1F71F9125
:102B3000089584E690E00E94BC0C0E94B40C87E0EB
:102B400090E00E94BC0C84E0E7DF83E290E00E940A
:102B5000BC0C83E0E1DF8EE090E00E94BC0C82E0E0
:102B6000DBDF8EE490E00E94BC0C82E0D5DF84E0E5
:102B700090E00E94BC0C83E0CFDF8BE390E00E94EA
:102B8000BC0C82E0C9DF82E792E062E070E00E9464
:102B9000D10C84E190E00E94BC0C89E692E069E0EF
:102BA00070E00E94D10C89E390E00E94BC0C86E3A7
:102BB00092E063E370E00E94D10C85E192E061E273
:102BC00070E00E94D10C80E091DF86E490E00C94EC
:102BD000BC0C8C3010F080E00895E82FF0E0E75551
:102BE000FD4F80810895FC0185E0808380E892E0BC
:102BF000089508950895089508950895FC01828127
:102C0000883028F4823030F4813031F407C08C30C1
:102C100018F406C083E105C080E003C08FE001C066
:102C200087E090E00895CF93DF93EC01FB01DB0197
:102C30001A9680E282879FE712969C9312971596C8
:102C40001C9215978981823008F441C0883018F0B1
:102C50008C30E8F539C080E415968C93159716965C
:102C60009C93169719969C9319971B961C921E92EB
:102C70001A971C969C931C971F969C931F978EE304
:102C800052968C9352978981823059F418961C92EF
:102C90001E9217978EE69EE11E969C938E931D972B
:102CA0000EC080E090E418969C938E93179785E66B
:102CB00092E11E969C938E931D9784E793E0519624
:102CC0009C938E93509703C08EE716968C93DF915A
:102CD000CF910895DF93CF9300D000D000D0CDB72F
:102CE000DEB791EF998390E49B838C836D837E8321
:102CF0006195681B6157671B6F776A83CE010196E8
:102D000066E070E00E94D10C26960FB6F894DEBF04
:102D10000FBECDBFCF91DF910895DF93CF9300D049
:102D20000F92CDB7DEB792EF99838B836295607F68
:102D3000982F92959F702DE09227262F22952F7025
:102D400092278F709827962B9A83CE01019663E085
:102D500070E00E94D10C0F900F900F90CF91DF91F7
:102D6000089561E0DACF63E0D8CF62E0D6CF1F9359
:102D7000182F8DE892E062E070E00E94D10C1123E0
:102D800031F485E892E068E070E00E94D10C1F9178
:102D9000089584E690E00E94BC0C87EA92E062E02D
:102DA00070E00E94D10C8FE892E068E170E00E9430
:102DB000D10C80E0DCDF84E690E00C94BC0C23B501
:102DC000216023BD909385008093840081E086BBC1
:102DD000B09BFECF0895FC01238182812827848146
:102DE000282785812827603121F4818190818927D6
:102DF0002827822F82958F708227982F96959695F7
:102E00009827292F269529276B3011F481812827AF
:102E1000822F817008955E9A81EC9FEFD0DF5E98DB
:102E200083E89FEFCCCF1F9380915106843011F03F
:102E300010E101C01BE080E0612F0E945408E89877
:102E4000882361F48091CC058F5F8093CC058B3013
:102E5000F8F0F89480E28093D800FFCF1092CC0570
:102E60008CE196E0612FB7DF882391F080915106C5
:102E7000843051F4AAE4B6E0ECE1F6E086E001909B
:102E80000D928150E1F704C08CE196E00E949A0710
:102E90001F9108951DB880E48EB910BA83EF81BBED
:102EA00093E095BD85E080938100909369008BEC61
:102EB00093EF85DFB0DF8BEC93EF81DF80E06EE78F
:102EC0000E945408A8DF8091230680912306813157
:102ED00059F48CE196E060E17EDF882329F083E0FD
:102EE0008093510680E00EC0809123068C3091F4CF
:102EF0008CE196E06BE06FDF882361F084E08093E3
:102F0000510681E00E941A0CE898F8948FE08093B3
:102F1000CB050895E898CECF9091B90220E0982390
:102F2000981709F421E0822F08959C018091B9023D
:102F3000882331F0F9012F5F3F4FE491EE23D1F761
:102F400008959C018091B902882311F0C901EDCF49
:102F50000895FC018091B902882311F08191FCCF82
:102F600008959C018091B902882311F0C901F1CF25
:102F700008958091B90208959C018091B902882337
:102F800029F0662319F0C90170E0F3CF08959C0180
:102F90008091B902882329F0662319F0C90170E0F5
:102FA000E8CF0895EF92FF920F931F93DF93CF9393
:102FB0000F92CDB7DEB7FC0169838A017901809158
:102FC000B902882351F0CF01C4DFCE01019661E040
:102FD00070E0D2DFC801B701DADF0F90CF91DF9147
:102FE0001F910F91FF90EF900895AF92BF92CF92F3
:102FF000DF92EF92FF920F931F93CF93DF93FC0129
:103000006B01F42EE52E89018091B902882349F1E4
:10301000CF018BDF8F2D9E2DEC017E01E00EF11E86
:1030200031E0A32EB12C1AC088819501281B3109EB
:10303000C901880F991FF601E81BF90B1081CE0119
:1030400061E070E099DF123038F0612F70E061507C
:103050007040CE01019690DFC10FD11DCE15DF0566
:1030600018F3DF91CF911F910F91FF90EF90DF90B8
:10307000CF90BF90AF9008950895382F282F2CC07F
:103080002093E900231721F4762F942F50E006C0F7
:103090007091EC009091ED005091F00091FF1BC0F9
:1030A0008091EB008E7F8093EB008091ED008D7F0F
:1030B0008093ED008091EB0081608093EB00709332
:1030C000EC009093ED005093F0008091EE0087FDAE
:1030D00002C080E008952F5F273090F23093E9001E
:1030E00081E008958091570688239CF404C0809164
:1030F00056068823B9F08091E80082FFF8CF8091CE
:10310000E8008B778093E800089580915606882325
:1031100049F08091E80080FFF8CF8091E8008E7739
:103120008093E80008954091E4005091E50024E682
:103130008091EC0080FF24C08091E80080FD1EC0DB
:1031400080915606882311F482E00895853011F4A9
:1031500083E008958091EB0085FF02C081E008952F
:103160008091E4009091E5008417950709F32223EC
:1031700011F484E008952150AC01DACF80E0089585
:103180008091E80082FFDCCFF9CFEF92FF920F939E
:103190001F934AD051D008ED10E0F80180818F775D
:1031A000808380818068808380818F7D808319BC4B
:1031B0001092560610925206109254061092530620
:1031C00080EEE82EF12CF70180818B7F8083F8015F
:1031D00080818160808380E060E042E04EDFE1EE4C
:1031E000F0E080818E7F8083E2EEF0E0808181607C
:1031F0008083808188608083F70180818E7F8083D7
:10320000F8018081806180831F910F91FF90EF9082
:103210000895E7EDF0E080818160808384E082BFE3
:1032200081E080935506B1CFE8EDF0E080818E7F9C
:1032300080831092E20008951092DA001092E1006B
:1032400008951F920F920FB60F9211242F933F9360
:103250004F935F936F937F938F939F93AF93BF939E
:10326000EF93FF938091E10082FF0AC08091E2001A
:1032700082FF06C08091E1008B7F8093E100CDD377
:103280008091DA0080FF1FC08091D80080FF1BC0B2
:103290008091DA008E7F8093DA008091D90080FFE0
:1032A0000DC080E189BD82E189BD09B400FEFDCF7A
:1032B00081E0809356060E94670A05C019BC1092EF
:1032C00056060E94690A8091E10080FF18C0809133
:1032D000E20080FF14C08091E2008E7F8093E200C4
:1032E0008091E20080618093E2008091D80080624A
:1032F0008093D80019BC85E0809356068ED38091C8
:10330000E10084FF2DC08091E20084FF29C080E1AC
:1033100089BD82E189BD09B400FEFDCF8091D8004E
:103320008F7D8093D8008091E1008F7E8093E100B3
:103330008091E2008F7E8093E2008091E2008160C4
:103340008093E20080915206882331F48091E3005B
:1033500087FD02C081E001C084E0809356065DD302
:103360008091E10083FF22C08091E20083FF1EC0B4
:103370008091E100877F8093E10082E08093560690
:10338000109252068091E1008E7F8093E10080913F
:10339000E2008E7F8093E2008091E2008061809362
:1033A000E20080E060E042E068DE37D3FF91EF9119
:1033B000BF91AF919F918F917F916F915F914F914D
:1033C0003F912F910F900FBE0F901F9018959C0169
:1033D00040915D0650915E064617570718F4F901B3
:1033E00090E045C06115710511F0AB01F8CF8091F7
:1033F000E8008E778093E80040E050E0F0CF8091C5
:103400005606882309F445C0853009F444C08091EC
:10341000E80083FF02C081E008958091E80082FD0A
:1034200032C08091E80080FF22C08091F30090912B
:10343000F200782F60E0292F30E0262B372B07C0D1
:1034400081918093F100415050402F5F3F4F4115D3
:10345000510519F02830310598F390E028303105F6
:1034600009F491E08091E8008E778093E80041159F
:10347000510529F6992319F606C08091560688232E
:1034800041F0853041F08091E80082FFF6CF80E086
:10349000089582E0089583E008959C016115710507
:1034A00029F48091E8008B778093E800F90127C028
:1034B00080915606882399F1853099F18091E80032
:1034C00083FF02C081E008958091E80082FFF0CF81
:1034D00006C08091F10081936150704059F02091B5
:1034E000F3008091F200322F20E090E0822B932BAA
:1034F000892B79F78091E8008B778093E80061153C
:103500007105B1F606C080915606882341F08530DA
:1035100041F08091E80080FFF6CF80E0089582E0DE
:10352000089583E008959C0140915D0650915E06E8
:103530004617570718F4F90190E046C06115710568
:1035400011F0AB01F8CF8091E8008E778093E8000E
:1035500040E050E0F0CF80915606882309F447C040
:10356000853009F446C08091E80083FF02C081E005
:1035700008958091E80082FD34C08091E80080FFCA
:1035800023C08091F3009091F200782F60E0292F02
:1035900030E0262B372B08C084918093F1003196C0
:1035A000415050402F5F3F4F4115510519F02830D1
:1035B000310590F390E02830310509F491E08091D5
:1035C000E8008E778093E8004115510521F6992394
:1035D00009F0C1CF06C080915606882341F085309E
:1035E00041F08091E80082FFF6CF80E0089582E00C
:1035F000089583E00895BF92CF92DF92EF92FF92F9
:103600000F931F93CF93DF93182F092F7B016A012C
:103610008ADDB82E8823B1F5812F902F9C01E90116
:10362000C114D10439F0F60180819181E81AF90AB8
:10363000C80FD91F00E010E022C08091E80085FD8E
:1036400016C08091E8008B778093E800E7D1C11421
:10365000D10449F0F60180819181800F911F9183FF
:10366000808385E010C05FDD882349F00CC0809125
:10367000F10089930894E108F1080F5F1F4FE114EE
:10368000F104D9F68B2DDF91CF911F910F91FF900F
:10369000EF90DF90CF90BF900895BF92CF92DF92CE
:1036A000EF92FF920F931F93CF93DF93182F092F61
:1036B0007B016A0138DDB82E8823B1F5812F902F68
:1036C0009C01E901C114D10439F0F6018081918196
:1036D000E81AF90AC80FD91F00E010E022C0809153
:1036E000E80085FD16C08091E8008E778093E800A1
:1036F00095D1C114D10449F0F60180819181800FE8
:10370000911F9183808385E010C00DDD882349F0EF
:103710000CC089918093F1000894E108F1080F5FD3
:103720001F4FE114F104D9F68B2DDF91CF911F913A
:103730000F91FF90EF90DF90CF90BF9008950F937F
:103740001F93DF93CF93CDB7DEB7AC970FB6F89446
:10375000DEBF0FBECDBFE7E5F6E08091F1008193BB
:1037600026E0EF35F207C9F70E941E0B8091E800B2
:1037700083FF3AC18091570630915806353009F4DD
:1037800087C0363040F43130C9F1313070F0333019
:1037900009F02AC133C0383009F4F7C0393009F4D0
:1037A00006C1363009F020C197C0803821F0823838
:1037B00009F01AC108C090915306809154068823DD
:1037C00099F0926011C080915B068F708093E90040
:1037D0008091EB0090E025E0969587952A95E1F79A
:1037E000982F91701092E9008091E800877F809374
:1037F000E8009093F1001092F100D2C0882319F0F4
:10380000823009F0F1C090E08F719070009721F044
:10381000029709F0E9C00CC080915906813009F087
:10382000E3C010925406333069F5809354062AC0E1
:1038300080915906882331F520915B062F7009F499
:10384000D3C02093E9008091EB0080FF1BC0333090
:1038500021F48091EB00806213C08091EB008061C5
:103860008093EB0081E090E002C0880F991F2A95B9
:10387000E2F78093EA001092EA008091EB00886002
:103880008093EB001092E9008091E800877F8BC065
:10389000882309F0A9C0109159061F770FB7F89433
:1038A0008091E800877F8093E8001CDC8091E8002D
:1038B00080FFFCCF8091E3008078812B8093E30030
:1038C00080688093E300112311F482E001C083E05B
:1038D000809356060FBF88C08058823008F084C09D
:1038E0008091590690915A0623E08C3D920709F089
:1038F00033C083E08C838AE28B837FB7F894DE0148
:1039000015966EE040E050E011E2E62FF0E01093F3
:103910005700849140FF03C082958F706F5F8F7056
:10392000282F30E08A3018F0C901C79602C0C901BB
:10393000C0968D939D934F5F5F4F4431510529F79A
:103940007FBF8091E800877F8093E800CE010396D7
:103950006AE270E03CDD13C060915B06AE014F5F30
:103960005F4F0E94DA09BC01009709F43DC08091C5
:10397000E800877F8093E80089819A81D4DD809177
:10398000E8008B778093E8002FC0803869F580913C
:10399000E800877F8093E800809152068093F100D1
:1039A0008091E8008E778093E8009CDB1DC088231F
:1039B000D9F4909159069230B8F48091E800877F4D
:1039C0008093E800909352068DDB80915206882305
:1039D00031F48091E30087FD02C081E001C084E002
:1039E000809356060E94C20B8091E80083FF0AC0B4
:1039F0008091EB0080628093EB008091E800877FEC
:103A00008093E800AC960FB6F894DEBF0FBECDBF32
:103A1000CF91DF911F910F91089508951F93809189
:103A20005606882361F01091E9001092E900809118
:103A3000E80083FF01C083DE1F701093E9001F912F
:103A40000895AA1BBB1B51E107C0AA1FBB1FA617E5
:103A5000B70710F0A61BB70B881F991F5A95A9F737
:103A600080959095BC01CD010895DC0101C06D9356
:0C3A700041505040E0F70895F894FFCF5B
:103A7C00FF4765745265706F7274005365745265BC
:103A8C00706F727400000000000000085365742011
:103A9C00437573746F6D20466F7263650044697370
:103AAC0061626C65204163747561746F727300455B
:103ABC006E61626C65204163747561746F72730022
:103ACC0053746F7020416C6C20456666656374732B
:103ADC0000526573657400506175736500436F6EB9
:103AEC0074696E75650053657420446F776E6C6FE6
:103AFC00616420466F7263652053616D706C650064
:103B0C0053657420437573746F6D20466F726365D3
:103B1C00204461746100557362203C3D0099150985
:103B2C00117615FF1074157215701557150F11AC11
:103B3C0014E2132513BD1255128011C916F315B7D3
:103B4C0016E915B516B316B1166A161316F915FA49
:103B5C0015FB15FC15FD15FE15020E0008000500E1
:103B6C000700040004000F00030000000400020022
:103B7C00020002000500F000010A01B57C7FA57F60
:103B8C0000C506C501A51465B5647FA57E6BB56837
:103B9C007FA53600B56C7FA52800B5707FA5664C57
:103BAC00B5747FA57E01B5407FA57257B5447FA53E
:103BBC003C43B5487FA57E00B54C7FA50400B550AD
:103BCC007FA50200B5547FA50200B5587FA5007EE5
:103BDC00B55C7FA53C00B5607FF000010A011005C3
:103BEC006BF7C50112060502080A0B0D0E0F10012A
:103BFC00F000010A15F11040007F00F36AF31DF18B
:103C0C000E4301007DF17E04013E4EF11C45013E48
:103C1C002FF10B46017D00F31D060503020405057B
:0A3C2C0008090A0B0000010204025F
:00000001FF
