:1000000021C700003CC7000039C7000037C7000007
:1000100035C7000033C7000031C700002FC70000FC
:100020002DC700002BC700000C942D1C27C7000013
:1000300025C7000023C7000021C700001FC700001C
:100040001DC700001BC7000019C7000017C700002C
:1000500015C7000013C7000011C700000FC700003C
:100060000DC700000BC7000009C7000007C700004C
:1000700005C700000C94870801C70000FFC60000F8
:10008000FDC60000FBC60000F9C60000F7C6000070
:10009000F5C60000F3C60000F1C60000EFC6000080
:1000A000EDC60000EBC60000E9C60000050109042A
:1000B000A10185010901A100093009311600FE26C0
:1000C000FF01350046FF03950275108102093515C1
:1000D00000253F3500452E95017506810275029574
:1000E0000181016500C0050209BB15C0253F457FA0
:1000F00075089501810205091901290815002501D6
:1001000045017501950881021909291075019508A5
:100110008102050109399501750415002507463B43
:100120000165148142750495018101550065000542
:100130000F0992A1028502099F09A009A409A50936
:10014000A61500250135004501750195058102952B
:1001500003810309941500250135004501750195BA
:1001600001810209221501252835014528750795C9
:10017000018102C00921A10285010922150125285A
:10018000350145287508950191020925A102092626
:100190000927093009310932093309340940094175
:1001A000094209430928250C15013501450C75083C
:1001B00095019100C0095009540951150026FF7F8F
:1001C000350046FF7F66031055FD751095039102BB
:1001D00055006600000952150026FF003500461044
:1001E0002775089501910209531501250835014528
:1001F000087508950191020955A102050109300908
:100200003115002501750195029102C0050F0956AF
:1002100095019102950591030957A1020B01000A6E
:10022000000B02000A0066140055FE150026B400FB
:10023000350047A08C000066000075089502910209
:100240005500660000C0050F66031055FD15002619
:10025000FF7F350046FF7F75109501660000550051
:10026000C0050F095AA1028502092215012528356A
:10027000014528750895019102095B095D15002665
:10028000FF00350046102795029102095C095E6661
:10029000031055FD26FF7F46FF7F75109102450034
:1002A0006600005500C0095FA102850309221501FF
:1002B0002528350145287508950191020923150067
:1002C0002501350045017504950191020958A102E7
:1002D0000B01000A000B02000A0075029502910250
:1002E000C01580257F36F0D846102709607508951F
:1002F00001910236F0D84610270961950191021547
:100300000026FF003500461027096309647508952B
:10031000024610279501C0096EA102850409221525
:1003200001252835014528750895019102097015A8
:100330000026FF0035004610277508950191020937
:100340006F1580257F36F0D8461027950191020958
:100350007166140055FE150026FF00350047A08C7D
:1003600000009102097226FF7F46FF7F6603105549
:10037000FD7510950191026600005500C00973A13A
:10038000028505092215012528350145287508959E
:1003900001910209701601FF26FF0036F0D84610C1
:1003A00027751095019102C00974A10285060922E2
:1003B0001501252835014528750895019102097513
:1003C00009761580257F36F0D846102775089502E6
:1003D0009102C00968A10285070922150125283567
:1003E000014528750895019102096C150026102712
:1003F0003500461027751095019102096915812570
:100400007F350046FF007508950C920201C0096611
:10041000A10285080501093009311581257F3500C4
:1004200046FF00750895029102C0050F0977A102E9
:10043000850A0922150125283501452875089501E9
:1004400091020978A1020979097A097B150125032E
:10045000750895019100C0097C150026FF00350044
:1004600046FF009102C00990A102850B09222528B0
:10047000150135014528750895019102C00996A11D
:1004800002850C099709980999099A099B099C15F5
:10049000012506750895019100C0097DA102850D11
:1004A000097E150026FF00350046102775089501C6
:1004B0009102C0096BA102850E092215012528357C
:1004C000014528750895019102096D150026FF0068
:1004D000350046FF00750895019102095166031029
:1004E00055FD150026FF7F350046FF7F75109501ED
:1004F00091025500660000C009ABA10285050925DF
:10050000A1020926092709300931093209330934C2
:1005100009400941094209430928250C1501350103
:10052000450C75089501B100C00501093B15002671
:10053000FF01350046FF01750A9501B1027506B14C
:1005400001C0050F0989A102850609222528150188
:100550003501452875089501B102098BA102098C66
:10056000098D098E2503150135014503750895018F
:10057000B100C009AC150027FFFF0000350047FFA0
:10058000FF000075109501B100C0097FA102850729
:100590000980751095011500350027FFFF00004701
:1005A000FFFF0000B102098326FF0046FF00750827
:1005B0009501B10209A909AA750195021500250145
:1005C00035004501B10275069501B103C0C00501B2
:1005D0000904A10185010904A1000930093109328A
:1005E00016000026FF03350046FF039503751081B2
:1005F0000209351500253F3500452E950175068108
:100600000275029501810165000933093415002541
:10061000FF45FF7508750895028102C009361580EF
:10062000257F45FF750895018102050209BB15006C
:10063000253F453F750895018102050919012908E3
:100640001500250145017501950881021909291038
:100650007501950881020501093995017504150098
:100660002507463B016514814275049501810155BA
:10067000006500050F0992A1028502099F09A009E2
:10068000A409A509A61500250135004501750195A8
:100690000581029503810309941500250135004564
:1006A00001750195018102092215012528350145B1
:1006B00028750795018102C00921A102850109223F
:1006C0001501252835014528750895019102092550
:1006D000A1020926092709300931093209330934F1
:1006E00009400941094209430928250C1501350132
:1006F000450C750895019100C00950095409511520
:100700000026FF7F350046FF7F66031055FD7510FC
:100710009503910255006600000952150026FF005E
:1007200035004610277508950191020953150125DA
:1007300008350145087508950191020955A1020582
:10074000010930093115002501750195029102C09A
:10075000050F095695019102950591030957A102CC
:100760000B01000A000B02000A0066140055FE157A
:100770000026B400350047A08C0000660000750814
:10078000950291025500660000C0050F66031055E2
:10079000FD150026FF7F350046FF7F751095016629
:1007A00000005500C0050F095AA102850209221553
:1007B00001252835014528750895019102095B0935
:1007C0005D150026FF0035004610279502910209AD
:1007D0005C095E66031055FD26FF7F46FF7F75109E
:1007E000910245006600005500C0095FA102850323
:1007F0000922150125283501452875089501910222
:100800000923150025013500450175049501910264
:100810000958A1020B01000A000B02000A00750230
:1008200095029102C01580257F36F0D84610270921
:100830006075089501910236F0D846102709619538
:10084000019102150026FF003500461027096309B3
:1008500064750895024610279501C0096EA10285AE
:1008600004092215012528350145287508950191AF
:10087000020970150026FF003500461027750895FF
:10088000019102096F1580257F36F0D84610279513
:10089000019102097166140055FE150026FF00350E
:1008A0000047A08C00009102097226FF7F46FF7F5F
:1008B00066031055FD751095019102660000550004
:1008C000C00973A1028505092215012528350145B6
:1008D0002875089501910209701601FF26FF003660
:1008E000F0D8461027751095019102C00974A10235
:1008F0008506092215012528350145287508950129
:100900009102097509761580257F36F0D8461027A3
:10091000750895029102C00968A102850709221590
:1009200001252835014528750895019102096C15A6
:1009300000261027350046102775109501910209F1
:10094000691581257F350046FF007508950C9202D8
:1009500001C00966A1028508050109300931158128
:10096000257F350046FF00750895029102C0050FEE
:100970000977A102850A0922150125283501452894
:100980007508950191020978A1020979097A097B14
:1009900015012503750895019100C0097C150026F5
:1009A000FF00350046FF009102C00990A102850BAF
:1009B0000922252815013501452875089501910260
:1009C000C00996A102850C099709980999099A0905
:1009D0009B099C15012506750895019100C0097DAC
:1009E000A102850D097E150026FF0035004610275F
:1009F000750895019102C0096BA102850E092215A7
:100A000001252835014528750895019102096D15C4
:100A10000026FF00350046FF007508950191020988
:100A20005166031055FD150026FF7F350046FF7FF8
:100A30007510950191025500660000C009ABA10236
:100A400085050925A102092609270930093109323E
:100A50000933093409400941094209430928250C91
:100A600015013501450C75089501B100C005010956
:100A70003B150026FF01350046FF01750A9501B1BF
:100A8000027506B101C0050F0989A1028506092278
:100A9000252815013501452875089501B102098BF6
:100AA000A102098C098D098E250315013501450325
:100AB00075089501B100C009AC150027FFFF0000C3
:100AC000350047FFFF000075109501B100C0097F98
:100AD000A10285070980751095011500350027FFD3
:100AE000FF000047FFFF0000B102098326FF004618
:100AF000FF0075089501B10209A909AA75019502BF
:100B00001500250135004501B10275069501B103B7
:100B1000C0C01201100100000008EB0356200100C4
:100B2000010200011201100100000008EB034E2039
:100B300001000102000109022900010100C032097F
:100B4000040000020300000009211101000122221B
:100B50000507050203400001070581034000010469
:100B600003090418034400650061006E002000437F
:100B70000061006D0065007200610000002A034DF5
:100B8000005300200053006900640065007700698D
:100B9000006E00640065007200500072006F00205B
:100BA0000046004600420000002E034D0053002086
:100BB000005300690064006500770069006E0064FE
:100BC000006500720057006800650065006C002039
:100BD0000046004600420000004374726C5265718A
:100BE0002876616C2C6964782C726571293A0053FF
:100BF000746F70206D616E75616C3A002028456ECF
:100C000061626C6564290A00202844697361626C22
:100C10006564290A002046726565002053656E747C
:100C20000020506C6179696E670A0020416C6C6F1E
:100C3000636174656400203D3E204D6964693A003B
:100C4000446576696365204761696E3A20004F7498
:100C50006865722000426C6F636B20467265653A6E
:100C6000200020556E6B6E6F776E206F706572611D
:100C700074696F6E002053746F700020537461723A
:100C800074536F6C6F002053746172740045666614
:100C9000656374204F7065726174696F6E3A0047C6
:100CA00065745265706F72742050494420506F6FA4
:100CB0006C204665617475726500202062757474DD
:100CC0006F6E3D0020207265706561743D002020CC
:100CD000593D002020583D002020647572613D0080
:100CE00020206761696E3D002020747970653D00A9
:100CF0002020696420203D005365742045666665A8
:100D000063743A002C207374617475733D004372F0
:100D100065617465204E657720456666656374205D
:100D20003D3E2069643D0055736220203D3E002019
:100D300020656E6420203D00202073746172743D34
:100D400000202069643D005365742052616D70205D
:100D5000466F7263653A0020206D61676E69747535
:100D600064653D00202069643D0053657420436F35
:100D70006E7374616E7420466F7263653A00202052
:100D8000706572696F642020203D002020706861CA
:100D90007365202020203D0020206F6666736574F7
:100DA0002020203D0020206D61676E6974756465A8
:100DB0003D00202069643D005365742050657269D0
:100DC0006F6469633A002020636F6566662B3D009F
:100DD00020206F66667365743D002020626C6F632F
:100DE0006B203D00202069642020203D0053657465
:100DF00020436F6E646974696F6E3A0020206661EB
:100E0000646554696D6520203D0020206174746123
:100E1000636B54696D653D00202066616465202028
:100E20003D00202061747461636B3D002020696483
:100E3000202020203D0053657420456E76656C6F40
:100E400070653A0011241FBECFEFDAE0DEBFCDBFE0
:100E500012E0A0E0B1E0EAEBF0E402C005900D92F0
:100E6000A03CB107D9F716E0A0ECB2E001C01D929A
:100E7000AB37B107E1F7CCD40C945B20C1C85F93CA
:100E80005FB75F9357EE56BD4F93AF93BF93B6E0F6
:100E9000A0913F0650914006452F53955093400630
:100EA00053B15295507E477069F04530B9F04230E9
:100EB00069F04330F1F04630E9F04130E1F0443080
:100EC000D9F01BC0529556955E931AC0550F4C91A0
:100ED000542B5C935527551F5E9312C057FB550F3B
:100EE000550F4C91542B5C935527551F51F95E9328
:100EF00007C056955695569556954C91542B5C9334
:100F0000A0933F06BF91AF914F915F915FBF5F91FB
:100F10001895DC0154E0A50F5C91509550FB50955D
:100F2000A1503C91369557955093660642E0340F98
:100F300033705C91A1504C91469557955C7F532B33
:100F40005093670638E0430F4F70A2505C91550FE5
:100F5000550F5051507F542B509368063C9142E0FE
:100F6000340F3370A3954C91407F342B3295330F5F
:100F7000330F54E0A50F5C915095569537955695D3
:100F800037953093690656F9A3504C9145FB57F9B4
:100F900050936A06A1505C9138E0530F5F70440F84
:100FA000551F440F551F50936B060895DC0145E013
:100FB000A40F5C91A395A3953C913873330F3295A0
:100FC000550F369557954EEF340F33705093660694
:100FD0004C914770A3505C91550F469557952EEF55
:100FE000420F4370550F441F550F441F532B50930E
:100FF0006706342FA2505C91A3954C914871550F10
:10100000440F429546955795409540FB5295452F84
:10101000407F432B409368065F7054F9352FA350EF
:101020005C91507747E0A40F4C9146FB57F9505123
:1010300057FB550F532B50936906332730F9AA9568
:101040005C91A3504C9146FB57F950954427550F9E
:10105000441F532B50936A06342FA2505C91A395E2
:10106000A3954C914770550F469557952EEF420F1B
:10107000437057FB550F532B50936B06440F40F9A9
:1010800040936C060895482F362F8827F894E09AED
:10109000E89A22271E9B2FEF51E053BD5CE956BD15
:1010A000A89A209340065FE350933F0678942498D3
:1010B000259850E05A95F1F7249A259A50914006C8
:1010C000521719F4A89BFACF089550914006521B6D
:1010D000250F231728F444238AF7450F7AF3E7CF27
:1010E00083950895D0DF882371F0509140065631E2
:1010F00051F4F89455275093400650913F0653956C
:1011000050933F067894089581E090E008951F92EF
:101110000F920FB60F9211248F9381E08093C0023B
:101120008F910F900FBE0F901F901895CF93DF9364
:10113000EB0183E085BD0E941F1A8091C0028823C5
:10114000C9F11092C0028091C102813069F08130F2
:1011500028F0843089F08530C9F414C0809179007A
:101160008093C20281E005C0809179008093C30220
:1011700084E08093C1020CC0809179008093C40206
:1011800085E0F7CF809179008093C5021092C1026B
:1011900080917C00887F80937C0090917C0080917E
:1011A000C1028770892B80937C0080917A008064D3
:1011B00080937A0081E0888380916D068430A1F568
:1011C00020916906229526952695237030E080911E
:1011D000680690E0880F991F880F991F282B392BDC
:1011E0008FEF90E02827392738872F8380916A0670
:1011F00090E083709070982F882720916B06820F63
:10120000911D9A83898380916A0690E08C7F90700B
:10121000880F991F880F991F9C838B838091690683
:1012200080958F738E8372C08091670690E0837083
:101230009070382F222780916606280F311D3A833F
:1012400029838091670681FF03C03C6F3A8329831D
:1012500080916806282F30E02F70307066E0220FF2
:10126000331F6A95E1F78091670686958695280F6A
:10127000311D3C832B838091680683FF03C03C6F44
:101280003C832B8340916A06242F30E046FF13C035
:101290004F7B40936A062091690630E0207C3070D5
:1012A000220F331F220F331F942F990F990F80E0C5
:1012B000280F391F0EC08091690682958695869504
:1012C00083702F773070220F331F220F331F280FA8
:1012D000311D38872F838091680682958F708987AA
:1012E000809169068F7380528D8390916B069F73F6
:1012F000990F80916A06881F8827881F980F9E8300
:1013000080916B0685FF02C0906C9E8381E090E027
:10131000DF91CF9108950E94561A86E0809341068E
:1013200083E08093810085E085BD26E02150822FF7
:1013300090E0FC01EA59F94FE081DC01AD5BB94F67
:101340008C918E13EC93222389F788EE93E097D348
:101350002CD410BA80917A00876080937A008091B3
:101360007C00806480937C0080917C00806280930C
:101370007C0080917A00806880937A0080917A0066
:10138000886080937A0080917A00806480937A00EC
:101390000895CF92DF92EF92FF920F931F93DF9306
:1013A000CF9300D0CDB7DEB7282F6A836A01933080
:1013B00031F1943030F4913091F0923009F056C010
:1013C00007C0913209F439C0923209F04FC03CC0D5
:1013D00066E3E62E6BE0F62E09E210E04BC080914A
:1013E0006D06843029F052E1E52E5BE0F52E04C055
:1013F00044E2E42E4BE0F42E02E110E03BC08130E9
:1014000049F0813018F0823089F50BC0EFE5FBE040
:10141000849103C0E3E6FBE08491082F10E07F0194
:1014200029C080916D06843021F4E9EAFBE08491C3
:10143000F4CFEDE7FBE08491F0CF38E4E32E3BE01E
:10144000F32E09E010E016C080916D06843039F06B
:101450009CEAE92E90E0F92E02E215E00BC08EEC3A
:10146000E82E85E0F82E04E415E004C0EE24FF2405
:1014700000E010E02983CE01019661E070E00E9457
:10148000C81ACE01029661E070E00E94D31AF601FC
:10149000F182E082C8010F900F90CF91DF911F91F0
:1014A0000F91FF90EF90DF90CF90089595B1282F86
:1014B00021709E7F292B25B99BB1282F20729F7DFB
:1014C000292B2BB998B180789F77982B98B90895DC
:1014D00081EAECCF80E0EACF6F927F928F929F9269
:1014E000AF92BF92DF92EF92FF920F931F93DF9321
:1014F000CF93CDB7DEB7C054D0400FB6F894DEBF5F
:101500000FBECDBF80917206843009F086C081E0A5
:101510008093E9008091E80080FF13C08091000172
:101520008E010F5F1F4FB80101DEC8016AE070E055
:1015300040E050E00E94591E8091E8008E77809331
:10154000E80082E08093E9008091E80082FF65C0B6
:1015500081EAACDFDD245E010894A11CB11C22E00D
:10156000622E712C6C0E7D1E90EA892E9FE0992EC2
:1015700040C0C50161E070E040E050E00E94071EFD
:101580008530B9F3D394E981F0E0EE0FFF1FEC5002
:10159000FE4F0081118101501040C8018D0D911D39
:1015A00080349105A8F000E911E080E07FDF88EE4B
:1015B00093E0F8013197F1F70197D9F781EA76DFE7
:1015C00088EE93E0F8013197F1F70197D9F7EDCF65
:1015D000C301B80140E050E00E94071E8530C1F30E
:1015E000D00E0F5F1F4FC501B80108D6C401019787
:1015F000F1F72091F3008091F200F22EEE2490E0BA
:101600008E299F29892B21F08FE38D1508F0B1CF0A
:101610008091E8008B778093E800C05CDF4F0FB6C5
:10162000F894DEBF0FBECDBFCF91DF911F910F9118
:10163000FF90EF90DF90BF90AF909F908F907F9042
:101640006F9008950F931F93DF93CF93CDB7DEB7BD
:1016500064970FB6F894DEBF0FBECDBF1091BE02E7
:10166000812F0E94981A8823B1F089ED9BE00E9497
:10167000A11A85E796E062E070E00E94C81A87E749
:1016800096E062E070E00E94C81A84E796E061E0AC
:1016900070E00E94D31A80917406813021F0893065
:1016A00009F06BC028C0812F0E94981A882321F06E
:1016B00081E091E00E94BD1A80917306813A09F0A1
:1016C0005CC0F4DE80917506909176068E010F5F06
:1016D0001F4F23E08730920719F4C8014FD43CC054
:1016E000B80124DD8091E800877F8093E800C8017D
:1016F0006AE070E039C0812F0E94981A882321F097
:101700008BE091E00E94BD1A809173068132A9F5A9
:1017100081EACCDE8091E800877F8093E8008E012B
:10172000055F1F4F6091790670917A06C8010E948B
:10173000591D0E947E1B80917506909176068550FA
:101740009340C9F480ED97E00197F1F7C8018E014D
:101750000F5F1F4FB801E2D48091E800877F80932C
:10176000E800C80165E070E00E94F31C8091E80089
:101770008B778093E80080E099DE64960FB6F8944A
:10178000DEBF0FBECDBFCF91DF911F910F910895A6
:101790000F931F9381E061EC42E30E94491B082FE5
:1017A00082E060EC42E30E94491B10921501109206
:1017B0001601109217011092180110E090E0082312
:1017C000192300FF02C080E001C081EA6FDE1F9193
:1017D0000F91089584B7877F84BF88E10FB6F8948E
:1017E00080936000109260000FBE80E090E020E8DF
:1017F0000FB6F89420936100809361000FBE209A89
:101800002898559A5D983F9A479885DD0C94151C49
:10181000E1DF80E04BDE78940AC081EA47DE8CE2AB
:1018200091E02DD180E042DE8CE291E028D16CDCA9
:10183000892B99F351DE0E94481B0E94481B0E948D
:101840001A200E94481BF3CF94E2899FC001112403
:1018500083559E4F9093C7028093C60208958431AA
:1018600080F4282F30E088E290E0289FF001299F43
:10187000F00D389FF00D1124E853FD4F80818260F8
:1018800080830895282F8431F8F4A82FB0E088E2EF
:1018900090E0A89FF001A99FF00DB89FF00D1124D2
:1018A000E853FD4F80818D7F8083A25BB94F1596F1
:1018B0008C91882349F4E091C602F091C702048418
:1018C000F585E02D822F099508951F9311E0812F52
:1018D000D9DF1F5F1431D9F71F910895482F843144
:1018E000E8F4282F30E088E290E0289FF001299F5B
:1018F000F00D389FF00D1124E853FD4F10828091B8
:10190000F501481710F44093F501E091C602F091FB
:10191000C7020684F785E02D842F09950895482F86
:101920008431C0F4282F30E088E290E0289FF00155
:10193000299FF00D389FF00D1124E853FD4F808151
:10194000882341F0E8E24E9FF0011124EB52FD4F55
:10195000818108958FEF08950F931F93382FFB0116
:10196000808191810817190711F480E010C011835C
:10197000008332FF0BC0E091C602F091C7020088DD
:10198000F189E02D842F622FA801099581E01F9134
:101990000F9108950F93982FFB018081081711F480
:1019A00080E010C0008392FF0CC0E091C602F0916D
:1019B000C7020088F189E02D842F622F402F50E06C
:1019C000099581E00F9108952FEF8F3F920719F449
:1019D00020E030E008C09C0130703695279580707B
:1019E0009F77280F391FC90108952FEF8F3F920766
:1019F00019F420E030E009C09C01220F331F207051
:101A00003F778F779070280F391FC9010895282FCD
:101A1000332727FD309587FF02C020583048C90181
:101A20000895BC0180ED97E00E942D206F5F7F4FED
:101A300076956795CB01089570E0992787FD90957D
:101A40009C01629FC001639F900D729F900D1124B5
:101A50006FEF70E00E944120862F089520E304C0BC
:101A6000922F9A95F1F781508823D1F70895249801
:101A7000259885E0F3DF249A259A81E0EFCF20EACC
:101A80003FE004C0A895F9013197F1F701974FEFB6
:101A90008F3F9407B9F70895982F8091C80085FF6C
:101AA000FCCF9093CE000895EF92FF920F931F9377
:101AB000CF93DF937C018B018091BF02882341F09B
:101AC00086E39CE00E94A11AC701B8010E94D31AC4
:101AD000C0E0D0E006C0F701EC0FFD1F8081DCDF25
:101AE0002196C017D107B8F3DF91CF911F910F91C5
:101AF000FF90EF900895FF920F931F93DF93CF9382
:101B000000D00F92CDB7DEB78C01F62EE091C60261
:101B1000F091C7020280F381E02DCE010196099574
:101B2000698170E0C1DFC8016F2D70E0BDDF1A82EE
:101B300006C0F80181918F01980F9A83FA949A81D7
:101B4000FF20B9F791959F779A83CE01029661E0C5
:101B500070E0AADF87EF8B83CE01039661E070E02F
:101B6000A3DF0F900F900F90CF91DF911F910F91F6
:101B7000FF9008950F931F938C0180E49CE00E94D6
:101B8000A11AC801019661E070E00E94D31AE091A9
:101B9000C602F091C7020488F589E02DD80111969C
:101BA0008C9109951F910F9108952EE436E0C9019B
:101BB00060E070E048E150E00E945420539A109297
:101BC000C8008FE190E09093CD008093CC0086E830
:101BD0008093CA0088E08093C9001092CE0028EC60
:101BE00032E0C90160E070E040E253E00E9454201E
:101BF0002BE436E0C90160E070E043E050E00E9471
:101C0000542082E08093F501E091C602F091C70272
:101C10000190F081E02D0995089582E08093F5010F
:101C200028EC32E0C90160E070E040E253E00C943F
:101C300054208091F501833111F440E038C0409187
:101C4000F5014F5F4093F501415028E230E009C0B3
:101C50008091F5018331A0F48091F5018F5F80932D
:101C6000F5018091F50190E0829FF001839FF00DD6
:101C7000929FF00D1124E853FD4F8081882341F796
:101C8000242F30E088E290E0289FF001299FF00D9A
:101C9000389FF00D1124DF01A853BD4F81E08C93D4
:101CA000EB52FD4F8BE1DF011D928A95E9F7842FFE
:101CB00008958CE191E00C94BD1A0F931F93CF937C
:101CC000DF93EC01198182E080934B0680914C06F2
:101CD000846080934C0680914C06806180934C0612
:101CE00010924D06E091C602F091C7020480F58182
:101CF000E02D812F0995082F133041F1143030F475
:101D0000113061F0123009F04EC013C01530B9F136
:101D1000153028F1163009F046C03BC08DE291E045
:101D20000E94BD1A002309F44AC080914C068260CB
:101D30000AC08EE391E00E94BD1A002309F43FC05F
:101D400080914C068D7F80934C0639C080E591E0F0
:101D50000E94BD1A002399F110924D0630C081E611
:101D600091E00E94BD1A002351F18BE490E087DEE0
:101D700054DF80914C06826080934C0610C087E649
:101D800091E00E94BD1A0023D1F080914C06816041
:101D9000DACF8DE691E00E94BD1A002381F0809198
:101DA0004C068E7FD0CF107C51F08EE49CE00E94D8
:101DB000A11ACE01019661E070E00E94D31ADF9172
:101DC000CF911F910F910895DF93CF930F92CDB7CD
:101DD000DEB7FC01818189838091BE020E94981A3E
:101DE000882351F085E59CE00E94A11ACE0101965E
:101DF00061E070E00E94D31A89818F3F59F40DDFB2
:101E0000E091C602F091C7020684F785E02D8FE7C6
:101E1000099501C063DD0F90CF91DF910895809106
:101E2000BE020E94981A882321F086E791E00C9464
:101E3000BD1A08958091BE020E94981A882321F04D
:101E400080E991E00C94BD1A0895EF92FF921F93E0
:101E5000DF93CF930F92CDB7DEB77C01FC01818178
:101E600089831091BE02812F0E94981A882351F015
:101E70008DE89CE00E94A11ACE01019661E070E01D
:101E80000E94C81A89818F3F11F48FE78983F70177
:101E900082818130F1F4812F0E94981A882321F0E9
:101EA00086E89CE00E94AD1AF7018181D8DC998117
:101EB000E92FF0E0E25BF94F8581882309F057C0F4
:101EC000E091C602F091C7020284F385E02D892FCC
:101ED0002EC0823071F5812F0E94981A882321F03C
:101EE0008BE79CE00E94AD1AF0DCE981F0E0E25B58
:101EF000F94F8581882349F4E091C602F091C70229
:101F00000484F585E02D8FE70995F7018181A7DC31
:101F1000E981F0E0E25BF94F8581882341F5E091AA
:101F2000C602F091C7020284F385E02D8FE7099580
:101F30001EC0833069F4812F0E94981A882321F0F3
:101F400085E79CE00E94AD1AF70181819BDC0FC000
:101F5000812F0E94981A882351F082E69CE00E940B
:101F6000AD1AC701029661E070E00E94D31A0F908B
:101F7000CF91DF911F91FF90EF900895CF93DF9362
:101F8000EC018091BE020E94981A882321F08FE90B
:101F90009CE00E94AD1A41DE87E088838FEF9FEFBF
:101FA0009A83898380E18B8383E08C83DF91CF9157
:101FB0000895EF92FF920F931F93CF93DF93EC015D
:101FC000998188E2989F7001112488EC92E0E80ED4
:101FD000F91E8091BE020E94981A882309F465C0F8
:101FE00088EF9CE00E94A11ACE016EE070E00E9492
:101FF000D31A80EF9CE00E94A11ACE01019661E005
:1020000070E00E94D31A88EE9CE00E94A11ACE01D3
:10201000029661E070E00E94D31A80EE9CE00E947C
:10202000A11ACE01099661E070E00E94D31A88EDF2
:102030009CE00E94A11ACE01039662E070E00E942B
:10204000D31A8B858823A1F083ED9CE00E94A11A0E
:10205000CE010C9661E070E00E94D31A8EEC9CE0F9
:102060000E94A11ACE010D9661E070E00E94D31A81
:102070008D819E81892B51F084EC9CE00E94A11AF5
:10208000CE01059662E070E00E94D31A8A8588230B
:1020900051F08AEB9CE00E94A11ACE010A9661E001
:1020A00070E00E94D31A0E94481B8701035F1F4FF4
:1020B0008B819C81EFEF8F3F9E0719F420E030E089
:1020C00002C082DC9C01F7018081E091C602F091A0
:1020D000C7020D5F1F4F0288F389E02DB8014981C7
:1020E0000995E091C602F091C70202A0F3A1E02D8C
:1020F000CE01B7010995682FF701808182FD07C0E5
:10210000C7010D96F8DCF701808184608083DF9140
:10211000CF911F910F91FF90EF900895FF920F9331
:102120001F93CF93DF938C01EB0186E08883E091CE
:10213000C602F091C702D80111968C910680F781F2
:10214000E02D81500995F82EE091C602F091C7026A
:102150000084F185E02D0995882311F0198202C0D1
:1021600068DD89839981992319F482E08A8315C0F7
:1021700081E08A83E8E29E9FF0011124E853FD4F3D
:10218000F686A091C602B091C70256962D913C9159
:102190005797C801BF01F90109958FEF9FEF9C8305
:1021A0008B838091BE020E94981A8823B1F08EE042
:1021B0009DE00E94A11ACE01019661E070E00E94AC
:1021C000C81A84E09DE00E94A11ACE01029661E047
:1021D00070E00E94D31A0E94481B86EA91E0688151
:1021E000AE0125E030E00E94DE1A85E090E047DC99
:1021F000DF91CF911F910F91FF900895CF93DF93BF
:10220000EC019B01289A5D9A479A87E29DE066EF70
:1022100071E0AE010E94011B99818881873009F429
:1022200070C08830A8F48330D1F1843030F481302C
:1022300029F1823009F079C024C0853009F447C003
:10224000E091C602F091C702863008F04EC035C05A
:102250008B3009F45FC08C3038F4883009F454C0F6
:102260008A3009F062C053C08D3009F459C08D30F6
:1022700008F453C08E3009F058C055C0CE0199DE25
:1022800054C0E091C602F091C70268E2969FB00187
:10229000112468537D4F008CF18DE02D2FC0E0910B
:1022A000C602F091C70268E2969FB00111246853FC
:1022B0007D4F028CF38DE02D21C068E2969FB00126
:1022C000112468537D4F048CF58DE02D17C0E091EB
:1022D000C602F091C70268E2969FB00111246853CC
:1022E0007D4F068CF78DE02D09C068E2969FB00106
:1022F000112468537D4F00A0F1A1E02DCE01099576
:1023000014C0CE0197DD11C0CE0189DD0EC0CE0113
:102310009CDD0BC0CE0158DD08C0CE01CEDC05C06F
:10232000CE0128DC02C0CE01C4DC28985D98479815
:10233000DF91CF9108958C3010F080E00895E82F60
:10234000F0E0E258FD4F80810895FC0185E0808334
:1023500084E192E0089590E0880F991F662331F0A0
:102360008C549F4F68E671E00E942D209C012078DC
:102370003170220F331F8F779070280F391FC901DA
:102380000895282F8FEF689FC0011124622F70E0FD
:102390000E942D20CB016F3F710519F010F08FE7DF
:1023A0000895969587958F770895CF93DF93EC01E5
:1023B000DB01FB013D962FE7218B81E090E0968BBE
:1023C000858B1686108A1786148A138A128A2187AB
:1023D0001682158284E690E09387828783E21D96B9
:1023E0008C931D97228380E19EE495878487898161
:1023F000813019F4128E118E04C081E091E0928F29
:10240000818F8981883028F4823030F4813091F5D1
:1024100019C08C3078F527C0FD0131968FEF9FEF02
:1024200012969C938E931197938382832FEF24832C
:1024300025831086178281E090E09287818713863A
:10244000268318C0FD0131968FEF9FEF12969C9363
:102450008E931197938382838FEF84838583178272
:102460001086868307C0FD0131968FEF8283119617
:102470001C921182DF91CF9108950F931F938901D0
:1024800020E46ADA1F910F910895AF92BF92CF9224
:10249000DF92EF92FF920F931F93CF93DF936C0124
:1024A000A62EEC012D96FC013196842F992787FDED
:1024B000909547FD06C080549040E82EEE0C4FE703
:1024C00007C00196880F991F482F415870E8E72EE2
:1024D000B42EBE188385882311F0E42E4B19F60123
:1024E000F0806796842F93DA8C018F2DBE014A2DE0
:1024F00024E732DAF601F08022968E2D88DA8C01FC
:102500008F2DBE014A2D28E727DA8B2DDF91CF9141
:102510001F910F91FF90EF90DF90CF90BF90AF9001
:102520000895009759F46A31710518F464E670E073
:1025300007C0660F771F660F771F02C072DABC01F3
:10254000CB0108957F928F929F92AF92BF92CF92CC
:10255000DF92EF92FF920F931F93CF93DF935C0173
:10256000EB01DC011196EC9011972DE0C22ED12CDD
:10257000C60ED71E1A968C918F3F19F420E030E0DA
:1025800007C021E030E002C0220F331F8A95E2F736
:102590008881B6016B5F7F4F890100781170000F51
:1025A000111F2F773070020F131F4E2D24E4D4D942
:1025B000F5018281883030F4823058F4813009F09E
:1025C000D4C009C08B3008F47EC08B3009F0CDC078
:1025D000A3C0772406C0D5011C968C9189877724E7
:1025E00073944E010894811C911C8881E9E0F0E00D
:1025F000CE0EDF1ED50119960C910695B6014E2D13
:102600002CE4C8D9F880EEEFFFEFCE0EDF1ED50127
:102610001C968C9160E09FDE8C018F2DB601E9EF56
:10262000FFEFCE0EDF1E4E2D28E496D9D50113966E
:102630008D919C9114979A83898313968D919C9187
:102640001497BFEF8F3F9B07A9F0F40122813381DC
:10265000FFEF2F3F3F0771F02817390728F4821B3F
:10266000930BB2D98C0108C0D60113960D911C9121
:10267000149702C000E010E08881B6016E5E7F4FC3
:102680004E2D20E669D9772009F06FC0FE01319602
:10269000D50117968D919C911897908787836185B6
:1026A000728517968D919C9118973BDFF880EAE030
:1026B000F0E0CE0EDF1E99D98C018F2DB6014E2D84
:1026C00020E54AD952C06E010894C11CD11CD50125
:1026D00019968C911997F6018283F8808981199651
:1026E0006C91AAD994D98C018F2D6496BE01649700
:1026F0004E2D28E431D9F8806696D60111968C913A
:10270000F501618599D983D98C018F2DBE014E2D9C
:102710002CE422D98FE02AC06E010894C11CD11C80
:10272000D50119968C911997F6018283F8808981D9
:1027300019966C9181D96BD98C018F2D6496BE014D
:1027400064974E2D28E408D9F8806696D601119634
:102750008C91F501618570D95AD98C018F2DBE01FC
:102760004E2D2CE4F9D88BE001C08BE190E0DF9195
:10277000CF911F910F91FF90EF90DF90CF90BF907E
:10278000AF909F908F907F9008957F928F929F92AD
:10279000AF92BF92CF92DF92EF92FF920F931F936F
:1027A000DF93CF930F92CDB7DEB78C014B01FC01C5
:1027B00071808091BE02BCD6882319F1F801818115
:1027C000898387E49DE0BDD6C80164E070E0EBD664
:1027D00081E49DE0B6D6CE01019661E070E0E3D6DB
:1027E00088E39DE0AED6C801029661E070E0DBD6DA
:1027F0008FE29DE0A6D6C801039661E070E0D3D6D3
:1028000047D73DE0E32EF12CE80CF91C5401089465
:10281000A11CB11CF8012281938192173CF481E044
:10282000F5018387F801D280838105C0F501138605
:10283000F801D3808281D81A892F992787FD909536
:10284000332727FD3095820F931F62E070E00E94CE
:102850004120462FC401672D18DEC82EF4011081D7
:1028600021E130E0E20EF31E6D2D8BDD082F812F6C
:10287000B701EFEEFFEFEE0EFF1E472D28E68AD8D8
:10288000F5018681C81609F1C682F401108124E1A0
:1028900030E0E20EF31E8C2DF501658172DD082F0C
:1028A000812FB701472D2CE675D8F40110812AEF4E
:1028B0003FEFE20EF31E8C2DF501648162DD082FDF
:1028C000812FB701472D24E665D80F90CF91DF9176
:1028D0001F910F91FF90EF90DF90CF90BF90AF903E
:1028E0009F908F907F9008957F928F929F92AF924A
:1028F000BF92CF92DF92EF92FF920F931F93DF93DD
:10290000CF930F92CDB7DEB77C015B01FC018181D3
:1029100089838091BE020CD68823C1F08AE69DE0AF
:1029200010D6C70164E070E03ED684E69DE009D68B
:10293000CE01019661E070E036D687E59DE001D6D4
:10294000C701029662E070E02ED6A2D66DE0C62ED8
:10295000D12CCA0CDB1C45010894811C911CF70189
:102960008281F4018783F7010281138117FF02C07E
:1029700000951095159507950F77F5018081B601A3
:102980006F5E7F4F498128E605D8F501708047E0EA
:10299000A42EB12CAC0CBD1C60E0F70182819381A8
:1029A00097FD61E0F4018085D6DC8C01872DB501AF
:1029B000498128E40E94AC0C8FE790E0F601908FEB
:1029C000878B128E118E0F90CF91DF911F910F91F7
:1029D000FF90EF90DF90CF90BF90AF909F908F903F
:1029E0007F9008954F925F926F927F928F929F9205
:1029F000AF92BF92CF92DF92EF92FF920F931F930D
:102A0000DF93CF930F92CDB7DEB73C012B01FC01D2
:102A1000818189838091BE028BD5882381F188EBE7
:102A20009DE08FD5C30167E070E0BDD582EB9DE0EE
:102A300088D5CE01019661E070E0B5D585EA9DE0CC
:102A400080D5C301029661E070E0ADD588E99DE0D4
:102A500078D5C301039661E070E0A5D58BE89DE0D1
:102A600070D5C301049661E070E09DD58EE79DE0CE
:102A700068D5C301059662E070E095D509D67DE082
:102A8000A72EB12CA40CB51C42010894811C911CEA
:102A9000F301858196818E30910518F40DE410E0E4
:102AA0000AC0F3E0883E9F0718F001E010E003C081
:102AB0000E94110D8C01F401128701878781908596
:102AC000B8012FDD6C01F201F08025E130E0A20EAB
:102AD000B31EE980C8010E94F50C8C018F2DB50151
:102AE0004E2D20E70E94AC0CF201F08025EF3FEF65
:102AF000A20EB31EE980C6010E94F50C8C018F2D39
:102B0000B501E6EFFFEFAE0EBF1E4E2D20E50E9491
:102B1000AC0CF201808182FD2EC0F50181818230F2
:102B200019F081818330E1F4F301848182958695E7
:102B30008770853028F4833068F4882329F006C034
:102B4000873050F08730B9F482E001C083E0F501AE
:102B500081830FC082E001C083E0F501818305C05D
:102B6000F301848181548F3720F481E0F40183875D
:102B700002C0F4011386C2016981F301438185DC3F
:102B8000E82EF201108121E130E0A20EB31EF30124
:102B90006281F7DB082F812FB5012FEE3FEFA20EE8
:102BA000B31E498128E60E94CA0CF4018681E8160A
:102BB00019F1E682F201108124E130E0A20EB31E89
:102BC0008E2DF4016581DDDB082F812FB501498150
:102BD0002CE60E94CA0CF20110812AEF3FEFA20EF0
:102BE000B31E8E2DF4016481CCDB082F812FB5013B
:102BF000498124E60E94CA0C0F90CF91DF911F916A
:102C00000F91FF90EF90DF90CF90BF90AF909F908B
:102C10008F907F906F905F904F9008958F929F92CA
:102C2000AF92BF92CF92DF92EF92FF920F931F93DA
:102C3000DF93CF930F92CDB7DEB75C016B01FC0140
:102C400081818983FDE0EF2EF12CE60EF71E8B01CA
:102C50000F5F1F4F8091BE026BD4882341F18DEE30
:102C60009DE06FD4C50165E070E09DD484EE9DE0E9
:102C700068D4CE01019661E070E095D48AED9DE0C4
:102C800060D4C501029661E070E08DD480ED9DE0D6
:102C900058D4C501039661E070E085D486EC9DE0D0
:102CA00050D4C501049661E070E07DD4F1D4F50103
:102CB0008481F80162810E941C0D282FF701818117
:102CC0008D3008F48AC0803120F0803109F085C051
:102CD0005CC0EDE08E2E912C8C0C9D1CF501828148
:102CE0009481E980882331F5F6019183F08084E1B5
:102CF00090E0C80ED91E822F0E94070D8C018F2DE7
:102D0000B601ECEEFFEFCE0EDF1E4E2D28E40E9442
:102D1000AC0CF601F08028E130E0C20ED31EE98051
:102D2000F50183810E94070D8C018F2DB6014E2D78
:102D300020E551C0F8019183F601F08086E190E032
:102D4000C80ED91E822F0E94070D8C018F2DB6014F
:102D5000EAEEFFEFCE0EDF1E4E2D2CE40E94AC0CEF
:102D6000F5018381803819F40FE710E004C08195E4
:102D70000E94070D8C01F60180812DE030E0820E6B
:102D8000931EB401498124E526C0F5018281948116
:102D9000E980882381F4F6019183F08084E190E05A
:102DA000C80ED91E822F0E94070D8C018F2DB601EF
:102DB0004E2D28E410C0F8019183F601F08086E1E1
:102DC00090E0C80ED91E822F0E94070D8C018F2D16
:102DD000B6014E2D2CE40E94AC0C0F90CF91DF91E8
:102DE0001F910F91FF90EF90DF90CF90BF90AF9029
:102DF0009F908F9008956F927F928F929F92AF9243
:102E0000BF92CF92DF92EF92FF920F931F93DF93C7
:102E1000CF930F92CDB7DEB75C014B01FC018181EE
:102E200089838091BE0284D3882381F186E39EE06A
:102E300088D3C50168E070E0B6D38CE29EE081D310
:102E4000CE01019661E070E0AED382E29EE079D3DC
:102E5000C501029661E070E0A6D388E19EE071D3DF
:102E6000C501039661E070E09ED38AE09EE069D3DD
:102E7000C501049662E070E096D38CEF9DE061D3CB
:102E8000C501069662E070E08ED302D4ADE0CA2E92
:102E9000D12CC80CD91C34010894611C711CF5019B
:102EA0008281F3018483F5018381F3018583F50138
:102EB00026813781F30133832283F501868197814F
:102EC0008F5F9F4F19F400E010E008C0F40181818A
:102ED0009281821B930B0E94E40C8C01F40180818F
:102EE00022E130E0C20ED31EB601498120E60E94E5
:102EF000AC0CF401F0802DEF3FEFC20ED31EE98041
:102F0000F501848195810E94E40C8C018F2DB6011E
:102F10004E2D2CE50E94AC0CF401108125E030E030
:102F2000C20ED31EF3018681F50163812ADA082FD0
:102F3000812FB60149812CE60E94CA0CF401108150
:102F40002AEF3FEFC20ED31EF3018681F5016281A5
:102F500018DA082F812FB601498124E60E94CA0C95
:102F60000F90CF91DF911F910F91FF90EF90DF9025
:102F7000CF90BF90AF909F908F907F906F9008956B
:102F8000EF92FF920F931F93DF93CF9300D00F9296
:102F9000CDB7DEB78A0195EB99836A838B837E0177
:102FA0000894E11CF11CC70163E070E00E94540D1D
:102FB00085EA8983802F8F778A8300701F771B8330
:102FC000C70163E070E00E94540D0F900F900F90C6
:102FD000CF91DF911F910F91FF90EF900895482FAF
:102FE00046958FE76CE750E0CBCFDF93CF9300D0CF
:102FF0000F92CDB7DEB795EB99836A838B83CE01B1
:10300000019663E070E00E94540D0F900F900F90B6
:10301000CF91DF91089560E1E8CF60E3E6CF60E211
:10302000E4CFDF93CF9300D0CDB7DEB7E82F815048
:10303000863010F080E00EC085EC8983F0E0E85E19
:10304000FD4F80818A83CE01019662E070E00E948C
:10305000540D81E00F900F90CF91DF9108951F9351
:10306000182F06C00E94370D8AE00E942E0D1150C5
:103070001123C1F71F91089584E690E00E943F0D4F
:103080000E94370D87E090E00E943F0D84E0E7DF6B
:1030900083E290E00E943F0D83E0E1DF8EE090E06C
:1030A0000E943F0D82E0DBDF8EE490E00E943F0D46
:1030B00082E0D5DF84E090E00E943F0D83E0CFDF27
:1030C0008BE390E00E943F0D82E0C9DF8CE792E045
:1030D00062E070E00E94540D84E190E00E943F0D98
:1030E00083E792E069E070E00E94540D89E390E08C
:1030F0000E943F0D80E492E063E370E00E94540D73
:103100008FE192E061E270E00E94540D84E089DF7B
:1031100086E490E00C943F0DCF92DF92EF92FF9205
:103120000F931F9300E0FF24EE24DD24CC2412E053
:103130008C3060F48A30B8F4873028F4853098F405
:103140008230D1F410C08830B9F40DC08F3089F0CE
:10315000803128F48D3049F08E3071F408C0803110
:1031600051F0823149F40F5F07C0F39405C0E39436
:1031700003C0D39401C0C394812F0E948F0C1F5FA2
:103180001531B1F60B3058F482E08F1540F08E15F2
:1031900030F08D1520F080E092E09C1508F481E07D
:1031A0001F910F91FF90EF90DF90CF9008958C309A
:1031B00010F080E00895E82FF0E0E155FD4F8081A8
:1031C000089580E00895FC0185E0808380E992E025
:1031D000089508950895089508950895FC01828141
:1031E000883028F4823030F4813031F407C08C30DC
:1031F00018F406C083E105C080E003C08FE001C081
:1032000087E090E00895CF93DF93EC01FB01DB01B1
:103210001D9680E285879FE712969C9312971596DC
:103220001C9215978981823008F441C0883018F0CB
:103230008C30E8F539C080E415968C931597169676
:103240009C93169719969C9319971B961C921E9205
:103250001A971C969C931C971F969C931F978EE31E
:1032600052968C9352978981823059F418961C9209
:103270001E9217978EE69EE11E969C938E931D9745
:103280000EC080E090E418969C938E93179785E685
:1032900092E11E969C938E931D9784E793E051963E
:1032A0009C938E93509703C08EE716968C93DF9174
:1032B000CF9108958AE892E066E070E00C94540D96
:1032C000DF93CF9300D000D000D0CDB7DEB791EF21
:1032D000998360646B838C834D835E834195481B27
:1032E0004157451B6F7B461B4F774A83CE010196A2
:1032F00066E070E00E94540D26960FB6F894DEBF8B
:103300000FBECDBFCF91DF910895DF93CF9300D053
:103310000F92CDB7DEB792EF99838B836295607F72
:10332000982F92959F702DE09227262F22952F702F
:1033300092278F709827962B9A83CE01019663E08F
:1033400070E00E94540D0F900F900F90CF91DF917D
:10335000089561E0DACF63E0D8CF62E0D6CFDF93A3
:10336000CF9300D0CDB7DEB7843011F48DE105C026
:10337000833011F080E00BC08AE68A8383EF898373
:10338000CE01019662E070E00E94540D81E00F9042
:103390000F90CF91DF9108950F931F93890120E043
:1033A0000E94AC0C1F910F91089584E690E00E945A
:1033B0003F0D8DEA92E062E070E00E94540D85E9D5
:1033C00092E068E170E00E94540D84E0C8DF84E67A
:1033D00090E00C943F0D23B5216023BD90938500B0
:1033E0008093840081E086BBB09BFECF0895FC01F2
:1033F000238182812827848128278581282760319D
:1034000021F48181908189272827822F82958F70CE
:103410008227982F969596959827292F26952927C4
:103420006B3011F481812827822F817008955D9A75
:1034300081EC9FEFD0DF5D9883E89FEFCCCF1F93A7
:1034400080916D06843011F010E101C01BE080E036
:10345000612F0E944308E898882361F48091E90570
:103460008F5F8093E9058B30F8F0F89480E28093C9
:10347000D800FFCF1092E90589E396E0612FB7DF0E
:10348000882391F080916D06843051F4A6E6B6E071
:10349000E9E3F6E086E001900D928150E1F704C087
:1034A00089E396E00E9489071F9108951DB880E482
:1034B0008EB910BA83EF81BB93E095BD85E0809310
:1034C0008100909369008BEC93EF85DFB0DF8BEC8C
:1034D00093EF81DF80E06EE70E944308A8DF8091D0
:1034E000400680914006813159F489E396E060E11D
:1034F0007EDF882329F083E080936D0680E00EC094
:10350000809140068C3091F489E396E06BE06FDFA8
:10351000882361F084E080936D0681E00E94240C92
:10352000E898F8948EE48093E8050895E898CECF63
:103530009091BF0220E09823981709F421E0822F90
:1035400008959C018091BF02882331F0F9012F5F1B
:103550003F4FE491EE23D1F708959C018091BF0283
:10356000882311F0C901EDCF0895FC018091BF02BD
:10357000882311F08191FCCF08959C018091BF02B6
:10358000882311F0C901F1CF08958091BF020895F9
:103590009C018091BF02882329F0662319F0C9019C
:1035A00070E0F3CF08959C018091BF02882329F039
:1035B000662319F0C90170E0E8CF0895EF92FF92F9
:1035C0000F931F93DF93CF930F92CDB7DEB7FC011C
:1035D00069838A0179018091BF02882351F0CF016C
:1035E000C4DFCE01019661E070E0D2DFC801B7010F
:1035F000DADF0F90CF91DF911F910F91FF90EF9045
:103600000895AF92BF92CF92DF92EF92FF920F9305
:103610001F93CF93DF93FC016B01F42EE52E8901FC
:103620008091BF02882349F1CF018BDF8F2D9E2D22
:10363000EC017E01E00EF11E31E0A32EB12C1AC088
:1036400088819501281B3109C901880F991FF6014E
:10365000E81BF90B1081CE0161E070E099DF1230B8
:1036600038F0612F70E061507040CE01019690DF1C
:10367000C10FD11DCE15DF0518F3DF91CF911F913A
:103680000F91FF90EF90DF90CF90BF90AF90089593
:103690000895382F282F2CC02093E900231721F4F8
:1036A000762F942F50E006C07091EC009091ED00C1
:1036B0005091F00091FF1BC08091EB008E7F8093B2
:1036C000EB008091ED008D7F8093ED008091EB0009
:1036D00081608093EB007093EC009093ED00509329
:1036E000F0008091EE0087FD02C080E008952F5F1A
:1036F000273090F23093E90081E0089580917306BD
:1037000088239CF404C0809172068823B9F08091CC
:10371000E80082FFF8CF8091E8008B778093E80083
:10372000089580917206882349F08091E80080FF17
:10373000F8CF8091E8008E778093E800089540915B
:10374000E4005091E50024E68091EC0080FF24C065
:103750008091E80080FD1EC080917206882311F4DC
:1037600082E00895853011F483E008958091EB00A4
:1037700085FF02C081E008958091E4009091E5000A
:103780008417950709F3222311F484E0089521504A
:10379000AC01DACF80E008958091E80082FFDCCFB1
:1037A000F9CFEF92FF920F931F934AD051D008EDBB
:1037B00010E0F80180818F7780838081806880832A
:1037C00080818F7D808319BC1092720610926E06E4
:1037D0001092700610926F0680EEE82EF12CF70121
:1037E00080818B7F8083F80180818160808380E08D
:1037F00060E042E04EDFE1EEF0E080818E7F80838A
:10380000E2EEF0E080818160808380818860808347
:10381000F70180818E7F8083F801808180618083C1
:103820001F910F91FF90EF900895E7EDF0E08081F8
:103830008160808384E082BF81E080937106B1CF94
:10384000E8EDF0E080818E7F80831092E2000895A1
:103850001092DA001092E10008951F920F920FB6B5
:103860000F9211242F933F934F935F936F937F9306
:103870008F939F93AF93BF93EF93FF938091E1005A
:1038800082FF0AC08091E20082FF06C08091E100C1
:103890008B7F8093E100CDD38091DA0080FF1FC041
:1038A0008091D80080FF1BC08091DA008E7F8093CA
:1038B000DA008091D90080FF0DC080E189BD82E1EE
:1038C00089BD09B400FEFDCF81E0809372060E949D
:1038D000680A05C019BC109272060E946A0A80919B
:1038E000E10080FF18C08091E20080FF14C0809149
:1038F000E2008E7F8093E2008091E20080618093FD
:10390000E2008091D80080628093D80019BC85E0E5
:10391000809372068ED38091E10084FF2DC0809148
:10392000E20084FF29C080E189BD82E189BD09B43C
:1039300000FEFDCF8091D8008F7D8093D8008091CC
:10394000E1008F7E8093E1008091E2008F7E809382
:10395000E2008091E20081608093E20080916E0637
:10396000882331F48091E30087FD02C081E001C02B
:1039700084E0809372065DD38091E10083FF22C0D2
:103980008091E20083FF1EC08091E100877F8093D9
:10399000E10082E08093720610926E068091E10051
:1039A0008E7F8093E1008091E2008E7F8093E20021
:1039B0008091E20080618093E20080E060E042E07C
:1039C00068DE37D3FF91EF91BF91AF919F918F91B7
:1039D0007F916F915F914F913F912F910F900FBE0B
:1039E0000F901F9018959C014091790650917A068E
:1039F0004617570718F4F90190E045C061157105A5
:103A000011F0AB01F8CF8091E8008E778093E80049
:103A100040E050E0F0CF80917206882309F445C061
:103A2000853009F444C08091E80083FF02C081E042
:103A300008958091E80082FD32C08091E80080FF07
:103A400022C08091F3009091F200782F60E0292F3E
:103A500030E0262B372B07C081918093F100415035
:103A600050402F5F3F4F4115510519F02830310567
:103A700098F390E02830310509F491E08091E80056
:103A80008E778093E8004115510529F6992319F6A0
:103A900006C080917206882341F0853041F0809104
:103AA000E80082FFF6CF80E0089582E0089583E089
:103AB00008959C016115710529F48091E8008B77C8
:103AC0008093E800F90127C080917206882399F15C
:103AD000853099F18091E80083FF02C081E008956C
:103AE0008091E80082FFF0CF06C08091F1008193C1
:103AF0006150704059F02091F3008091F200322F14
:103B000020E090E0822B932B892B79F78091E800BD
:103B10008B778093E80061157105B1F606C080913E
:103B20007206882341F0853041F08091E80080FFE3
:103B3000F6CF80E0089582E0089583E008959C0127
:103B40004091790650917A064617570718F4F90103
:103B500090E046C06115710511F0AB01F8CF80917E
:103B6000E8008E778093E80040E050E0F0CF80914D
:103B70007206882309F447C0853009F446C0809155
:103B8000E80083FF02C081E008958091E80082FD93
:103B900034C08091E80080FF23C08091F3009091B1
:103BA000F200782F60E0292F30E0262B372B08C059
:103BB00084918093F1003196415050402F5F3F4FE8
:103BC0004115510519F02830310590F390E0283067
:103BD000310509F491E08091E8008E778093E80048
:103BE0004115510521F6992309F0C1CF06C08091F6
:103BF0007206882341F0853041F08091E80082FF11
:103C0000F6CF80E0089582E0089583E00895BF92A2
:103C1000CF92DF92EF92FF920F931F93CF93DF9398
:103C2000182F092F7B016A018ADDB82E8823B1F590
:103C3000812F902F9C01E901C114D10439F0F601C4
:103C400080819181E81AF90AC80FD91F00E010E0BD
:103C500022C08091E80085FD16C08091E8008B7736
:103C60008093E800E7D1C114D10449F0F6018081C6
:103C70009181800F911F9183808385E010C05FDD6B
:103C8000882349F00CC08091F10089930894E108E1
:103C9000F1080F5F1F4FE114F104D9F68B2DDF916E
:103CA000CF911F910F91FF90EF90DF90CF90BF9039
:103CB0000895BF92CF92DF92EF92FF920F931F93DE
:103CC000CF93DF93182F092F7B016A0138DDB82EBF
:103CD0008823B1F5812F902F9C01E901C114D104F3
:103CE00039F0F60180819181E81AF90AC80FD91FCD
:103CF00000E010E022C08091E80085FD16C08091B0
:103D0000E8008E778093E80095D1C114D10449F082
:103D1000F60180819181800F911F9183808385E0DE
:103D200010C00DDD882349F00CC089918093F1000B
:103D30000894E108F1080F5F1F4FE114F104D9F670
:103D40008B2DDF91CF911F910F91FF90EF90DF901E
:103D5000CF90BF9008950F931F93DF93CF93CDB76C
:103D6000DEB7AC970FB6F894DEBF0FBECDBFE3E76A
:103D7000F6E08091F100819326E0EB37F207C9F776
:103D80000E94220B8091E80083FF3AC18091730664
:103D900030917406353009F487C0363040F4313044
:103DA000C9F1313070F0333009F02AC133C03830F6
:103DB00009F4F7C0393009F406C1363009F020C1E2
:103DC00097C0803821F0823809F01AC108C090915C
:103DD0006F0680917006882399F0926011C08091DF
:103DE00077068F708093E9008091EB0090E025E0EA
:103DF000969587952A95E1F7982F91701092E90092
:103E00008091E800877F8093E8009093F100109202
:103E1000F100D2C0882319F0823009F0F1C090E09F
:103E20008F719070009721F0029709F0E9C00CC0E3
:103E300080917506813009F0E3C01092700633302E
:103E400069F5809370062AC080917506882331F544
:103E5000209177062F7009F4D3C02093E900809158
:103E6000EB0080FF1BC0333021F48091EB008062B7
:103E700013C08091EB0080618093EB0081E090E0C3
:103E800002C0880F991F2A95E2F78093EA001092EA
:103E9000EA008091EB0088608093EB001092E900CB
:103EA0008091E800877F8BC0882309F0A9C010911A
:103EB00075061F770FB7F8948091E800877F80938D
:103EC000E8001CDC8091E80080FFFCCF8091E300DB
:103ED0008078812B8093E30080688093E300112336
:103EE00011F482E001C083E0809372060FBF88C0A6
:103EF0008058823008F084C08091750690917606D3
:103F000023E08C3D920709F033C083E08C838AE282
:103F10008B837FB7F894DE0115966EE040E050E0A9
:103F200011E2E62FF0E010935700849140FF03C0A8
:103F300082958F706F5F8F70282F30E08A3018F075
:103F4000C901C79602C0C901C0968D939D934F5F6A
:103F50005F4F4431510529F77FBF8091E800877F8B
:103F60008093E800CE0103966AE270E03CDD13C066
:103F700060917706AE014F5F5F4F0E94C909BC0197
:103F8000009709F43DC08091E800877F8093E800A6
:103F900089819A81D4DD8091E8008B778093E80055
:103FA0002FC0803869F58091E800877F8093E80012
:103FB00080916E068093F1008091E8008E77809367
:103FC000E8009CDB1DC08823D9F4909175069230DF
:103FD000B8F48091E800877F8093E80090936E06A4
:103FE0008DDB80916E06882331F48091E30087FD9C
:103FF00002C081E001C084E0809372060E94C80B79
:104000008091E80083FF0AC08091EB00806280937A
:10401000EB008091E800877F8093E800AC960FB6B4
:10402000F894DEBF0FBECDBFCF91DF911F910F91EE
:10403000089508951F9380917206882361F010916E
:10404000E9001092E9008091E80083FF01C083DE5F
:104050001F701093E9001F910895AA1BBB1B51E12B
:1040600007C0AA1FBB1FA617B70710F0A61BB70BE8
:10407000881F991F5A95A9F780959095BC01CD018D
:10408000089597FB092E07260AD077FD04D0E5DFB7
:1040900006D000201AF4709561957F4F0895F6F7C9
:1040A000909581959F4F0895DC0101C06D9341501B
:0A40B0005040E0F70895F894FFCFA8
:1040BA00FF4765745265706F727400536574526578
:1040CA00706F7274000000000000000853657420CD
:1040DA00437573746F6D20466F72636500456E6138
:1040EA00626C65204163747561746F727300446910
:1040FA007361626C65204163747561746F727300D9
:10410A0053746F7020416C6C2045666665637473E6
:10411A0000526573657400506175736500436F6E74
:10412A0074696E75650053657420446F776E6C6FA1
:10413A00616420466F7263652053616D706C65001F
:10414A0053657420437573746F6D20466F7263658F
:10415A00204461746100557362203C3D003C18A5FF
:10416A001111189B118C180F180D180B18C0173D38
:10417A0012EF17D511FB160E16F2147414C513A2FA
:10418A0012D519E318AF19D718E118AD19AB19A947
:10419A00196019CC195A190319E918EA18EB18EC1D
:1041AA0018ED18EE18020E000800050007000400BA
:1041BA0004000F00030000000400020002000200D5
:1041CA0005000400F000010A01020306010504A526
:1041DA001465B5647FA57E6BB5687FA53600B56C9E
:1041EA007FA52800B5707FA5664CB5747FA57E01B2
:1041FA00B5407FA57257B5447FA53C43B5487FA516
:10420A007E00B54C7FA50400B5507FA50200B554C9
:10421A007FA50200B5587FA5007EB55C7FA53C004E
:10422A00B5607FF000010A0110056BF7C50112069F
:10423A000502080A0B0D0E0F1001F11040007F0055
:10424A00F000010A15F10E4301007DF17E04013EE2
:10425A004EF11C45013E2FF10B46017D00F31D0670
:10426A0005030204050508090A0B000001020402FD
:00000001FF
