:10000000E5C700000C940408FDC70000FBC7000012
:10001000F9C70000F7C70000F5C70000F3C70000EC
:10002000F1C70000EFC700000C94DC1DEBC7000017
:10003000E9C70000E7C70000E5C70000E3C700000C
:10004000E1C70000DFC70000DDC70000DBC700001C
:10005000D9C70000D7C70000D5C70000D3C700002C
:10006000D1C70000CFC70000CDC70000CBC700003C
:10007000C9C700000C945309C5C70000C3C70000DE
:10008000C1C70000BFC70000BDC70000BBC700005C
:10009000B9C70000B7C70000B5C70000B3C700006C
:1000A000B1C70000AFC70000ADC7000005010904DB
:1000B000A10185010901A1000930093109321600A9
:1000C000FE26FF01350046FF0395037510810209E6
:1000D000351500253F3500452E95017506810275C1
:1000E0000295018101650009330934150025FF459A
:1000F000FF7508750895028102C009361580257FB5
:1001000045FF750895018102050209BB15C0253F11
:10011000457F750895018102050919012908150017
:1001200025014501750195088102190929107501FC
:100130009508810205010939950175041500250707
:10014000463B0165148142750495018101550065A6
:1001500000050F0992A1028502099F09A009A409BF
:10016000A509A615002501350045017501950581F4
:100170000295038103099415002501350045017599
:1001800001950181020922150125283501452875AF
:100190000795018102C00921A102850109221501EB
:1001A0002528350145287508950191020925A102E8
:1001B0000926092709300931093209330934094070
:1001C0000941094209430928250C15013501450C4F
:1001D000750895019100C009500954095115002670
:1001E000FF7F350046FF7F66031055FD75109503B0
:1001F000910255006600000952150026FF003500E7
:1002000046102775089501910209531501250835F7
:100210000145087508950191020955A102050109DA
:1002200030093115002501750195029102C0050FB5
:10023000095695019102950591030957A1020B01F9
:10024000000A000B02000A0066140055FE15002685
:10025000B400350047A08C000066000075089502C8
:1002600091025500660000C0050F66031055FD158C
:100270000026FF7F350046FF7F7510950166000060
:100280005500C0050F095AA1028502092215012552
:100290002835014528750895019102095B095D150E
:1002A0000026FF00350046102795029102095C09DF
:1002B0005E66031055FD26FF7F46FF7F7510910295
:1002C00045006600005500C0095FA10285030922B0
:1002D0001501252835014528750895019102092346
:1002E0001500250135004501750495019102095855
:1002F000A1020B01000A000B02000A007502950220
:100300009102C01580257F36F0D846102709607508
:10031000089501910236F0D84610270961950191A0
:1003200002150026FF003500461027096309647591
:100330000895024610279501C0096EA1028504099F
:1003400022150125283501452875089501910209D6
:1003500070150026FF00350046102775089501919D
:1003600002096F1580257F36F0D846102795019138
:1003700002097166140055FE150026FF003500477E
:10038000A08C00009102097226FF7F46FF7F660362
:100390001055FD7510950191026600005500C009C9
:1003A00073A1028505092215012528350145287507
:1003B000089501910209701601FF26FF0036F0D85A
:1003C000461027751095019102C00974A102850697
:1003D0000922150125283501452875089501910246
:1003E000097509761580257F36F0D84610277508DF
:1003F00095029102C00968A102850709221501250D
:100400002835014528750895019102096C150026CB
:1004100010273500461027751095019102096915BE
:1004200081257F350046FF007508950C920201C0BA
:100430000966A10285080501093009311581257F6A
:10044000350046FF00750895029102C0050F097737
:10045000A102850A092215012528350145287508BC
:10046000950191020978A1020979097A097B1501A0
:100470002503750895019100C0097C150026FF0031
:10048000350046FF009102C00990A102850B0922A8
:100490002528150135014528750895019102C009E7
:1004A00096A102850C099709980999099A099B094F
:1004B0009C15012506750895019100C0097DA102D2
:1004C000850D097E150026FF0035004610277508AA
:1004D00095019102C0096BA102850E092215012523
:1004E0002835014528750895019102096D150026EA
:1004F000FF00350046FF007508950191020951661D
:10050000031055FD150026FF7F350046FF7F75104F
:10051000950191025500660000C009ABA102850556
:100520000925A102092609270930093109320933B1
:10053000093409400941094209430928250C1501DC
:100540003501450C75089501B100C00501093B1541
:100550000026FF01350046FF01750A9501B10275BD
:1005600006B101C0050F0989A102850609222528C7
:1005700015013501452875089501B102098BA102C5
:10058000098C098D098E2503150135014503750870
:100590009501B100C009AC150027FFFF0000350030
:1005A00047FFFF000075109501B100C0097FA1024F
:1005B00085070980751095011500350027FFFF009C
:1005C0000047FFFF0000B102098326FF0046FF003D
:1005D00075089501B10209A909AA750195021500CE
:1005E000250135004501B10275069501B103C0C072
:1005F00005010904A10185010904A100093009319F
:10060000093216000026FF03350046FF03950375E7
:1006100010810209351500253F3500452E950175DD
:1006200006810275029501810165000933093415BF
:100630000025FF45FF7508750895028102C009363F
:100640001580257F45FF750895018102050209BBCC
:100650001500253F453F75089501810205091901DF
:100660002908150025014501750195088102190920
:100670002910750195088102050109399501750454
:1006800015002507463B01651481427504950181DB
:100690000155006500050F0992A1028502099F0915
:1006A000A009A409A509A615002501350045017575
:1006B00001950581029503810309941500250135F3
:1006C0000045017501950181020922150125283592
:1006D000014528750795018102C00921A102850104
:1006E0000922150125283501452875089501910233
:1006F0000925A102092609270930093109320933E0
:10070000093409400941094209430928250C15010A
:100710003501450C750895019100C009500954092F
:1007200051150026FF7F350046FF7F66031055FDFB
:1007300075109503910255006600000952150026B8
:10074000FF003500461027750895019102095315E1
:10075000012508350145087508950191020955A143
:100760000205010930093115002501750195029135
:1007700002C0050F0956950191029505910309578D
:10078000A1020B01000A000B02000A0066140055CA
:10079000FE150026B400350047A08C00006600005E
:1007A0007508950291025500660000C0050F6603AA
:1007B0001055FD150026FF7F350046FF7F7510950B
:1007C000016600005500C0050F095AA10285020903
:1007D0002215012528350145287508950191020942
:1007E0005B095D150026FF00350046102795029134
:1007F00002095C095E66031055FD26FF7F46FF7FF8
:100800007510910245006600005500C0095FA10205
:10081000850309221501252835014528750895010C
:100820009102092315002501350045017504950144
:1008300091020958A1020B01000A000B02000A00F4
:10084000750295029102C01580257F36F0D84610BA
:1008500027096075089501910236F0D846102709DE
:100860006195019102150026FF0035004610270909
:10087000630964750895024610279501C0096EA1A9
:10088000028504092215012528350145287508959A
:100890000191020970150026FF00350046102775EA
:1008A0000895019102096F1580257F36F0D8461012
:1008B0002795019102097166140055FE150026FF67
:1008C00000350047A08C00009102097226FF7F4688
:1008D000FF7F66031055FD751095019102660000BB
:1008E0005500C00973A10285050922150125283587
:1008F00001452875089501910209701601FF26FF30
:100900000036F0D8461027751095019102C0097481
:10091000A1028506092215012528350145287508FB
:1009200095019102097509761580257F36F0D84624
:100930001027750895029102C00968A10285070970
:1009400022150125283501452875089501910209D0
:100950006C1500261027350046102775109501915B
:100960000209691581257F350046FF007508950C41
:10097000920201C00966A10285080501093009310A
:100980001581257F350046FF00750895029102C04C
:10099000050F0977A102850A0922150125283501CD
:1009A00045287508950191020978A1020979097A0B
:1009B000097B15012503750895019100C0097C1577
:1009C0000026FF00350046FF009102C00990A102F9
:1009D000850B092225281501350145287508950143
:1009E0009102C00996A102850C09970998099909F5
:1009F0009A099B099C15012506750895019100C06F
:100A0000097DA102850D097E150026FF00350046EF
:100A10001027750895019102C0096BA102850E0986
:100A200022150125283501452875089501910209EF
:100A30006D150026FF00350046FF007508950191F1
:100A400002095166031055FD150026FF7F3500464B
:100A5000FF7F7510950191025500660000C009AB3B
:100A6000A10285050925A1020926092709300931B6
:100A70000932093309340940094109420943092867
:100A8000250C15013501450C75089501B100C0050F
:100A900001093B150026FF01350046FF01750A9547
:100AA00001B1027506B101C0050F0989A1028506D1
:100AB0000922252815013501452875089501B1023F
:100AC000098BA102098C098D098E250315013501B9
:100AD000450375089501B100C009AC150027FFFF5B
:100AE0000000350047FFFF000075109501B100C000
:100AF000097FA10285070980751095011500350051
:100B000027FFFF000047FFFF0000B102098326FF17
:100B10000046FF0075089501B10209A909AA7501EF
:100B200095021500250135004501B10275069501B4
:100B3000B103C0C012011001EF020108EB034E2007
:100B400001000102000112011001EF020108EB0394
:100B5000562001000102000109026600030100C0E5
:100B60003209040000020300000009211101000104
:100B700022440507050203400001070581034000E8
:100B800001080B0102020201000904010001020236
:100B900001000524001001042402060524060102B8
:100BA000070585030800FF09040200020A0000008F
:100BB0000705040210000107058302100001040369
:100BC000090418034400650061006E002000430022
:100BD00061006D00650072006100000026034C009A
:100BE00055004600410020004A006F007900730064
:100BF0007400690063006B00200077004600460027
:100C00004200000020034C00550046004100200037
:100C100057006800650065006C0020007700460002
:100C20004600420000004572726F723A20756E6B8A
:100C30006E6F776E20656666656374207479706583
:100C400020746F20656E61626C652F6469736162E8
:100C50006C65002053696E65732064697361626C12
:100C600065640A0020547269616E676C6573206464
:100C7000697361626C65640A0020436F6E7374610E
:100C80006E74732064697361626C65640A0020533A
:100C90007072696E67732064697361626C65640A5F
:100CA00000456666656374733A0A004572726F7236
:100CB0003A20756E6B6E6F776E20636F6D6D616E2F
:100CC00064002C20646174613D00436F6D20203D01
:100CD0003E20436F6D6D616E643D005265636569D2
:100CE00076656420646174613D0045787065637465
:100CF000696E672064617461206C656E3D00202020
:100D00003D20536574436F6E74726F6C4C696E65F1
:100D100053746174650020203D205365744C696EE6
:100D200065456E636F64696E670020203D204765EE
:100D3000744C696E65456E636F64696E67004374D9
:100D4000726C5265712876616C2C6964782C7265BE
:100D500071293A0053746F70206D616E75616C3A41
:100D6000000A20206761696E3D000A2020666164E8
:100D70006554696D653D0020206475726174696F0A
:100D80006E3D002028456E61626C6564290A002072
:100D90002844697361626C6564290A0020467265A3
:100DA00065002053656E740020506C6179696E6730
:100DB0000A0020416C6C6F636174656400203D3EE5
:100DC000204D6964693A004465766963652047612E
:100DD000696E3A20004F746865722000426C6F6340
:100DE0006B20467265653A200020556E6B6E6F77FA
:100DF0006E206F7065726174696F6E002053746F3E
:100E00007000205374617274536F6C6F00205374C0
:100E100061727400456666656374204F7065726127
:100E200074696F6E3A004765745265706F72742012
:100E300050494420506F6F6C20466561747572652F
:100E4000002020627574746F6E3D00202072657002
:100E50006561743D002020593D002020583D002050
:100E600020647572613D0020206761696E3D00203D
:100E700020747970653D002020696420203D005376
:100E80006574204566666563743A002C207374614E
:100E90007475733D00437265617465204E657720FB
:100EA000456666656374203D3E2069643D00557368
:100EB0006220203D3E002020656E6420203D002001
:100EC0002073746172743D00202069643D00536595
:100ED000742052616D7020466F7263653A00202065
:100EE0006D61676E69747564653D00202069643DBD
:100EF0000053657420436F6E7374616E7420466F87
:100F00007263653A002020706572696F642020204A
:100F10003D0020207068617365202020203D002066
:100F2000206F66667365742020203D0020206D616F
:100F3000676E69747564653D00202069643D0053E7
:100F4000657420506572696F6469633A002020639C
:100F50006F6566662B3D0020206F66667365743D85
:100F6000002020626C6F636B203D002020696420AC
:100F700020203D0053657420436F6E646974696F6F
:100F80006E3A0020206661646554696D6520203DDD
:100F900000202061747461636B54696D653D0020AD
:100FA000206661646520203D0020206174746163C7
:100FB0006B3D0020206964202020203D0053657493
:100FC00020456E76656C6F70653A000011241FBE77
:100FD000CFEFDAE0DEBFCDBF12E0A0E0B1E0EAE0A3
:100FE000F4E402C005900D92AC3CB107D9F718E0CB
:100FF000ACECB2E001C01D92A13AB107E1F773D7A2
:101000000C9403220C9400005F935FB75F9357EE3C
:1010100056BD4F93AF93BF93B6E0A0916406509135
:101020006506452F53955093650653B15295507EF2
:10103000477069F04530B9F0423069F04330F1F063
:101040004630E9F04130E1F04430D9F01BC0529510
:1010500056955E931AC0550F4C91542B5C935527AF
:10106000551F5E9312C057FB550F550F4C91542BD3
:101070005C935527551F51F95E9307C056955695B9
:10108000569556954C91542B5C93A0936406BF9152
:10109000AF914F915F915FBF5F911895DC0154E074
:1010A000A50F5C91509550FB5095A1503C91369501
:1010B000579550938C0642E0340F33705C91A150E9
:1010C0004C91469557955C7F532B50938D0638E095
:1010D000430F4F70A2505C91550F550F5051507FE8
:1010E000542B50938E063C9142E0340F3370A395FD
:1010F0004C91407F342B3295330F330F54E0A50FC2
:101100005C915095569537955695379530938F0647
:1011100056F9A3504C9145FB57F950939006A150B6
:101120005C9138E0530F5F70440F551F440F551FFB
:10113000509391060895DC0145E0A40F5C91A395BE
:10114000A3953C913873330F3295550F36955795CB
:101150004EEF340F337050938C064C914770A35070
:101160005C91550F469557952EEF420F4370550FE2
:10117000441F550F441F532B50938D06342FA250FC
:101180005C91A3954C914871550F440F429546953B
:101190005795409540FB5295452F407F432B4093F8
:1011A0008E065F7054F9352FA3505C91507747E05D
:1011B000A40F4C9146FB57F9505157FB550F532B39
:1011C00050938F06332730F9AA955C91A3504C9128
:1011D00046FB57F950954427550F441F532B509306
:1011E0009006342FA2505C91A395A3954C91477023
:1011F000550F469557952EEF420F437057FB550FED
:10120000532B50939106440F40F940939206089552
:10121000482F362F8827F894E09AE89A2227189BBF
:101220002FEF51E053BD5CE956BDA89A20936506A7
:1012300054E65093640678942498259850E05A9583
:10124000F1F7249A259A50916506521719F4A89B34
:10125000FACF089550916506521B250F231728F4E5
:1012600044238AF7450F7AF3E7CF83950895D0DFBB
:10127000882371F050916506563151F4F894552742
:101280005093650650916406539550936406789484
:101290000895DC0101C06D9341505040E0F708957E
:1012A00081E090E008951F920F920FB60F921124E3
:1012B0008F9381E08093CC028F910F900FBE0F909F
:1012C0001F901895CF93DF93EB0183E085BD0E94BB
:1012D000421B8091CC028823C9F11092CC028091EC
:1012E000CD02813069F0813028F0843089F085307A
:1012F000C9F414C0809179008093CE0281E005C0CA
:10130000809179008093CF0284E08093CD020CC05D
:10131000809179008093D00285E0F7CF80917900A9
:101320008093D1021092CD0280917C00887F8093BF
:101330007C0090917C008091CD028770892B8093F6
:101340007C0080917A00806480937A0081E08883B9
:10135000809193068430A1F520918F0622952695E1
:101360002695237030E080918E0690E0880F991FBB
:10137000880F991F282B392B8FEF90E028273927CA
:101380003D872C878091900690E083709070982F15
:10139000882720919106820F911D9A8389838091DD
:1013A000900690E08C7F9070880F991F880F991F8E
:1013B0009C838B8380918F0680958F738B8771C000
:1013C00080918D0690E083709070382F2227809155
:1013D0008C06280F311D3A83298380918D0681FF69
:1013E00003C03C6F3A83298380918E06282F30E01A
:1013F0002F70307046E0220F331F4A95E1F780913D
:101400008D0686958695280F311D3C832B83809110
:101410008E0683FF03C03C6F3C832B8320918F0695
:1014200022952695269523708091900690E08F77DF
:101430009070880F991F880F991F820F911D9D87AB
:101440008C8780918E0682958F708E8780918F0613
:101450008F7380528F83909191069F73990F809123
:101460009006881F8827881F980F9B878091910678
:1014700085FF02C0906C9B871E821D828091D102E5
:101480002091D00290E0821B910962E070E00E94FE
:10149000F02160586A878091CF0288878091CE02C0
:1014A000898781E090E0DF91CF9108950E94791BB8
:1014B00086E08093660683E08093810085E085BDA9
:1014C00026E02150822F90E0FC01E457F94FE081A3
:1014D000DC01A859B94F8C918E13EC93222389F724
:1014E00088EE93E0BCD5FAD610BA80917A00876076
:1014F00080937A0080917C00806480937C0080914E
:101500007C00806280937C0080917A008068809368
:101510007A0080917A00886080937A0080917A00C6
:10152000806480937A000895CF92DF92EF92FF92C9
:101530000F931F93DF93CF9300D0CDB7DEB7282F43
:101540006A836A01933049F1943030F49130A9F004
:10155000923009F06CC00AC0913209F43DC0923259
:1015600009F43FC0943009F062C04BC0F8E5EF2E9B
:10157000FBE0FF2E06E610E05EC08091930684300B
:1015800029F0E4E3EE2EEBE0FE2E04C076E4E72E35
:101590007BE0F72E02E110E04EC0813051F0813047
:1015A00020F0823009F043C008C0EEEBFBE08491EC
:1015B0000FC0E2ECFBE084910BC080919306843075
:1015C00021F4E4E0FCE0849103C0ECEDFBE08491C5
:1015D000082F10E07F012FC06AE6E62E6BE0F62EA2
:1015E00023C080919306843029F05CEAE52E50E018
:1015F000F52E04C040EFE42E45E0F42E04E415E09F
:101600001AC08A81882329F431E6E32E3BE0F32EC9
:101610000BC0813029F097EAE92E9BE0F92E04C037
:1016200089E8E82E8BE0F82E09E010E004C0EE24F3
:10163000FF2400E010E02983CE01019661E070E014
:101640000E945B1CCE01029661E070E00E94661C65
:10165000F601F182E082C8010F900F90CF91DF91E7
:101660001F910F91FF90EF90DF90CF9008955E9AB9
:1016700008955E980895982F80538A3068F08153BA
:10168000863010F4865F0895892F8154863010F0DB
:101690008FEF0895892F87530895843629F4809118
:1016A000B8026095862303C08091B802862B809390
:1016B000B80208950C949014089530C5089500C59B
:1016C0000895883011F4862FDFC4813011F4862FFD
:1016D000E2C4853011F4862FE5C4823011F4862FE0
:1016E000E8C486E29CE00C94F61B0F931F93DF93F3
:1016F000CF930F92CDB7DEB781EA9CE00E94DE1B4C
:1017000019828E010F5F1F4F02C00E94D91CC801B1
:101710007BD58823D1F780917406882321F08EE849
:101720009CE00E94DE1B80917506882321F089E7EA
:101730009CE00E94DE1B80917606882321F084E6DF
:101740009CE00E94DE1B80917706882321F083E5D0
:101750009CE00E94DE1B0F90CF91DF911F910F91B3
:101760000895EF92FF920F931F93DF93CF930F9201
:10177000CDB7DEB789838B017A018AEC9CE00E94A9
:10178000DE1BCE01019661E070E00E945B1C82ECE2
:101790009CE00E94DE1BC801B7010E94661C898183
:1017A000843611F0843421F4F801608176DF2AC098
:1017B0008D3621F4C801B70180DF24C0853721F4BC
:1017C000C801B70177DF1EC0843721F4F80180819A
:1017D00060E005C0843529F4F801808161E071DFA3
:1017E00011C0853621F4F801808160E005C08534A0
:1017F00029F4F801808161E062DF04C08BEA9CE09B
:101800000E94F61B0F90CF91DF911F910F91FF90D7
:10181000EF9008951F93DF93CF930F92CDB7DEB76C
:10182000182F69838091B7020E94BB1B882351F057
:101830008BED9CE00E94DE1BCE01019661E070E022
:101840000E94661CE091D502F0E0EA52FD4F8981CA
:1018500080838091D5028F5F8093D5029091D502CD
:101860008091D302981758F04091D302812F66EDF2
:1018700072E050E076DF1092D4021092D5020F9001
:10188000CF91DF911F9108951F93DF93CF930F9214
:10189000CDB7DEB789838091D4028823E9F48091A3
:1018A000B7020E94BB1B882331F0CE01019661E094
:1018B00070E00E94661C9981892F81528A3508F058
:1018C00068C09C3611F411DF64C09093D40210926A
:1018D000FF021092D3025DC01091B702812F0E94C7
:1018E000BB1B882331F0CE01019661E070E00E94BD
:1018F0005B1C8091FF02882371F48981BCDE982FE4
:101900008F3F09F446C081E08093FF029295907F5B
:101910009093D3023EC08091FF028130E9F4898127
:10192000AADE982F8F3FA9F182E08093FF02809179
:10193000D302890F8093D302812F0E94BB1B88237F
:1019400041F18AEE9CE00E94DE1B83ED92E061E0B3
:1019500070E00E94661C1DC089818DDE982F8F3F2C
:10196000C1F08091FF028F5F8093FF028091FF02A0
:1019700080FF05C09295907F9093FE020AC08091EF
:10198000FE02890F8093FE028091D4026091FE02D4
:1019900041DF0F90CF91DF911F910895AF92BF92D9
:1019A000CF92DF92EF92FF920F931F93DF93CF932B
:1019B000CDB7DEB7C058D0400FB6F894DEBF0FBE2B
:1019C000CDBF10919808143009F045C00E94D91C71
:1019D0001093E9008091E80082FF3DC05E9ACC241C
:1019E000DD245E010894A11CB11C0EC00894C11C2A
:1019F000D11CC80161E070E040E050E00E94B61FD9
:101A00000F5F1F4F853091F32091F3008091F2001A
:101A1000F22EEE2490E08E299F29892B41F080E858
:101A2000C816D10420F485010C0D1D1DDFCF809157
:101A3000E8008B778093E8008E010F5F1F4F7801DD
:101A4000EC0CFD1C04C0F80181918F011DDF0E1507
:101A50001F05C9F75E98C058DF4F0FB6F894DEBF78
:101A60000FBECDBFCF91DF911F910F91FF90EF90EF
:101A7000DF90CF90BF90AF9008956F927F928F923A
:101A80009F92AF92BF92DF92EF92FF920F931F93BC
:101A9000DF93CF93CDB7DEB7C054D0400FB6F894E4
:101AA000DEBF0FBECDBF80919808843009F083C09F
:101AB00081E08093E9008091E80080FF13C080916D
:101AC00000018E010F5F1F4FB801FCDBC8016FE002
:101AD00070E040E050E00E9408208091E8008E779E
:101AE0008093E80082E08093E9008091E80082FF23
:101AF00062C05E9ADD245E010894A11CB11C22E044
:101B0000622E712C6C0E7D1E90EA892E9FE0992E1C
:101B10003EC0C50161E070E040E050E00E94B61FA9
:101B20008530B9F3D394E981F0E0EE0FFF1FE8515F
:101B3000FE4F0081118101501040C8018D0D911D93
:101B40008034910598F020E931E05E9888EE93E0CA
:101B5000F9013197F1F70197D9F75E9A88EE93E092
:101B6000F9013197F1F70197D9F7EFCFC301B80128
:101B700040E050E00E94B61F8530C1F3D00E0F5FE9
:101B80001F4FC501B801CCD6C4010197F1F72091D0
:101B9000F3008091F200F22EEE2490E08E299F292E
:101BA000892B21F08FE38D1508F0B3CF8091E800E9
:101BB0008B778093E800C05CDF4F0FB6F894DEBFF0
:101BC0000FBECDBFCF91DF911F910F91FF90EF908E
:101BD000DF90BF90AF909F908F907F906F9008950F
:101BE000EF92FF920F931F93DF93CF93CDB7DEB7A2
:101BF00064970FB6F894DEBF0FBECDBF80919D08ED
:101C000090919E08019719F0EE24FF2404C035E15D
:101C1000E32E31E0F32E0091B702802F0E94BB1B10
:101C20008823B1F08EE39DE00E94DE1B8BE998E0F3
:101C300062E070E00E945B1C8DE998E062E070E079
:101C40000E945B1C8AE998E061E070E00E94661CDB
:101C500080919A08803209F498C0813230F4813042
:101C600059F0893009F0C2C032C0813209F471C024
:101C7000823209F0BBC0A6C0802F0E94BB1B882304
:101C800021F081E091E00E94181C80919908813A2E
:101C900009F0ACC05E9A80919B0890919C0823E06B
:101CA0008730920731F48E010F5F1F4FC801E2D4D5
:101CB0003FC08E010A5F1F4FB80104DB8091E8002E
:101CC000877F8093E800C8016FE070E039C0802F03
:101CD0000E94BB1B882321F08BE091E00E94181C1E
:101CE00080919908813209F081C05E9A8091E80064
:101CF000877F8093E8008E010A5F1F4F60919F08E5
:101D00007091A008C8010E94081F0E942D1D80919B
:101D10009B0890919C0885509340C9F480ED97E012
:101D20000197F1F7C8018E010F5F1F4FB8017FD5F2
:101D30008091E800877F8093E800C80165E070E04B
:101D40000E94A21E8091E8008B778093E8005E9845
:101D50004DC0802F0E94BB1B882321F08AE29DE0AA
:101D60000E94DE1B80919908813A09F03FC0809162
:101D7000E800877F8093E800C70167E070E00E9479
:101D8000A21E8091E8008B771AC0802F0E94BB1B97
:101D9000882321F086E19DE00E94DE1B8091990856
:101DA000813221F58091E800877F8093E800C701A8
:101DB00067E070E00E94081F8091E8008E778093B2
:101DC000E80014C0802F0E94BB1B882321F08EEFF7
:101DD0009CE00E94DE1B80919908813239F4809149
:101DE000E800877F8093E8000E942D1D64960FB65F
:101DF000F894DEBF0FBECDBFCF91DF911F910F9141
:101E0000FF90EF900895CF92DF92EF92FF920F93A1
:101E10001F9381E061EC42E30E94F81C082F82E0EE
:101E200060EC42E30E94F81CC82E83E061E842E1C6
:101E30000E94F81CE82E84E060E842E10E94F81C51
:101E400010E0DD240C211D2101701070FF240E21F3
:101E50001F2120E030E0012B11F021E030E0082FBD
:101E600010E00223132385E061EC42E00E94F81C9D
:101E7000109215011092160110921701109218017C
:101E800020E030E0012B11F021E030E090E0282349
:101E90003923232B11F490E401C090E08BB18F7BA8
:101EA000982B9BB91F910F91FF90EF90DF90CF90EF
:101EB000089584B7877F84BF88E10FB6F894809334
:101EC0006000109260000FBE80E090E020E80FB646
:101ED000F89420936100809361000FBE569A5E983B
:101EE000E5DA0C94C41DE5DF5E98789408C05E9A2C
:101EF0008CE291E0B4D05E988CE291E0B0D0D0D981
:101F0000892BA9F3BADD0E94D91C48DD0E94D91C97
:101F10000E94C9210E94D91CF2CF9EE1899FC00175
:101F2000112483559E4F90930103809300030895DD
:101F3000853180F4282F30E085E290E0289FF00181
:101F4000299FF00D389FF00D1124EE5FFC4F80812A
:101F5000826080830895282F8531F8F4A82FB0E09F
:101F600085E290E0A89FF001A99FF00DB89FF00DC9
:101F70001124EE5FFC4F80818D7F8083AD58B94F77
:101F800015968C91882349F4E0910003F0910103A8
:101F90000484F585E02D822F099508951F9311E0A3
:101FA000812FD9DF1F5F1531D9F71F910895482F71
:101FB0008531E8F4282F30E085E290E0289FF00199
:101FC000299FF00D389FF00D1124EE5FFC4F108219
:101FD0008091E901481710F44093E901E091000372
:101FE000F09101030484F585E02D842F099508956F
:101FF0002FEF8F3F920719F420E030E008C09C01DA
:1020000030703695279580709F77280F391FC9014A
:102010000895282F332727FD309587FF02C02058C9
:102020003048C9010895689FB0011124672F770FC8
:10203000770B65956595862F8F77089520E304C00B
:10204000922F9A95F1F781508823D1F7089524981B
:10205000259885E0F3DF249A259A81E0EFCF20EAE6
:102060003FE004C0A895F9013197F1F701974FEFD0
:102070008F3F9407B9F70895982F8091C80085FF86
:10208000FCCF9093CE00089590E0882309F491E06E
:1020900090937406089590E0882309F491E090935A
:1020A0007506089590E0882309F491E090937606F0
:1020B000089590E0882309F491E0909377060895BD
:1020C000DF93CF930F92CDB7DEB78983282F30E00F
:1020D00080E0662309F481E0F901ED58F94F85832A
:1020E00085E290E0289FF001299FF00D389FF00DC8
:1020F0001124EE5FFC4F8081823061F484E59DE025
:102100000E94DE1BCE01019661E070E00E94661C19
:10211000898121DF0F90CF91DF910895EF92FF9297
:102120000F931F93CF93DF937C018B018091B802B3
:10213000882341F08DEB9DE00E94DE1BC701B801B2
:102140000E94661CC0E0D0E006C0F701EC0FFD1F46
:10215000808192DF2196C017D107B8F3DF91CF912C
:102160001F910F91FF90EF900895FF920F931F938F
:10217000DF93CF9300D00F92CDB7DEB78C01F62E50
:10218000E0910003F09101030280F381E02DCE0184
:1021900001960995698170E0C1DFC8016F2D70E07B
:1021A000BDDF1A8206C0F80181918F01980F9A83D2
:1021B000FA949A81FF20B9F791959F779A83CE017F
:1021C000029661E070E0AADF87EF8B83CE01039671
:1021D00061E070E0A3DF0F900F900F90CF91DF913F
:1021E0001F910F91FF9008950F931F938C0187EC1F
:1021F0009DE00E94DE1BC801019661E070E00E9434
:10220000661C1F910F9108950F931F93CF93DF9337
:102210008C01DC018C91882311F482E08C93F8010D
:102220009081943110F080E054C085E2989FE001E5
:102230001124CE5FDC4FC80161E070E00E945B1C9E
:102240008881813019F482EB9DE00CC0823019F452
:1022500088EA9DE007C0843019F482EA9DE002C05C
:102260008CE99DE00E94DE1BD801EC91F0E0ED5876
:10227000F94F8581882319F08FE89DE002C083E83B
:102280009DE00E94DE1B88818823F1F087E79DE0B6
:102290000E94DE1BCE01019662E070E00E945B1C92
:1022A0008AE69DE00E94DE1BCE01039662E070E0AC
:1022B0000E945B1C81E69DE00E94DE1BCE0105961C
:1022C00061E070E00E945B1CF80180818F5F808379
:1022D00081E0DF91CF911F910F91089523E736E0C0
:1022E000C90160E070E049E150E00E944909539A59
:1022F0001092C8008FE190E09093CD008093CC00C5
:1023000086E88093CA0088E08093C9001092CE00CE
:1023100022E033E0C90160E070E049E053E00E9450
:10232000490920E736E0C90160E070E043E050E091
:102330000E94490982E08093E901E0910003F09155
:1023400001030190F081E02D0995089582E08093CA
:10235000E90122E033E0C90160E070E049E053E0C8
:102360000C9449098091E901843111F440E038C0AE
:102370004091E9014F5F4093E901415025E230E08F
:1023800009C08091E9018431A0F48091E9018F5F57
:102390008093E9018091E90190E0829FF001839FA1
:1023A000F00D929FF00D1124EE5FFC4F8081882389
:1023B00041F7242F30E085E290E0289FF001299F2B
:1023C000F00D389FF00D1124DF01AE5FBC4F81E0AE
:1023D0008C93E45FFC4F8BE1DF011D928A95E9F756
:1023E000842F08958CE191E00C94181CCF93DF9317
:1023F000EC01998182E0809370068091710684607F
:1024000080937106809171068061809371061092AD
:102410007206913041F48DE291E00E94181C809187
:1024200071068E7F09C0923051F48FE391E00E94D3
:10243000181C809171068460809371063EC09330B1
:1024400081F480E591E00E94181CE0910003F09176
:1024500001030480F581E02D80E009951092720659
:102460002CC0943091F481E691E00E94181CE09118
:102470000003F09101030480F581E02D81E00995CE
:102480008BE490E0ECDD62DF18C0953019F487E64C
:1024900091E004C0963029F48DE691E00E94181C6A
:1024A0000CC0907C51F085ED9DE00E94DE1BCE01BA
:1024B000019661E070E00E94661CDF91CF91089563
:1024C000DF93CF930F92CDB7DEB7FC018181898373
:1024D0008091B7020E94BB1B882351F08CED9DE0D8
:1024E0000E94DE1BCE01019661E070E00E94661C36
:1024F00089818F3F59F42ADFE0910003F0910103B5
:102500000484F585E02D8FE7099501C050DD0F901B
:10251000CF91DF9108958091B7020E94BB1B882361
:1025200021F086E791E00C94181C08958091B70281
:102530000E94BB1B882321F080E991E00C94181CB9
:102540000895EF92FF921F93DF93CF930F92CDB731
:10255000DEB77C01FC01818189831091B702812F54
:102560000E94BB1B882351F084E19EE00E94DE1B89
:10257000CE01019661E070E00E945B1C89818F3F73
:1025800011F48FE78983F70182818130F1F4812F83
:102590000E94BB1B882321F08DE09EE00E94F61B69
:1025A000F7018181C5DC9981E92FF0E0ED58F94F01
:1025B0008581882309F057C0E0910003F091010361
:1025C0000084F185E02D892F2EC0823071F5812F96
:1025D0000E94BB1B882321F082E09EE00E94F61B34
:1025E000DDDCE981F0E0ED58F94F8581882349F47D
:1025F000E0910003F09101030284F385E02D8FE761
:102600000995F701818194DCE981F0E0ED58F94FFB
:102610008581882341F5E0910003F0910103008456
:10262000F185E02D8FE709951EC0833069F4812F75
:102630000E94BB1B882321F08CEF9DE00E94F61BBB
:10264000F701818188DC0FC0812F0E94BB1B88238A
:1026500051F089EE9DE00E94F61BC701029661E0F1
:1026600070E00E94661C0F90CF91DF911F91FF9048
:10267000EF900895CF93DF93EC018091B7020E9411
:10268000BB1B882321F086E29EE00E94F61B5EDEE3
:1026900087E088838FEF9FEF9A8389838AE08B831B
:1026A00083E08C83DF91CF910895EF92FF920F9397
:1026B0001F93CF93DF93EC01998185E2989F70017E
:1026C000112482E093E0E80EF91E8091B7020E9487
:1026D000BB1B882309F465C08FE79EE00E94DE1BC8
:1026E000CE016EE070E00E94661C87E79EE00E94CB
:1026F000DE1BCE01019661E070E00E94661C8FE651
:102700009EE00E94DE1BCE01029661E070E00E9416
:10271000661C87E69EE00E94DE1BCE01099661E002
:1027200070E00E94661C8FE59EE00E94DE1BCE01D9
:10273000039662E070E00E94661C8B858823A1F0FE
:102740008AE59EE00E94DE1BCE010C9661E070E0FF
:102750000E94661C85E59EE00E94DE1BCE010D9660
:1027600061E070E00E94661C8D819E81892B51F092
:102770008BE49EE00E94DE1BCE01059662E070E0D5
:102780000E94661C8A85882351F081E49EE00E94A5
:10279000DE1BCE010A9661E070E00E94661C0E947A
:1027A000D91C8701065F1F4F8B819C81AFE78F3F4C
:1027B0009A0721F4F8011482138206C019DCD801AB
:1027C00014969C938E9313978B819C81F70192832F
:1027D0008183808182FF0EC0E0910003F0910103AC
:1027E000D80113966D917C9114970684F785E02D9E
:1027F00089810995E0910003F0910103048CF58D26
:10280000E02DCE01B7010995682FF701808182FD87
:1028100007C0C7010A96A9DCD7018C9184608C930C
:10282000DF91CF911F910F91FF90EF900895EF925C
:10283000FF920F931F93CF93DF937C01EB0186E010
:10284000888390DD982F8983882319F482E08A8316
:102850003BC081E08A8305E2909F800111240E5FD6
:102860001C4F8FEF9FE7D80112969C938E93119780
:1028700014969C938E9313978FEF15968C931597C0
:1028800016961C92169717968C93179718968C93FA
:10289000065F1F4FE0910003F0910103D7011196ED
:1028A0008C910680F781E02D81500995F801818394
:1028B0000A501040E0910003F09101030088F18973
:1028C000E02DC701B80109958FEF9FEF9C838B83A3
:1028D0008091B70250D7882391F085E99EE06ED7AA
:1028E000CE01019661E070E0E6D78BE89EE066D706
:1028F000CE01029661E070E0E9D70E94D91C86EA19
:1029000091E06881AE0125E030E0EFD785E090E00E
:10291000A6DBDF91CF911F910F91FF90EF9008956B
:10292000CF93DF93EC019B015E9A8EEA9EE06AEE04
:1029300071E0AE01FDD799818881873009F470C0BC
:102940008830A8F48330D1F1843030F4813029F11B
:10295000823009F079C024C0853009F447C0E09185
:102960000003F0910103863008F04EC035C08B3073
:1029700009F45FC08C3038F4883009F454C08A30D0
:1029800009F062C053C08D3009F459C08D3008F48D
:1029900053C08E3009F058C055C0CE0186DE54C0F9
:1029A000E0910003F091010365E2969FB0011124CC
:1029B0006E5F7C4F0288F389E02D2FC0E091000309
:1029C000F091010365E2969FB00111246E5F7C4F88
:1029D0000488F589E02D21C065E2969FB00111249D
:1029E0006E5F7C4F0688F789E02D17C0E0910003E9
:1029F000F091010365E2969FB00111246E5F7C4F58
:102A0000008CF18DE02D09C065E2969FB001112484
:102A10006E5F7C4F028CF38DE02DCE01099514C0C2
:102A2000CE0184DD11C0CE0176DD0EC0CE0189DD80
:102A30000BC0CE0145DD08C0CE01D8DC05C0CE01FB
:102A4000D3DB02C0CE01CEDC5E98DF91CF9108953A
:102A50008C3010F080E00895E82FF0E0EC58FD4F46
:102A600080810895FC0185E0808386E092E00895EE
:102A7000FB01DB011A963FE751963C93519721E009
:102A800055962C9355971E961C921E9750961C9205
:102A90001E921F9754961C92549753961C921E9206
:102AA000529723E2228712963C93129716961C9215
:102AB0001E92159719963C93199724E61A962C9313
:102AC0001A971B961C921B9720E11C962C931C971F
:102AD0002EE41D962C931D97FC018181813029F4F1
:102AE0005A961C921E925997089581E091E05A9649
:102AF0009C938E9359970895EF92FF920F931F9393
:102B0000DF93CF9300D00F92CDB7DEB78A0195EB5C
:102B100099836A838B837E010894E11CF11CC701B1
:102B200063E070E0FBDA85EA8983802F8F778A8300
:102B300000701F771B83C70163E070E0EFDA0F902E
:102B40000F900F90CF91DF911F910F91FF90EF9019
:102B50000895BF92CF92DF92EF92FF920F931F934F
:102B6000CF93DF938C01EB01FC01D1806AE0E62E6C
:102B7000F12CEC0EFD1E8281883030F4833058F445
:102B8000813008F4AFC00AC08B3008F4A5C08B3088
:102B900009F0A8C0A4C0CC24C39401C0CC24F8017F
:102BA000848590E0880F991F9C0120783170220F56
:102BB000331F8F779070280F391FF70130872783D5
:102BC000F801838194818F5F9F4729F08B819C81DD
:102BD0008F5F9F4721F4F701138A128A15C029815C
:102BE0003A818B819C818217930748F489819A816D
:102BF0002B813C81821B930BFBD9F70103C0F701AA
:102C000083819481938B828B8D81F8019185BB2484
:102C10008917A9F1BB24B3949D838F81618503DA61
:102C2000F70186878885F8016185FDD9F701848BD6
:102C3000CC20F9F089856D81F6D9182F8E81810F0E
:102C4000E8D9F701908F878B8E81811BE2D9F7013C
:102C5000928F818F888182FF12C04789508D8D2D80
:102C600064E74ADFF701418D528D8D2D68E744DF1F
:102C700006C08985F8016185D6D9F701818B8881E5
:102C800082FF23C0F701478150858D2D68E434DF32
:102C9000F701428953898D2D60E62EDFBB2011F1AB
:102CA000F70144898D2D6CE650E026DFF70146855B
:102CB0008D2D64E650E020DFCC20A1F4F70141899E
:102CC0008D2D64E750E018DF0DC0C7016BE14DDAD0
:102CD00088818460888306C068818FE004C0688131
:102CE0008BE001C08BE190E0DF91CF911F910F91BC
:102CF000FF90EF90DF90CF90BF900895CF92DF923A
:102D0000EF92FF920F931F93DF93CF930F92CDB764
:102D1000DEB77C016B018091B7022DD5882319F1B4
:102D2000F701818189838EEC9EE048D5C70164E07C
:102D300070E0CCD588EC9EE041D5CE01019661E0F3
:102D400070E0C4D58FEB9EE039D5C701029661E0F3
:102D500070E0BCD586EB9EE031D5C701039661E0FB
:102D600070E0B4D526D68601065F1F4FF701828139
:102D7000282F332727FD309587FF03C020953095F6
:102D80003160F801308F278BF701838142D9F80138
:102D9000928F818FF601808182FF0EC0F8014789F2
:102DA000508DF701808168E7A7DEF801418D528DD3
:102DB000F701808164E7A0DE0F90CF91DF911F9132
:102DC0000F91FF90EF90DF90CF900895CF92DF9218
:102DD000EF92FF920F931F93DF93CF930F92CDB794
:102DE000DEB77C016B01FC01818189838091B70290
:102DF000C2D48823C1F081EF9EE0E0D4C70164E033
:102E000070E064D58BEE9EE0D9D4CE01019661E0EE
:102E100070E05CD58EED9EE0D1D4C701029662E0F1
:102E200070E054D5C6D58601065F1F4FF701828139
:102E3000F6018187F7018281938197FD08C0F60131
:102E40006581F1D8F801818B8FE790E008C0F60129
:102E500065818095E8D8F801818B81E091E0908FC1
:102E6000878BF801128E118EF601808182FF0CC0D3
:102E7000F8014189898164E750E03EDEF801478925
:102E8000508D89816CE738DE0F90CF91DF911F91D3
:102E90000F91FF90EF90DF90CF900895BF92CF9267
:102EA000DF92EF92FF920F931F93DF93CF930F92D6
:102EB000CDB7DEB77C016B01FC01818189838091F4
:102EC000B70259D4882381F18FE39FE077D4C701FB
:102ED00067E070E0FBD489E39FE070D4CE010196F7
:102EE00061E070E0F3D48CE29FE068D4C701029601
:102EF00061E070E0EBD48FE19FE060D4C7010396FE
:102F000061E070E0E3D482E19FE058D4C701049609
:102F100061E070E0DBD485E09FE050D4C701059606
:102F200062E070E0D3D445D58601065F1F4FF701FC
:102F30008281F60181878FE790E0F801908F878B7F
:102F400081E091E0928F818FF70165817681F3E0D6
:102F5000683E7F0710F081E004C06A30710520F4FC
:102F60008FE6F801858B07C088EE93E00E94DC2194
:102F70006F77F801658BF8018181823019F08181CA
:102F80008330A1F5F70184818052813C10F483E005
:102F900001C082E0F8018183F6016581F701828139
:102FA00042D8B82EF701838187FD8F5F85958B0D01
:102FB00030D8F801908F878BF701838187FD8F5F71
:102FC00085958B1926D8F801928F818FF601808123
:102FD00082FF0CC0F8014789508D898164E78CDD40
:102FE000F801418D528D898168E786DDF601808187
:102FF00082FF06C0F8014589898160E750E07CDDE9
:103000000F90CF91DF911F910F91FF90EF90DF9084
:10301000CF90BF900895CF92DF92EF92FF920F93DF
:103020001F93DF93CF930F92CDB7DEB78C016B0167
:10303000FC0181818983FAE0EF2EF12CE60EF71E68
:103040008091B70298D3882341F184E79FE0B6D3FB
:10305000C80165E070E03AD48BE69FE0AFD3CE01C3
:10306000019661E070E032D481E69FE0A7D3C80109
:10307000029661E070E02AD487E59FE09FD3C80103
:10308000039661E070E022D48DE49FE097D3C801FD
:10309000049661E070E01AD48CD4F70181818D3000
:1030A00008F47FC0803120F0803109F07AC04EC032
:1030B000EAE0EE2EF12CEC0CFD1CF8018281882355
:1030C00071F484810E940910F70190878783F801C9
:1030D00083810E940910F7019487838717C0F80144
:1030E00084810E940910F70192878187F80183810A
:1030F000803831F48FE790E0F7019687858706C026
:1031000081950E940910F70196878587F6018081D5
:1031100082FF47C0F8018281882361F4F70147816B
:103120005085898168E4E8DCF7014385548589810D
:1031300060E536C0F7014185528589816CE4DCDCAD
:10314000F70145855685898164E52AC07AE0E72E36
:10315000F12CEC0CFD1CF8018281882339F4848168
:103160000E940910F7019087878307C0F8018481C6
:103170000E940910F70192878187F601808182FF02
:1031800010C0F8018281882331F4F701478150850E
:10319000898168E405C0F7014185528589816CE425
:1031A000ABDC0F90CF91DF911F910F91FF90EF90CB
:1031B000DF90CF900895CF92DF92EF92FF920F931E
:1031C0001F93DF93CF930F92CDB7DEB78C016B01C6
:1031D000FC01818189838091B702CDD2882381F15E
:1031E0008DEB9FE0EBD2C80168E070E06FD383EB1A
:1031F0009FE0E4D2CE01019661E070E067D389EAF6
:103200009FE0DCD2C801029661E070E05FD38FE9F5
:103210009FE0D4D2C801039661E070E057D381E902
:103220009FE0CCD2C801049662E070E04FD383E8FF
:103230009FE0C4D2C801069662E070E047D3B9D3DC
:10324000AAE0EA2EF12CEC0CFD1CF8018281F601BB
:103250008783F8018381F6018087F8018681978151
:10326000F601948383836581F80182810E941310A3
:10327000F7018687F6016581F80183810E941310AA
:10328000F701848BF801848195810E94F80FF70182
:10329000908B8787F801868197818F5F9F4721F404
:1032A000F701138A128A0CC0F60181819281238171
:1032B0003481821B930B0E94F80FF701938B828B52
:1032C000F601808182FF18C0F70142895389898104
:1032D00060E612DCF7014785508989816CE50CDCDA
:1032E000F701448989816CE650E006DCF7014685E8
:1032F000898164E650E000DC0F90CF91DF911F914F
:103300000F91FF90EF90DF90CF900895AB0160E4B4
:10331000F3CBDF93CF9300D00F92CDB7DEB795EB11
:1033200099836A838B83CE01019663E070E00E94EB
:103330008E100F900F900F90CF91DF91089560E164
:10334000E8CF60E3E6CF60E2E4CF1F93182F83E17C
:1033500092E062E070E00E948E10112351F486E446
:1033600090E00E942F108BE092E068E070E00E94F5
:103370008E101F9108951F93182F06C00E942710CA
:103380008AE00E941E1011501123C1F71F91089569
:1033900084E690E00E942F100E94271087E090E0C2
:1033A0000E942F1084E0E7DF83E290E00E942F105C
:1033B00083E0E1DF8EE090E00E942F1082E0DBDF0F
:1033C0008EE490E00E942F1082E0D5DF84E090E050
:1033D0000E942F1083E0CFDF8BE390E00E942F103C
:1033E00082E0C9DF82E792E062E070E00E948E1026
:1033F00084E190E00E942F1089E692E069E070E09D
:103400000E948E1089E390E00E942F1086E392E0E4
:1034100063E370E00E948E1085E192E061E270E06B
:103420000E948E1080E091DF86E490E00C942F10D3
:103430008C3010F080E00895E82FF0E0E855FD4F63
:1034400080810895FC0184E0808380E892E0089503
:1034500008950895089508950895FC0182818830A3
:1034600028F4823030F4813031F407C08C3018F405
:1034700006C083E105C080E003C08FE001C087E0A3
:1034800090E00895CF93DF93EC01FB01DB011A96E6
:1034900080E282879FE712969C93129715961C9262
:1034A00015978981823008F441C0883018F08C303B
:1034B000E8F539C080E415968C93159716969C9381
:1034C000169719969C9319971B961C921E921A9701
:1034D0001C969C931C971F969C931F978EE3529665
:1034E0008C9352978981823059F418961C921E92BF
:1034F00017978EE69EE11E969C938E931D970EC0A5
:1035000080E090E418969C938E93179785E692E15D
:103510001E969C938E931D9784E793E051969C93FF
:103520008E93509703C08EE716968C93DF91CF91C0
:103530000895DF93CF9300D000D000D0CDB7DEB791
:1035400091EF998390E49B838C836D837E83619557
:10355000681B6157671B6F776A83CE01019666E02F
:1035600070E00E948E1026960FB6F894DEBF0FBE54
:10357000CDBFCF91DF910895DF93CF9300D00F920D
:10358000CDB7DEB792EF99838B836295607F982FDA
:1035900092959F702DE09227262F22952F709227CB
:1035A0008F709827962B9A83CE01019663E070E086
:1035B0000E948E100F900F900F90CF91DF91089581
:1035C00061E0DACF63E0D8CF62E0D6CF1F93182F47
:1035D0008CE892E062E070E00E948E10112331F4DA
:1035E00084E892E068E070E00E948E101F910895D8
:1035F00084E690E00E942F1086EA92E062E070E09C
:103600000E948E108EE892E068E170E00E948E10B9
:1036100080E0DCDF84E690E00C942F1023B521607D
:1036200023BD909385008093840081E086BBB09B8E
:10363000FECF0895FC0123818281282784812827D9
:1036400085812827603121F481819081892728276D
:10365000822F82958F708227982F9695969598271E
:10366000292F269529276B3011F481812827822F55
:10367000817008955E9A81EC9FEFD0DF5E9883E8B9
:103680009FEFCCCF1F9380919306843011F010E10F
:1036900001C01BE080E0612F0E940809E8988823A0
:1036A00061F480910C068F5F80930C068B30F8F0EC
:1036B000F89480E28093D800FFCF10920C068EE53C
:1036C00096E0612FB7DF882391F0809193068430D4
:1036D00051F4ACE8B6E0EEE5F6E086E001900D923C
:1036E0008150E1F704C08EE596E00E944E081F91DC
:1036F00008951DB880E48EB910BA83EF81BB93E0C2
:1037000095BD85E080938100909369008BEC93EFE9
:1037100085DFB0DF8BEC93EF81DF80E06EE70E9406
:103720000809A8DF8091650680916506813159F40A
:103730008EE596E060E17EDF882329F083E08093C8
:10374000930680E00EC0809165068C3091F48EE582
:1037500096E06BE06FDF882361F084E0809393064E
:1037600081E00E948D0FE898F8948FE080930B061B
:103770000895E898CECF9091B80220E0982398174A
:1037800009F421E0822F0895282F8091B80281FF4B
:1037900014C080910D0690910E068050924068F4FE
:1037A00080910D0690910E06FC01EC56F94F208396
:1037B000019690930E0680930D0608951F93CF9364
:1037C000DF93EC018091B802882361F0FE0121961D
:1037D0001491112339F01A3011F48DE0D5DF812FC7
:1037E000D3DFF4CFDF91CF911F9108959C01809199
:1037F000B802882331F0C901E1DF8DE0C5DF8AE03E
:10380000C3CF08951F93CF93DF93EC018091B8024B
:10381000882351F01991112339F01A3011F48DE0F9
:10382000B3DF812FB1DFF6CFDF91CF911F910895E4
:103830009C018091B802882331F0C901E3DF8DE05B
:10384000A3DF8AE0A1CF0895CF92DF92EF92FF929B
:103850000F931F93CF93DF939C016B018091B8026C
:10386000882301F1E090CA02F090CB028901C0E008
:10387000D0E015C080E288DFF801808182958F70EA
:10388000F701E80FF11D80817FDFF80181918F0141
:103890008F70F701E80FF11D808176DF2196CC153E
:1038A000DD0540F3DF91CF911F910F91FF90EF90D5
:1038B000DF90CF9008959C018091B802882329F071
:1038C000662319F0C90170E0BFCF08959C01809173
:1038D000B802882349F0662319F0C90170E0B4DF0B
:1038E0008DE052DF8AE050CF0895EF92FF920F9360
:1038F0001F93DF93CF930F92CDB7DEB7FC0169839F
:103900008A0179018091B802882351F0CF017ADFD2
:10391000CE01019661E070E0CEDFC801B701D6DFCD
:103920000F90CF91DF911F910F91FF90EF9008952D
:10393000CF92DF92EF92FF920F931F93CF93DF937B
:10394000FC016B01F42EE52E89018091B8028823D9
:1039500039F1CF0133DF8F2D9E2DEC017E01E00E7A
:10396000F11E17C0E881F0E03197EE0FFF1FEC0D5C
:10397000FD1D1081CE0161E070E09DDF123038F056
:10398000612F70E061507040CE01019694DFC10F4D
:10399000D11DCE15DF0530F38DE0F6DE8AE0F4DED2
:1039A000DF91CF911F910F91FF90EF90DF90CF901B
:1039B000089560910D0670910E0661157105B9F0BC
:1039C00010920E0610920D0683E08093E90084E9C0
:1039D00096E040E050E01CD38091E8008E77809321
:1039E000E8005CD08091E8008E778093E80008952D
:1039F000382F282F2CC02093E900231721F4762F8D
:103A0000942F50E006C07091EC009091ED00509121
:103A1000F00091FF1BC08091EB008E7F8093EB0044
:103A20008091ED008D7F8093ED008091EB008160AF
:103A30008093EB007093EC009093ED005093F000B6
:103A40008091EE0087FD02C080E008952F5F27304F
:103A500090F23093E90081E00895809199088823DD
:103A60009CF404C0809198088823B9F08091E80004
:103A700082FFF8CF8091E8008B778093E80008956B
:103A800080919808882349F08091E80080FFF8CF62
:103A90008091E8008E778093E80008954091E400DB
:103AA0005091E50024E68091EC0080FF24C08091D5
:103AB000E80080FD1EC080919808882311F482E000
:103AC0000895853011F483E008958091EB0085FF1F
:103AD00002C081E008958091E4009091E500841790
:103AE000950709F3222311F484E008952150AC01D5
:103AF000DACF80E008958091E80082FFDCCFF9CF33
:103B0000EF92FF920F931F934AD051D008ED10E02F
:103B1000F80180818F7780838081806880838081B5
:103B20008F7D808319BC109298081092940810928F
:103B300096081092950880EEE82EF12CF70180810E
:103B40008B7F8083F80180818160808380E060E0EA
:103B500042E04EDFE1EEF0E080818E7F8083E2EE96
:103B6000F0E0808181608083808188608083F701BC
:103B700080818E7F8083F8018081806180831F91A6
:103B80000F91FF90EF900895E7EDF0E08081816064
:103B9000808384E082BF81E080939708B1CFE8ED15
:103BA000F0E080818E7F80831092E2000895109271
:103BB000DA001092E10008951F920F920FB60F9253
:103BC00011242F933F934F935F936F937F938F9322
:103BD0009F93AF93BF93EF93FF938091E10082FF98
:103BE0000AC08091E20082FF06C08091E1008B7FD5
:103BF0008093E100CDD38091DA0080FF1FC08091D7
:103C0000D80080FF1BC08091DA008E7F8093DA009D
:103C10008091D90080FF0DC080E189BD82E189BD1E
:103C200009B400FEFDCF81E0809398080E94370B15
:103C300005C019BC109298080E94390B8091E100D0
:103C400080FF18C08091E20080FF14C08091E200E4
:103C50008E7F8093E2008091E20080618093E20099
:103C60008091D80080628093D80019BC85E0809351
:103C700098088ED38091E10084FF2DC08091E200EE
:103C800084FF29C080E189BD82E189BD09B400FEBD
:103C9000FDCF8091D8008F7D8093D8008091E10086
:103CA0008F7E8093E1008091E2008F7E8093E2001E
:103CB0008091E20081608093E200809194088823E3
:103CC00031F48091E30087FD02C081E001C084E00F
:103CD000809398085DD38091E10083FF22C080919A
:103CE000E20083FF1EC08091E100877F8093E100A6
:103CF00082E080939808109294088091E1008E7F72
:103D00008093E1008091E2008E7F8093E2008091B9
:103D1000E20080618093E20080E060E042E068DEE3
:103D200037D3FF91EF91BF91AF919F918F917F9189
:103D30006F915F914F913F912F910F900FBE0F9018
:103D40001F9018959C0140919F085091A00846171C
:103D5000570718F4F90190E045C06115710511F09D
:103D6000AB01F8CF8091E8008E778093E80040E0C7
:103D700050E0F0CF80919808882309F445C0853041
:103D800009F444C08091E80083FF02C081E00895F7
:103D90008091E80082FD32C08091E80080FF22C05F
:103DA0008091F3009091F200782F60E0292F30E0AD
:103DB000262B372B07C081918093F1004150504052
:103DC0002F5F3F4F4115510519F02830310598F309
:103DD00090E02830310509F491E08091E8008E7779
:103DE0008093E8004115510529F6992319F606C07C
:103DF00080919808882341F0853041F08091E80057
:103E000082FFF6CF80E0089582E0089583E0089570
:103E10009C016115710529F48091E8008B778093EE
:103E2000E800F90127C080919808882399F185302E
:103E300099F18091E80083FF02C081E008958091AC
:103E4000E80082FFF0CF06C08091F10081936150BD
:103E5000704059F02091F3008091F200322F20E061
:103E600090E0822B932B892B79F78091E8008B7758
:103E70008093E80061157105B1F606C0809198083D
:103E8000882341F0853041F08091E80080FFF6CF33
:103E900080E0089582E0089583E008959C014091B8
:103EA0009F085091A0084617570718F4F90190E0B1
:103EB00046C06115710511F0AB01F8CF8091E800A3
:103EC0008E778093E80040E050E0F0CF8091980832
:103ED000882309F447C0853009F446C08091E80082
:103EE00083FF02C081E008958091E80082FD34C024
:103EF0008091E80080FF23C08091F3009091F20050
:103F0000782F60E0292F30E0262B372B08C08491D2
:103F10008093F1003196415050402F5F3F4F411543
:103F2000510519F02830310590F390E02830310523
:103F300009F491E08091E8008E778093E8004115C4
:103F4000510521F6992309F0C1CF06C08091980848
:103F5000882341F0853041F08091E80082FFF6CF60
:103F600080E0089582E0089583E00895BF92CF92A3
:103F7000DF92EF92FF920F931F93CF93DF93182F4F
:103F8000092F7B016A018ADDB82E8823B1F5812FC4
:103F9000902F9C01E901C114D10439F0F601808110
:103FA0009181E81AF90AC80FD91F00E010E022C079
:103FB0008091E80085FD16C08091E8008B778093A2
:103FC000E800E7D1C114D10449F0F6018081918164
:103FD000800F911F9183808385E010C05FDD88236F
:103FE00049F00CC08091F10089930894E108F10830
:103FF0000F5F1F4FE114F104D9F68B2DDF91CF91A4
:104000001F910F91FF90EF90DF90CF90BF90089598
:10401000BF92CF92DF92EF92FF920F931F93CF93B5
:10402000DF93182F092F7B016A0138DDB82E882312
:10403000B1F5812F902F9C01E901C114D10439F011
:10404000F60180819181E81AF90AC80FD91F00E0B2
:1040500010E022C08091E80085FD16C08091E80044
:104060008E778093E80095D1C114D10449F0F60110
:1040700080819181800F911F9183808385E010C0A2
:104080000DDD882349F00CC089918093F1000894DC
:10409000E108F1080F5F1F4FE114F104D9F68B2DF1
:1040A000DF91CF911F910F91FF90EF90DF90CF9014
:1040B000BF9008950F931F93DF93CF93CDB7DEB7D3
:1040C000AC970FB6F894DEBF0FBECDBFE9E9F8E0BC
:1040D0008091F100819328E0E13AF207C9F70E944C
:1040E000F00D8091E80083FF3AC1809199083091EA
:1040F0009A08353009F487C0363040F43130C9F1C0
:10410000313070F0333009F02AC133C0383009F44F
:10411000F7C0393009F406C1363009F020C197C024
:10412000803821F0823809F01AC108C090919508B2
:1041300080919608882399F0926011C080919D0823
:104140008F708093E9008091EB0090E025E09695D8
:1041500087952A95E1F7982F91701092E900809148
:10416000E800877F8093E8009093F1001092F100BF
:10417000D2C0882319F0823009F0F1C090E08F712D
:104180009070009721F0029709F0E9C00CC080916F
:104190009B08813009F0E3C010929608333069F52E
:1041A000809396082AC080919B08882331F520913E
:1041B0009D082F7009F4D3C02093E9008091EB0093
:1041C00080FF1BC0333021F48091EB00806213C06C
:1041D0008091EB0080618093EB0081E090E002C071
:1041E000880F991F2A95E2F78093EA001092EA005F
:1041F0008091EB0088608093EB001092E900809141
:10420000E800877F8BC0882309F0A9C010919B0824
:104210001F770FB7F8948091E800877F8093E800BC
:104220001CDC8091E80080FFFCCF8091E300807867
:10423000812B8093E30080688093E300112311F4C5
:1042400082E001C083E0809398080FBF88C0805847
:10425000823008F084C080919B0890919C0823E0F4
:104260008C3D920709F033C083E08C838AE28B8314
:104270007FB7F894DE0115966EE040E050E011E261
:10428000E62FF0E010935700849140FF03C0829521
:104290008F706F5F8F70282F30E08A3018F0C9015F
:1042A000C79602C0C901C0968D939D934F5F5F4F23
:1042B0004431510529F77FBF8091E800877F8093C3
:1042C000E800CE0103966AE270E03CDD13C0609125
:1042D0009D08AE014F5F5F4F0E94940ABC0100979A
:1042E00009F43DC08091E800877F8093E8008981D0
:1042F0009A81D4DD8091E8008B778093E8002FC00D
:10430000803869F58091E800877F8093E80080918C
:1043100094088093F1008091E8008E778093E80004
:104320009CDB1DC08823D9F490919B089230B8F48F
:104330008091E800877F8093E800909394088DDB5C
:1043400080919408882331F48091E30087FD02C0B6
:1043500081E001C084E0809398080E94030F80915F
:10436000E80083FF0AC08091EB0080628093EB003D
:104370008091E800877F8093E800AC960FB6F894B0
:10438000DEBF0FBECDBFCF91DF911F910F9108957A
:1043900008951F9380919808882361F01091E90097
:1043A0001092E9008091E80083FF01C083DE1F7056
:1043B0001093E9001F910895AA1BBB1B51E107C090
:1043C000AA1FBB1FA617B70710F0A61BB70B881FA5
:1043D000991F5A95A9F780959095BC01CD01089534
:1043E00097FB092E07260AD077FD04D0E5DF06D01B
:1043F00000201AF4709561957F4F0895F6F7909517
:0A44000081959F4F0895F894FFCFB7
:10440A00FF4765745265706F727400536574526524
:10441A00706F727400000000000000085365742079
:10442A00437573746F6D20466F72636500446973D8
:10443A0061626C65204163747561746F72730045C3
:10444A006E61626C65204163747561746F7273008A
:10445A0053746F7020416C6C204566666563747393
:10446A0000526573657400506175736500436F6E21
:10447A0074696E75650053657420446F776E6C6F4E
:10448A00616420466F7263652053616D706C6500CC
:10449A0053657420437573746F6D20466F7263653C
:1044AA00204461746100557362203C3D00C8193292
:1044BA0015A5192815A319A1199F1986193815DBED
:1044CA00180B184E17E6167E16A915F81A221AE6C0
:1044DA001A181AE41AE21AE01A991A421A281A2918
:1044EA001A2A1A2B1A2C1A2D1A020E000800050075
:1044FA000700040004000F0003000000040002008B
:10450A00020002000500F000010A01B57C7FA57FC8
:10451A0000C506C501A51465B5647FA57E6BB5689F
:10452A007FA53600B56C7FA52800B5707FA5664CBF
:10453A00B5747FA57E01B5407FA57257B5447FA5A6
:10454A003C43B5487FA57E00B54C7FA50400B55015
:10455A007FA50200B5547FA50200B5587FA5007E4D
:10456A00B55C7FA53C00B5607FF000010A0110052B
:10457A006BF7C50112060502080A0B0D0E0F100192
:10458A0000010A15F11040007F00F36AF31DF10ED5
:10459A004301007DF17E04013E4EF11C45013E2F90
:1045AA00F10B46017D00F31D06050302040505080B
:1045BA00090A0B0000010204023031323334353665
:0C45CA0037383941424344454600B902ED
:00000001FF
