:1000000012C500002DC500002AC5000028C500004B
:1000100026C5000024C5000022C5000020C5000040
:100020001EC500001CC500000C94EA1818C500008D
:1000300016C5000014C5000012C5000010C5000060
:100040000EC500000CC500000AC5000008C5000070
:1000500006C5000004C5000002C5000000C5000080
:10006000FEC40000FCC40000FAC40000F8C4000094
:10007000F6C4000044C60000F2C40000F0C4000052
:10008000EEC40000ECC40000EAC40000E8C40000B4
:10009000E6C40000E4C40000E2C40000E0C40000C4
:1000A000DEC40000DCC40000DAC40000050109045D
:1000B000A10185010901A1000930093109321600A9
:1000C000FE26FF01350046FF0395037510810209E6
:1000D000351500253F3500452E95017506810275C1
:1000E0000295018101650009330934150025FF459A
:1000F000FF7508750895028102C009361580257FB5
:1001000045FF750895018102050209BB15C0253F11
:10011000457F750895018102050919012908150017
:1001200025014501750195088102190929107501FC
:100130009508810205010939950175041500250707
:10014000463B0165148142750495018101550065A6
:1001500000050F0992A1028502099F09A009A409BF
:10016000A509A615002501350045017501950581F4
:100170000295038103099415002501350045017599
:1001800001950181020922150125283501452875AF
:100190000795018102C00921A102850109221501EB
:1001A0002528350145287508950191020925A102E8
:1001B0000926092709300931093209330934094070
:1001C0000941094209430928250C15013501450C4F
:1001D000750895019100C009500954095115002670
:1001E000FF7F350046FF7F66031055FD75109503B0
:1001F000910255006600000952150026FF003500E7
:1002000046102775089501910209531501250835F7
:100210000145087508950191020955A102050109DA
:1002200030093115002501750195029102C0050FB5
:10023000095695019102950591030957A1020B01F9
:10024000000A000B02000A0066140055FE15002685
:10025000B400350047A08C000066000075089502C8
:1002600091025500660000C0050F66031055FD158C
:100270000026FF7F350046FF7F7510950166000060
:100280005500C0050F095AA1028502092215012552
:100290002835014528750895019102095B095D150E
:1002A0000026FF00350046102795029102095C09DF
:1002B0005E66031055FD26FF7F46FF7F7510910295
:1002C00045006600005500C0095FA10285030922B0
:1002D0001501252835014528750895019102092346
:1002E0001500250135004501750495019102095855
:1002F000A1020B01000A000B02000A007502950220
:100300009102C01580257F36F0D846102709607508
:10031000089501910236F0D84610270961950191A0
:1003200002150026FF003500461027096309647591
:100330000895024610279501C0096EA1028504099F
:1003400022150125283501452875089501910209D6
:1003500070150026FF00350046102775089501919D
:1003600002096F1580257F36F0D846102795019138
:1003700002097166140055FE150026FF003500477E
:10038000A08C00009102097226FF7F46FF7F660362
:100390001055FD7510950191026600005500C009C9
:1003A00073A1028505092215012528350145287507
:1003B000089501910209701601FF26FF0036F0D85A
:1003C000461027751095019102C00974A102850697
:1003D0000922150125283501452875089501910246
:1003E000097509761580257F36F0D84610277508DF
:1003F00095029102C00968A102850709221501250D
:100400002835014528750895019102096C150026CB
:1004100010273500461027751095019102096915BE
:1004200081257F350046FF007508950C920201C0BA
:100430000966A10285080501093009311581257F6A
:10044000350046FF00750895029102C0050F097737
:10045000A102850A092215012528350145287508BC
:10046000950191020978A1020979097A097B1501A0
:100470002503750895019100C0097C150026FF0031
:10048000350046FF009102C00990A102850B0922A8
:100490002528150135014528750895019102C009E7
:1004A00096A102850C099709980999099A099B094F
:1004B0009C15012506750895019100C0097DA102D2
:1004C000850D097E150026FF0035004610277508AA
:1004D00095019102C0096BA102850E092215012523
:1004E0002835014528750895019102096D150026EA
:1004F000FF00350046FF007508950191020951661D
:10050000031055FD150026FF7F350046FF7F75104F
:10051000950191025500660000C009ABA102850556
:100520000925A102092609270930093109320933B1
:10053000093409400941094209430928250C1501DC
:100540003501450C75089501B100C00501093B1541
:100550000026FF01350046FF01750A9501B10275BD
:1005600006B101C0050F0989A102850609222528C7
:1005700015013501452875089501B102098BA102C5
:10058000098C098D098E2503150135014503750870
:100590009501B100C009AC150027FFFF0000350030
:1005A00047FFFF000075109501B100C0097FA1024F
:1005B00085070980751095011500350027FFFF009C
:1005C0000047FFFF0000B102098326FF0046FF003D
:1005D00075089501B10209A909AA750195021500CE
:1005E000250135004501B10275069501B103C0C072
:1005F00012011001EF020108EB034E20010001027D
:10060000000109026600030100C032090400000273
:100610000300000009211101000122440507050221
:100620000340000107058103400001080B0102029D
:10063000020100090401000102020100052400106A
:1006400001042402060524060102070585030800AB
:10065000FF09040200020A0000000705040210005E
:100660000107058302100001040309041803440074
:10067000650061006E002000430061006D006500B0
:1006800072006100000026034C0055004600410046
:1006900020004A006F007900730074006900630055
:1006A0006B002000770046004600420000004765CE
:1006B00074446573632F496E746572666163653A4D
:1006C00000476574446573632F5265706F72743AA6
:1006D00000476574446573632F4849443A00476591
:1006E00074446573632F537472696E673A0047658B
:1006F00074446573632F436F6E663A0047657444B4
:100700006573632F4465766963653A002053696EAB
:1007100065732064697361626C65640A00205472B9
:1007200069616E676C65732064697361626C65648E
:100730000A0020436F6E7374616E74732064697372
:1007400061626C65640A0020537072696E67732081
:1007500064697361626C65640A004566666563740A
:10076000733A0A0020203D20536574436F6E747203
:100770006F6C4C696E6553746174650020203D2078
:100780005365744C696E65456E636F64696E67008E
:1007900020203D204765744C696E65456E636F642B
:1007A000696E67004374726C5265712876616C2CB7
:1007B0006964782C726571293A0053746F70206DEA
:1007C000616E75616C3A000A20206761696E3D00B8
:1007D0000A20206661646554696D653D00202064CF
:1007E00075726174696F6E3D002028456E61626CA0
:1007F0006564290A00202844697361626C65642974
:100800000A002046726565002053656E7400205012
:100810006C6179696E670A0020416C6C6F6361746A
:10082000656400203D3E204D6964693A0044657668
:10083000696365204761696E3A20004F746865728C
:10084000200044657669636520436F6E74726F6C37
:100850003A2000426C6F636B20467265653A200057
:100860002053746F7000205374617274536F6C6FF7
:100870000020537461727400456666656374204F8E
:100880007065726174696F6E3A002020656E642035
:10089000203D00202073746172743D002020696443
:1008A0003D005365742052616D7020466F72636520
:1008B0003A0020206D61676E69747564653D0020A3
:1008C0002069643D0053657420436F6E7374616EDC
:1008D0007420466F7263653A002020706572696FFC
:1008E000642020203D002020706861736520202056
:1008F000203D0020206F66667365742020203D0037
:1009000020206D61676E69747564653D0020206903
:10091000643D0053657420506572696F6469633A81
:10092000002020636F6566662B3D0020206F6666A1
:100930007365743D002020626C6F636B203D002066
:100940002069642020203D0053657420436F6E644D
:100950006974696F6E3A0020206661646554696D40
:100960006520203D00202061747461636B54696DC3
:10097000653D0020206661646520203D00202061E7
:10098000747461636B3D0020206964202020203D49
:100990000053657420456E76656C6F70653A002073
:1009A00020627574746F6E3D002020726570656101
:1009B000743D002020593D002020583D0020206437
:1009C0007572613D0020206761696E3D00202074D2
:1009D0007970653D002020696420203D00536574D6
:1009E000204566666563743A004765745265706FAA
:1009F00072742050494420506F6F6C2046656174BA
:100A00007572653A0A20203D3E205573623A0043D4
:100A10007265617465204E6577204566666563740E
:100A20003A0A2020000011241FBECFEFDAE0DEBF1B
:100A3000CDBF13E0A0E0B1E0E8EBFCE302C005901D
:100A40000D92A230B107D9F718E0A2E0B3E001C0DF
:100A50001D92A73AB107E1F77BD60C945A1ED0CA73
:100A60005F935FB75F9357EE56BD4F93AF93BF93BE
:100A7000B6E0A0916A0650916B06452F53955093AE
:100A80006B0653B15295507E477069F04530B9F00E
:100A9000423069F04330F1F04630E9F04130E1F0A6
:100AA0004430D9F01BC0529556955E931AC0550F2D
:100AB0004C91542B5C935527551F5E9312C057FBE6
:100AC000550F550F4C91542B5C935527551F51F9D9
:100AD0005E9307C056955695569556954C91542B56
:100AE0005C93A0936A06BF91AF914F915F915FBFF6
:100AF0005F911895DC0154E0A50F5C91509550FB77
:100B00005095A1503C91369557955093920642E0EE
:100B1000340F33705C91A1504C91469557955C7F92
:100B2000532B5093930638E0430F4F70A2505C91C3
:100B3000550F550F5051507F542B509394063C91B4
:100B400042E0340F3370A3954C91407F342B3295A3
:100B5000330F330F54E0A50F5C91509556953795A0
:100B6000569537953093950656F9A3504C9145FB11
:100B700057F950939606A1505C9138E0530F5F707F
:100B8000440F551F440F551F509397060895DC01DD
:100B900045E0A40F5C91A395A3953C913873330F66
:100BA0003295550F369557954EEF340F337050935D
:100BB00092064C914770A3505C91550F46955795FE
:100BC0002EEF420F4370550F441F550F441F532BF8
:100BD00050939306342FA2505C91A3954C91487189
:100BE000550F440F429546955795409540FB5295B9
:100BF000452F407F432B409394065F7054F9352F67
:100C0000A3505C91507747E0A40F4C9146FB57F9F5
:100C1000505157FB550F532B50939506332730F9FE
:100C2000AA955C91A3504C9146FB57F950954427E7
:100C3000550F441F532B50939606342FA2505C91AE
:100C4000A395A3954C914770550F469557952EEF58
:100C5000420F437057FB550F532B50939706440F89
:100C600040F9409398060895482F362F8827F89426
:100C7000E09AE89A2227189B2FEF51E053BD5CE9D8
:100C800056BDA89A20936B065AE650936A0678944C
:100C90002498259850E05A95F1F7249A259A509176
:100CA0006B06521719F4A89BFACF089550916B0662
:100CB000521B250F231728F444238AF7450F7AF394
:100CC000E7CF83950895D0DF882371F050916B06AC
:100CD000563151F4F894552750936B0650916A069B
:100CE000539550936A0678940895DC0101C06D9382
:100CF00041505040E0F7089581E090E008951F9240
:100D00000F920FB60F9211248F9381E0809302030C
:100D10008F910F900FBE0F901F901895CF93DF9378
:100D2000EB0183E085BD0E94D516809102038823E4
:100D3000C9F11092020380910303813069F0813080
:100D400028F0843089F08530C9F414C0809179008E
:100D50008093040381E005C08091790080930503AE
:100D600084E0809303030CC0809179008093060394
:100D700085E0F7CF809179008093070310920303F9
:100D800080917C00887F80937C0090917C00809192
:100D900003038770892B80937C0080917A008064A4
:100DA00080937A0081E088838091930690E083703D
:100DB0009070382F222780919206280F311D3A8398
:100DC00029838091930681FF03C03C6F3A83298376
:100DD00080919406282F30E02F70307046E0220F6B
:100DE000331F4A95E1F78091930686958695280FE3
:100DF000311D3C832B838091940683FF03C03C6F9D
:100E00003C832B8320919506229526952695237069
:100E10008091960690E08F779070880F991F880FC9
:100E2000991F820F911D9D878C87809194068295D2
:100E30008F708E87809195068F7380528F839091EB
:100E400097069F73990F80919606881F8827881FA1
:100E5000980F9B878091970685FF02C0906C9B87B7
:100E60001E821D82809107032091060390E0821B61
:100E7000910962E070E00E94471E60586A87809185
:100E80000503888780910403898781E090E0DF91E2
:100E9000CF9108950E949F1686E080936C0683E0B0
:100EA0008093810085E085BD26E02150822F90E06F
:100EB000FC01EE56F94FE081DC01A259B94F8C914B
:100EC0008E13EC93222389F788EE93E0F6D40E94E8
:100ED000C71310BA80917A00876080937A0080915E
:100EE0007C00806480937C0080917C008062809391
:100EF0007C0080917A00806880937A0080917A00EB
:100F0000886080937A0080917A00806480937A0070
:100F10000895CF92DF92EF92FF920F931F93DF938A
:100F2000CF9300D0CDB7DEB76A836A01898393304F
:100F300041F1943030F4913071F0923009F06BC08F
:100F400015C0913209F439C0923209F43FC094308F
:100F500009F061C046C08CEF96E00E941D1760EF5B
:100F6000E62E65E0F62E02E110E059C08EEE96E026
:100F70000E941D1752E0E52E56E0F52E06E610E021
:100F80004EC08EED96E00E941D178981813051F090
:100F9000813020F0823009F03EC00BC0E8E6F6E078
:100FA000849103C0ECE6F6E08491082F10E07F0105
:100FB00036C0E6E8F6E08491F8CF81ED96E00E9435
:100FC0001D1744E1E42E46E0F42E22C081EC96E0A9
:100FD0000E941D173CEAE32E30E0F32E04E415E0F6
:100FE0001EC08EEA96E00E941D178A81882329F48C
:100FF0002BE0E22E26E0F22E0BC0813029F091E5A5
:10100000E92E96E0F92E04C083E3E82E86E0F82E60
:1010100009E010E004C0EE24FF2400E010E0CE015F
:10102000019661E070E00E948317CE01029661E0B4
:1010300070E00E948817F601F182E082C8010F90EB
:101040000F90CF91DF911F910F91FF90EF90DF9064
:10105000CF9008955E9A08955E980895AF92BF92DA
:10106000CF92DF92EF92FF920F931F93DF93CF9374
:10107000CDB7DEB7A1970FB6F894DEBF0FBECDBFD8
:1010800010919E08143009F01FC10E94E7171093B9
:10109000E9008091E80082FF17C15E9A84EF91E039
:1010A00020E931E0F9013197F1F70197D9F75E981E
:1010B00084EF91E020E931E0F9013197F1F70197F0
:1010C000D9F7CC24DD2482E0A82EB12CAC0EBD1EB5
:1010D0000EC00894C11CD11CC80161E070E040E062
:1010E00050E00E94C41A0F5F1F4F853091F320918A
:1010F000F3008091F200F22EEE2490E08E299F29D9
:10110000892B41F080E2C816D10420F485010C0D32
:101110001D1DDFCF8091E8008B778093E800198256
:101120008A81843409F4C9C0853440F5883209F4D1
:10113000A3C0893298F4833209F494C0843238F41D
:10114000813209F48BC0823209F0BEC089C0853279
:1011500009F48CC0863209F0B7C08AC08A3350F4D3
:10116000813308F078C0893209F488C08F3209F0E1
:10117000ABC080C0833409F0A7C065C0843609F4D1
:1011800095C0853698F4843509F462C0853538F405
:101190008D3409F47CC0833509F096C04FC0853585
:1011A00009F47FC0833609F08FC04BC0833709F440
:1011B00043C0843730F48C3671F08D3609F084C02A
:1011C00061C0853709F468C0853708F43FC0843AA8
:1011D00009F07AC049C08AE597E00E941D178E0188
:1011E0000F5F1F4F02C00E94E717C8010E946613DD
:1011F0008823C9F780917A06882321F087E497E055
:101200000E941D1780917B06882321F082E397E0DE
:101210000E941D1780917C06882321F08DE197E0C4
:101220000E941D1780917D06882309F44DC08CE033
:1012300097E00E941D1748C080E001C081E0ACD358
:1012400043C080E001C081E0AED33EC080E001C079
:1012500081E0B0D339C0805360E012C081E00FC09C
:1012600082E00DC083E00BC084E009C085E007C0C8
:1012700086E005C087E003C088E001C089E061E046
:1012800093D422C09091EE028091EB0213C0809122
:10129000EE029091EB0215C09091EE028091EC026B
:1012A00009C08091EE029091EC020BC09091EE0289
:1012B0008091ED028095892305C08091EE02909186
:1012C000ED02892B8093EE02A1960FB6F894DEBF53
:1012D0000FBECDBFCF91DF911F910F91FF90EF9087
:1012E000DF90CF90BF90AF9008956F927F928F92D2
:1012F0009F92AF92BF92DF92EF92FF920F931F9354
:10130000DF93CF93CDB7DEB7C054D0400FB6F8947B
:10131000DEBF0FBECDBF80919E08843009F084C02F
:1013200081E08093E9008091E80080FF13C0809104
:1013300000018E010F5F1F4FB801F0DCC8016FE0A4
:1013400070E040E050E00E94161B8091E8008E772C
:101350008093E80082E08093E9008091E80082FFBA
:1013600063C05E9ADD245E010894A11CB11C32E0CA
:10137000632E712C6C0E7D1E20EA822E2FE0922EA1
:101380003FC0C50161E070E040E050E00E94C41A37
:101390008530B9F3D394E981F0E0EE0FFF1FED53F0
:1013A000FE4F0081118101501040C8018D0D911D2B
:1013B0008034910598F020E931E05E9888EE93E062
:1013C000F9013197F1F70197D9F75E9A88EE93E02A
:1013D000F9013197F1F70197D9F7EFCFC301B801C0
:1013E00040E050E00E94C41A8530C1F3D00E0F5F78
:1013F0001F4FC501B8010E941116C4010197F1F7F2
:101400002091F3008091F200F22EEE2490E08E29DC
:101410009F29892B21F08FE38D1508F0B2CF8091A1
:10142000E8008B778093E800C05CDF4F0FB6F8943C
:10143000DEBF0FBECDBFCF91DF911F910F91FF9007
:10144000EF90DF90BF90AF909F908F907F906F90C4
:101450000895EF92FF920F931F93DF93CF93CDB731
:10146000DEB764970FB6F894DEBF0FBECDBF809194
:10147000A3089091A408019719F0EE24FF2404C05A
:1014800045E1E42E41E0F42E8091EE020091ED0260
:101490008023B1F084EA97E00E941D1781EA98E06A
:1014A00062E070E00E94831783EA98E062E070E0F7
:1014B0000E94831780EA98E061E070E00E9488173C
:1014C0008091A008803209F497C0813230F48130D5
:1014D00059F0893009F0BFC032C0813209F471C0BF
:1014E000823209F0B8C0A4C08091EE02802321F0BE
:1014F00081E091E00E94481780919F08813A09F0AD
:10150000AAC05E9A8091A1089091A20823E087303A
:10151000920739F48E010F5F1F4FC8010E942214F9
:101520003FC08E010A5F1F4FB801F8DB8091E800D1
:10153000877F8093E800C8016FE070E039C0809138
:10154000EE02802321F08BE091E00E944817809109
:101550009F08813209F07FC05E9A8091E800877F02
:101560008093E8008E010A5F1F4F6091A50870917B
:10157000A608C8010E94161A0E943B188091A10873
:101580009091A20885509340D1F480ED97E00197A7
:10159000F1F7C8018E010F5F1F4FB8010E947F1540
:1015A0008091E800877F8093E800C80165E070E0E3
:1015B0000E94B0198091E8008B778093E8005E98D4
:1015C0004AC08091EE02802321F080E997E00E94DA
:1015D0001D1780919F08813A09F03DC08091E80075
:1015E000877F8093E800C70167E070E00E94B01930
:1015F0008091E8008B7719C08091EE02802321F062
:101600008CE797E00E941D1780919F08813219F5A1
:101610008091E800877F8093E800C70167E070E071
:101620000E94161A8091E8008E778093E80013C01C
:101630008091EE02802321F084E697E00E941D173E
:1016400080919F08813239F48091E800877F8093F0
:10165000E8000E943B1864960FB6F894DEBF0FBEF8
:10166000CDBFCF91DF911F910F91FF90EF90089523
:10167000CF92DF92EF92FF920F931F9381E061EC84
:1016800042E30E940618082F82E060EC42E30E94C9
:101690000618C82E83E061E842E10E940618E82E91
:1016A00084E060E842E10E94061810E0DD240C218D
:1016B0001D2101701070FF240E211F2120E030E059
:1016C000012B11F021E030E0082F10E0022313235A
:1016D00085E061EC42E00E9406181092150110921C
:1016E0001601109217011092180120E030E0012B32
:1016F00011F021E030E090E028233923232B11F46E
:1017000090E401C090E08BB18F7B982B9BB91F9127
:101710000F91FF90EF90DF90CF90089584B7877F6F
:1017200084BF88E10FB6F894809360001092600047
:101730000FBE80E090E020E80FB6F894209361009F
:10174000809361000FBE569A5E98A4DB0C94D21869
:10175000E5DF5E98789408C05E9A8CE291E0ADD0A7
:101760005E988CE291E0A9D0C7DA892BA9F3BDDDA0
:101770000E94E71773DC0E94E7170E94D71C0E94A3
:10178000E717F2CF853180F4282F30E085E290E032
:10179000289FF001299FF00D389FF00D1124E85F7C
:1017A000FC4F8081826080830895853180F4282FEA
:1017B00030E085E290E0289FF001299FF00D389FEE
:1017C000F00D1124E85FFC4F80818D7F80830895A8
:1017D0001F9311E0812FE9DF1F5F1531D9F71F91AA
:1017E0000895482F8531A0F4282F30E085E290E05D
:1017F000289FF001299FF00D389FF00D1124E85F1C
:10180000FC4F10828091BC01481710F44093BC013A
:101810000895FC0120E090E003C08191280F9F5FB4
:101820009617D8F3922F9F7719F080E8891B982F8D
:10183000892F08952FEF8F3F920719F420E030E0B1
:1018400008C09C0130703695279580709F77280FCF
:10185000391FC9010895282F332727FD309587FFA9
:1018600002C020583048C9010895689FB001112472
:10187000672F770F770B65956595862F8F7708957E
:101880002498259890EA892F8A95F1F78AE6282FDF
:101890002A95F1F7249A259A282F2A95F1F7292FCE
:1018A0002A95F1F7282F2A95F1F7292F2A95F1F794
:1018B0008A95F1F79A95F1F70895AF92BF92CF927A
:1018C000DF92EF92FF920F931F93A8959C0140E641
:1018D0005AEE4DC02031310534F0CA010197F1F7BD
:1018E0002F50304044C0B901882777FD8095982F4C
:1018F0000E941C1D5B016C0120E030E04AE755E4CA
:101900000E94A81D7B018C0120E030E040E85FE3ED
:101910000E94EA1C88231CF461E070E024C0C80126
:10192000B70120E03FEF4FE757E40E94A41D1816CF
:10193000B4F4C601B50120E030E040E251E40E9479
:10194000A81D0E94EE1C80E991E005C0FC013197C2
:10195000F1F76150704061157105C1F70CC0C80105
:10196000B7010E94EE1CCB010197F1F704C01216DB
:1019700013060CF4AFCF1F910F91FF90EF90DF9003
:10198000CF90BF90AF900895982F8091C80085FFA9
:10199000FCCF9093CE00089590E0882309F491E065
:1019A00090937A06089590E0882309F491E090934B
:1019B0007B06089590E0882309F491E090937C06DB
:1019C0000895EF92FF920F931F93CF93DF937C01C3
:1019D0008B018091EE02882341F083E298E00E941F
:1019E0001D17C701B8010E948817C0E0D0E006C0EB
:1019F000F701EC0FFD1F8081C7DF2196C017D107CB
:101A0000B8F3DF91CF911F910F91FF90EF90089560
:101A100084E690E052DF34DF80E69DE60197F1F73F
:101A20002FDF2EDF2DDF2CDF83E290E046DF28DF83
:101A300027DF26DF8EE090E040DF22DF21DF8EE42B
:101A400090E03BDF1DDF1CDF80E89EE30197F1F7AC
:101A500017DF16DF15DF8BE390E02FDF11DF10DFDC
:101A60008DE792E062E070E0ACDF84E190E025DF9A
:101A70008FE792E069E070E0A4DF89E390E01DDF8A
:101A800088E892E063E370E09CDF8BEB92E063E236
:101A900070E097DF86E490E010DF8EED92E068E082
:101AA00070E08FDF86E490E008CFEF92FF920F9313
:101AB0001F93DF93CF9300D00F92CDB7DEB78A018B
:101AC00095EB99836A838B837E010894E11CF11C5A
:101AD000C70163E070E075DF85EA8983802F8F7727
:101AE0008A8300701F771B83C70163E070E069DFA2
:101AF0000F900F900F90CF91DF911F910F91FF905A
:101B0000EF900895DF93CF9300D00F92CDB7DEB75B
:101B100095EB99836A838B83CE01019663E070E035
:101B200050DF0F900F900F90CF91DF910895CF92DB
:101B3000DF92EF92FF920F931F93DF93CF9300D02A
:101B4000CDB7DEB7F82EE92ED62EC72E80EF8983CB
:101B50008E010F5F1F4FC80161E070E032DF86EE3B
:101B600092E064E070E02DDF8F2D9E2D6D2D7C2D99
:101B700028DF8F2D9E2D6D2D4CDE8A83CE0102969F
:101B800061E070E01EDF87EF8983C80161E070E0EB
:101B900018DF0F900F90CF91DF911F910F91FF9061
:101BA000EF90DF90CF900895DF93CF930F92CDB752
:101BB000DEB78983282F30E080E0662309F481E0D6
:101BC000F901E758F94F858385E290E0289FF001FD
:101BD000299FF00D389FF00D1124E85FFC4F8081A4
:101BE000823079F48AEB97E00E941D17CE010196AE
:101BF00061E070E00E9488178981D7DD898160E308
:101C000081DF0F90CF91DF9108950F931F938C0187
:101C10008DE298E00E941D17C801019661E070E016
:101C20000E9488171F910F910895DF92EF92FF9203
:101C30000F931F93DF93CF930F92CDB7DEB78C0135
:101C4000FC018181898382EA98E00E941D17C80106
:101C500064E070E00E9488178CE998E00E941D17EC
:101C6000CE01019661E070E00E94881783E998E058
:101C70000E941D17C801029661E070E00E9488175B
:101C80008AE898E00E941D17C801039661E070E0A1
:101C90000E948817D980ED2CFF24F8018281282F1B
:101CA000332727FD309587FF03C02095309531609D
:101CB00085E290E0E89EF001E99EF00DF89EF00DBF
:101CC0001124E85FFC4F32A321A3F8018381C3DD17
:101CD0009C0185E290E0E89E8001E99E100DF89E4F
:101CE000100D1124085F1C4FF80134A323A3808139
:101CF00082FF0BC041A152A18D2D68E7D6DEF8010D
:101D000043A154A1898164E7D0DE0F90CF91DF9188
:101D10001F910F91FF90EF90DF900895EF92FF9247
:101D20000F931F93DF93CF930F92CDB7DEB78C0144
:101D3000FC019181998385E2989F7001112488E0CC
:101D400093E0E80EF91E85EC98E00E941D17C8018B
:101D500064E070E00E9488178FEB98E00E941D17E6
:101D6000CE01019661E070E00E94881782EB98E056
:101D70000E941D17C801029662E070E00E94881759
:101D8000F8018281F7018187F8018281938197FDB3
:101D900008C0F701658169DDF701838F8FE790E067
:101DA00008C0F7016581809560DDF701838F81E0D0
:101DB00091E092A381A3F70114A213A25981252FC8
:101DC00030E085E290E0289FF001299FF00D389FD8
:101DD000F00D1124E85FFC4F808182FF0CC0F701F9
:101DE000438D852F64E750E060DEF70141A152A1E9
:101DF00089816CE75ADE0F90CF91DF911F910F918F
:101E0000FF90EF900895CF92DF92EF92FF920F93A1
:101E10001F93DF93CF930F92CDB7DEB77C01FC0108
:101E20008181898383E199E00E941D17C70167E0E2
:101E300070E00E9488178DE099E0FFD7CE010196EF
:101E400061E070E00E94881780E099E0F6D7C70152
:101E5000029661E070E00E94881783EF98E0EDD76A
:101E6000C701039661E070E00E94881786EE98E053
:101E7000E4D7C701049661E070E00E94881789EDFD
:101E800098E0DBD7C701059662E070E00E948817F2
:101E9000C98085E2C89E80011124085F1C4FF701AC
:101EA0008281F80181878FE790E092A381A381E08E
:101EB00091E094A383A3F70165817681F3E0683E06
:101EC0007F0710F081E004C06A30710520F48FE6CE
:101ED000F801878F07C088EE93E00E94331E6F776A
:101EE000F801678FF8018385823019F0838583308C
:101EF00091F5F70184818052813C10F483E001C0A8
:101F000082E0F8018387F8016581F7018281ADDC09
:101F1000D82EF701838187FD8F5F85958D0D9BDC22
:101F2000F80192A381A3F701838187FD8F5F8595D7
:101F30008D1991DCF80194A383A3808182FF0BC0EB
:101F400041A152A18C2D64E7B0DDF80143A154A159
:101F5000898168E7AADDF801808182FF05C0478D8D
:101F6000898160E750E0A1DD0F90CF91DF911F9153
:101F70000F91FF90EF90DF90CF900895AF92BF92B6
:101F8000CF92DF92EF92FF920F931F93DF93CF9345
:101F90000F92CDB7DEB77C01FC010181098310E00F
:101FA00088E499E04AD7C70165E070E0B1D78FE3D4
:101FB00099E043D7CE01019661E070E0A9D785E3AF
:101FC00099E03BD7C701029661E070E0A1D78BE2B0
:101FD00099E033D7C701039661E070E099D781E2B9
:101FE00099E02BD7C701049661E070E091D725E214
:101FF00030E0029FF001039FF00D129FF00D1124BD
:10200000E85FFC4F83858D3008F49BC0803120F061
:10201000803109F096C05BC0D980AD2CBB24A29E54
:102020008001A39E100DB29E100D11240E5E1C4F58
:10203000F7018281882361F484810DDCF8019087A7
:102040008783F701838107DCF8019487838715C0B4
:10205000F701848100DCF80192878187F701838191
:10206000803831F48FE790E0F8019687858705C0C6
:102070008195F1DBF8019687858785E290E0A89E3F
:10208000F001A99EF00DB89EF00D1124E85FFC4F01
:10209000808182FF56C0F7018281882361F4F801B4
:1020A000478150858D2D68E400DDF8014385548516
:1020B000898160E545C0F801418552858D2D6CE42C
:1020C000F4DCF80145855685898164E539C0B9801D
:1020D000CB2CDD24C29E8001C39E100DD29E100D1C
:1020E00011240E5E1C4FF7018281882331F4848114
:1020F000B2DBF8019087878306C0F7018481ABDBF0
:10210000F8019287818785E290E0C89EF001C99E20
:10211000F00DD89EF00D1124E85FFC4F808182FF06
:1021200010C0F7018281882331F4F801478150857E
:102130008B2D68E405C0F801418552858B2D6CE438
:10214000B4DC0F90CF91DF911F910F91FF90EF9032
:10215000DF90CF90BF90AF900895EF92FF920F93D2
:102160001F93DF93CF930F92CDB7DEB78C01FC01A5
:102170009181998385E2989F7001112488E093E012
:10218000E80EF91E81E999E058D6C80168E070E0D0
:10219000BFD687E899E051D6CE01019661E070E0A4
:1021A000B7D68DE799E049D6C801029661E070E0A4
:1021B000AFD683E799E041D6C801039661E070E0AD
:1021C000A7D685E699E039D6C801049662E070E0AA
:1021D0009FD687E599E031D6C801069662E070E0A7
:1021E00097D6F8018281F7018783F8018381F7018F
:1021F0008087F80186819781F701948383836581C5
:10220000F801828132DBF701808F6581F8018381DB
:102210002CDBF701868FF801848195810BDBF701B8
:10222000928F818FF801868197818F5F9F4721F47C
:10223000F701158E148E17C0898190E025E230E0F9
:10224000829FF001839FF00D929FF00D1124E85FB3
:10225000FC4F8181928123813481821B930BEADAC6
:10226000F701958F848F6981262F30E085E290E019
:10227000289FF001299FF00D389FF00D1124E85F91
:10228000FC4F808182FF18C0F701448D558D862F49
:1022900060E60BDCF701418D528D89816CE505DC30
:1022A000F701468D89816CE650E0FFDBF701408D38
:1022B000898164E650E0F9DB0F90CF91DF911F91A7
:1022C0000F91FF90EF9008956F927F928F929F925F
:1022D000BF92CF92DF92EF92FF920F931F93DF9303
:1022E000CF930F92CDB7DEB78C01DC0111968C91A4
:1022F00089838DED99E0A1D5C8016EE070E008D624
:1023000085ED99E09AD5CE01019661E070E000D6A6
:102310008DEC99E092D5C801029661E070E0F8D5A5
:1023200085EC99E08AD5C801099661E070E0F0D5A6
:102330008DEB99E082D5C801039662E070E0E8D5A4
:10234000F8018385882381F088EB99E076D5C80170
:102350000C9661E070E0DCD583EB99E06ED5C801A6
:102360000D9661E070E0D4D5D80115968D919C91C1
:102370001697892B41F089EA99E05FD5C801059647
:1023800062E070E0C5D5F8018285882341F08FE9CD
:1023900099E053D5C8010A9661E070E0B9D5B980DB
:1023A000CB2CDD2485E290E09C01C29EC001C39E3F
:1023B000900DD29E900D1124A2E16A2EA3E07A2EF8
:1023C000680E791ED80113962D913C911497F8E070
:1023D000EF2EF3E0FF2EE80EF91EBFE72F3F3B077D
:1023E00021F4F7011686158607C0C90123DAD70143
:1023F0001E969C938E931D97F8018381948125E20C
:1024000030E0C29EF001C39EF00DD29EF00D11246B
:10241000E85FFC4F92838183808182FF05C0458500
:1024200056858B2D60E441DBD80112968C91883063
:1024300030F4833058F4813008F417C10AC08B306F
:1024400008F4F3C08B3009F010C1FFC0CC24C39452
:1024500001C0CC24D98085E2D89E70011124E8E027
:10246000F3E0EE0EFF1EEAE08E2E912C8E0C9F1CE8
:10247000D8011C968C911C9790E0880F991F9C01A5
:1024800020783170220F331F8F779070280F391FFB
:10249000F701328B218B13968D919C9114978F5F4E
:1024A0009F4731F0F701838194818F5F9F4731F41B
:1024B000D7015D961C921E925C971AC0F70121818C
:1024C0003281838194818217930768F4818192819C
:1024D00023813481821B930BADD9D7015D969C93E8
:1024E0008E935C9705C0F70185859685958F848FBF
:1024F0008D2D90E025E230E0829FF001839FF00D6A
:10250000929FF00D1124E85FFC4F8581D801199648
:102510009C911997BB24891709F447C0BB24B39435
:102520009583F701878119966C919FD9D7015896A9
:102530008C93589718968C91F801618596D9D7019C
:102540005E968C935E97CC2041F119968C911997E9
:1025500015966C918AD9182FF7018681810F7BD946
:10256000D70192969C938E93919716968C91811B8E
:1025700072D9F70194A383A3808182FF16C041A181
:1025800052A18D2D64E791DAD70193964D915C911C
:102590009497898168E789DA08C0F7018185D801B5
:1025A00019966C9162D9F701838F6981262F30E0EB
:1025B00085E290E0289FF001299FF00D389FF00DF3
:1025C0001124E85FFC4F808182FF26C0D70151961D
:1025D0004D915C915297862F68E467DAF701448D3C
:1025E000558D898160E661DABB2009F43EC0D701D0
:1025F0005E964C9189816CE650E057DAF701408D88
:10260000898164E650E051DAD7015B964C9189816B
:1026100064E750E04ADA29C0C4016BE170E087DA70
:10262000F70180818460808320C0898190E025E269
:1026300030E0829FF001839FF00D929FF00D1124F6
:10264000E85FFC4FE0816FE011C0898190E025E2F6
:1026500030E0829FF001839FF00D929FF00D1124D6
:10266000E85FFC4FE0816BE001C06BE1898190E0A5
:1026700005E210E0809FF001819FF00D909FF00D2A
:102680001124E85FFC4F808182FD11C0C30170E01E
:102690004EDA898190E0809FF001819FF00D909F3C
:1026A000F00D1124E85FFC4F8081846080830F90DF
:1026B000CF91DF911F910F91FF90EF90DF90CF901E
:1026C000BF909F908F907F906F9008950F931F936E
:1026D000CF93DF938C01DC018C91882311F482E08D
:1026E0008C93F8019081943110F080E04BC085E22A
:1026F000989FE0011124C85FDC4FC80161E070E0E1
:1027000002D48881813019F488E198E00CC08230CD
:1027100019F48EE098E007C0843019F488E098E05E
:1027200002C082E098E089D3D801EC91F0E0E7584C
:10273000F94F8581882319F085EF97E002C089EE73
:1027400097E07BD388818823C1F08DED97E075D326
:10275000CE01019662E070E0D6D380ED97E06DD3B4
:10276000CE01039662E070E0CED387EC97E065D3AC
:10277000CE01059661E070E0C6D3F80180818F5FDD
:10278000808381E0DF91CF911F910F91089529E718
:1027900036E0C90160E070E049E150E00E94750652
:1027A000539A1092C8008FE190E09093CD008093EF
:1027B000CC0086E88093CA0088E08093C90010921C
:1027C000CE0028E033E0C90160E070E049E053E06A
:1027D0000E94750626E736E0C90160E070E043E03C
:1027E00050E00E94750682E08093BC0111C982E02E
:1027F0008093BC0128E033E0C90160E070E049E06B
:1028000053E00C947506DF93CF930F92CDB7DEB7EC
:10281000FC018181898383E598E00FD3CE01019685
:1028200061E070E075D389818F3F19F4E0DF8FE7B5
:1028300003C00E94F10B898160E164D90F90CF91B0
:10284000DF9108950F931F938C0189EE99E0F5D2E3
:10285000CEDF87E0F80180838FEF9FEF9283818343
:102860008AE0838383E08483C80165E070E050D30D
:102870001F910F9108951F938091BC01843111F431
:1028800010E03BC01091BC011F5F1093BC011150C0
:1028900025E230E009C08091BC018431A0F4809130
:1028A000BC018F5F8093BC018091BC0190E0829F4E
:1028B000F001839FF00D929FF00D1124E85FFC4F13
:1028C0008081882341F7212F30E085E290E0A90143
:1028D000489F9001499F300D589F300D1124F901F8
:1028E000E85FFC4F81E080832E5E3C4FC90160E0D1
:1028F00070E04BE150E00E947506812F1F91089512
:102900008CE191E0C5C2CF93DF93EC0182E498E0C3
:1029100094D2998182E080937606809177068460D4
:102920008093770680917706806180937706109276
:102930007806913039F48DE291E0AAD28091770641
:102940008E7F08C0923049F48FE391E0A1D280914C
:10295000770684608093770657C0933011F580E541
:1029600091E096D28FE092E062E070E02AD88EE5A6
:1029700091E020E931E0F9013197F1F70197D9F7BA
:1029800080E991E020E931E0F9013197F1F7019711
:10299000D9F781E192E068E070E013D810927806F0
:1029A00033C09430E1F481E691E072D289E192E0A3
:1029B00062E070E006D88EE591E020E931E0F901AF
:1029C0003197F1F70197D9F780E991E020E931E0FB
:1029D000F9013197F1F70197D9F709DF15C0953063
:1029E00019F487E691E004C0963021F48DE691E079
:1029F0004FD20AC0907C41F08BE398E01ED2CE010A
:102A0000019661E070E084D2DF91CF91089586E76E
:102A100091E03EC280E991E03BC20F931F93DF93A8
:102A2000CF930F92CDB7DEB78C01FC0181818983F2
:102A300088E798E002D2CE01019661E070E063D2AF
:102A400089818F3F11F48FE78983F801828181307A
:102A5000B9F481E798E005D2CE01019661E070E01B
:102A600057D2F80181810E94C20B9981E92FF0E0D1
:102A7000E758F94F8581882309F03BC0892F1DC095
:102A80008230E9F486E698E0ECD10E94E80BE98117
:102A9000F0E0E758F94F8581882319F48FE760E368
:102AA00031D8F80181810E94C20BE981F0E0E7583A
:102AB000F94F85818823E9F48FE760E213C0833002
:102AC00099F480E698E0CDD1F80181810E94D50B80
:102AD0009981E92FF0E0E758F94F8581882349F47F
:102AE000892F60E30FD805C0C801029661E070E04D
:102AF0000FD20F90CF91DF911F910F9108950F93F7
:102B00001F93CF93DF938C01EB018FE09AE095D177
:102B1000C80164E070E0FCD186E08883ACDE982FC9
:102B20008983882319F482E08A836BC021E02A8399
:102B300085E2989FD0011124A85FBC4F8FEF9FE7DB
:102B400012969C938E93119714969C938E93139741
:102B50008FEF15968C93159716961C9216971796CD
:102B60008C93179718968C9318979FE75B969C9376
:102B70005B975F962C935F97F8018181E82FF0E0D7
:102B8000EE5FFD4F80811B968C931B9758961C928D
:102B900058975A961C921E9259975E961C925E9771
:102BA0005D961C921E925C9783E21A968C931A97FC
:102BB0001C969C931C9750961C921E921F9753969E
:102BC0009C93539784E654968C93549755961C92F5
:102BD000559780E156968C9356978EE457968C9332
:102BE00057971B968C911B97823129F494961C92CF
:102BF0001E92939706C081E091E094969C938E93E9
:102C000093978FEF9FEF9C838B8386EA91E0688197
:102C1000AE0125E030E084D1DF91CF911F910F917B
:102C20000895CF93DF93EC019B015E9A8091EE02B1
:102C30009091ED02892331F080EB91E065EC71E039
:102C4000AE018BD188818730A1F1883078F4833050
:102C500019F1843030F48130C9F0823009F03EC07F
:102C600018C08530F9F0863000F519C08B3051F16D
:102C70008C3028F4883001F18A3081F520C08D3005
:102C800039F18D3010F18E3049F526C0CE011CDBB4
:102C900025C0CE0162DA22C0CE0170D91FC0CE019C
:102CA000B2D81CC0CE013AD819C0CE010E94150E70
:102CB00015C0CE01AFDE12C0CE01A9DE0FC0CE011D
:102CC000ACDE0CC0CE019FDD09C0CE011CDE06C00B
:102CD000CE010E94050E02C0CE0112DE5E98DF9189
:102CE000CF91089523B5216023BD909385008093F3
:102CF000840081E086BBB09BFECF0895FC019181EA
:102D000082819827808198278381982784819827BA
:102D100085819827892F82958F708927982F96957E
:102D200096959827892F86958927817008955E9AB0
:102D300081EC9FEFD7DF5E9883E89FEFD3CF1DB87C
:102D400080E48EB910BA83EF81BB93E095BD85E036
:102D500080938100909369008BEC93EFC3DFE7DFF2
:102D60008BEC93EFBFDF80E06EE70E943406DFDF7D
:102D700080916B0680916B06813121F080916B060A
:102D8000813389F483B180916B0684E696E0B6DFE7
:102D9000882349F083E080939906E898F8948FE0BF
:102DA000809311060895E898DACF80E060E10E94F0
:102DB0003406E898882361F4809112068F5F80932F
:102DC00012068B3080F0F89480E28093D800FFCF19
:102DD0001092120684E696E091DF882321F084E6C3
:102DE00096E00C947A050895282F8091EE0281FFD9
:102DF00014C0809113069091140680509240E0F424
:102E00008091130690911406FC01E656F94F208339
:102E1000019690931406809313068091EE0280FF32
:102E200007C08091C80085FFFCCF2093CE00089595
:102E300080EB94E00197F1F708951F93CF93DF9310
:102E4000EC01FE0121961491112339F01A3011F48E
:102E50008DE0CADF812FC8DFF4CFDF91CF911F91C2
:102E60000895EBDF8DE0C0DF8AE0BECF1F93CF93E4
:102E7000DF93EC011991112339F01A3011F48DE030
:102E8000B3DF812FB1DFF6CFDF91CF911F9108958E
:102E9000EDDF8DE0A9DF8AE0A7CFCF92DF92EF923E
:102EA000FF920F931F93CF93DF936B01E0EBF4E05E
:102EB0003197F1F7E0900003F09001038C01C0E03E
:102EC000D0E015C080E290DFF801808182958F709C
:102ED000F701E80FF11D808187DFF80181918F01F3
:102EE0008F70F701E80FF11D80817EDF2196CC15F0
:102EF000DD0540F3DF91CF911F910F91FF90EF908F
:102F0000DF90CF900895662311F070E0C6CF08954A
:102F1000662311F070E0C1DF8DE066DF8AE064CFE8
:102F2000EF92FF920F931F93DF93CF930F92CDB742
:102F3000DEB769838A01790199DFCE01019661E0EC
:102F400070E0E1DFC801B701E3DF0F90CF91DF91BF
:102F50001F910F91FF90EF900895CF92DF92EF9223
:102F6000FF920F931F93CF93DF936B01142F052FC5
:102F700079017CDF812F902FEC01EC0EFD1E17C034
:102F8000E881F0E03197EE0FFF1FEC0DFD1D108181
:102F9000CE0161E070E0B7DF123038F0612F70E0F1
:102FA00061507040CE010196AEDFC10FD11DCE152C
:102FB000DF0530F38DE018DF8AE016DFDF91CF9177
:102FC0001F910F91FF90EF90DF90CF900895609147
:102FD00013067091140661157105B9F0109214066C
:102FE0001092130683E08093E9008AE996E040E0BE
:102FF00050E01CD38091E8008E778093E8005CD08D
:103000008091E8008E778093E8000895382F282F6C
:103010002CC02093E900231721F4762F942F50E041
:1030200006C07091EC009091ED005091F00091FF7E
:103030001BC08091EB008E7F8093EB008091ED00B0
:103040008D7F8093ED008091EB0081608093EB0099
:103050007093EC009093ED005093F0008091EE009F
:1030600087FD02C080E008952F5F273090F23093F3
:10307000E90081E0089580919F0888239CF404C0B2
:1030800080919E088823B9F08091E80082FFF8CFF4
:103090008091E8008B778093E800089580919E08E6
:1030A000882349F08091E80080FFF8CF8091E80004
:1030B0008E778093E80008954091E4005091E500F8
:1030C00024E68091EC0080FF24C08091E80080FD20
:1030D0001EC080919E08882311F482E008958530F7
:1030E00011F483E008958091EB0085FF02C081E038
:1030F00008958091E4009091E5008417950709F305
:10310000222311F484E008952150AC01DACF80E04D
:1031100008958091E80082FFDCCFF9CFEF92FF9213
:103120000F931F934AD051D008ED10E0F801808131
:103130008F77808380818068808380818F7D80838A
:1031400019BC10929E0810929A0810929C08109236
:103150009B0880EEE82EF12CF70180818B7F808325
:10316000F80180818160808380E060E042E04EDF92
:10317000E1EEF0E080818E7F8083E2EEF0E08081FE
:1031800081608083808188608083F70180818E7F69
:103190008083F8018081806180831F910F91FF906F
:1031A000EF900895E7EDF0E080818160808384E016
:1031B00082BF81E080939D08B1CFE8EDF0E080818F
:1031C0008E7F80831092E20008951092DA001092B0
:1031D000E10008951F920F920FB60F9211242F93C2
:1031E0003F934F935F936F937F938F939F93AF938F
:1031F000BF93EF93FF938091E10082FF0AC080911B
:10320000E20082FF06C08091E1008B7F8093E100A5
:10321000CDD38091DA0080FF1FC08091D80080FF5D
:103220001BC08091DA008E7F8093DA008091D900F4
:1032300080FF0DC080E189BD82E189BD09B400FE37
:10324000FDCF81E080939E080E942A0805C019BC2A
:1032500010929E080E942C088091E10080FF18C007
:103260008091E20080FF14C08091E2008E7F809305
:10327000E2008091E20080618093E2008091D800BA
:1032800080628093D80019BC85E080939E088ED31D
:103290008091E10084FF2DC08091E20084FF29C06D
:1032A00080E189BD82E189BD09B400FEFDCF809136
:1032B000D8008F7D8093D8008091E1008F7E80932D
:1032C000E1008091E2008F7E8093E2008091E20035
:1032D00081608093E20080919A08882331F4809184
:1032E000E30087FD02C081E001C084E080939E0876
:1032F0005DD38091E10083FF22C08091E20083FFD3
:103300001EC08091E100877F8093E10082E080937E
:103310009E0810929A088091E1008E7F8093E100D0
:103320008091E2008E7F8093E2008091E2008061D4
:103330008093E20080E060E042E068DE37D3FF91F6
:10334000EF91BF91AF919F918F917F916F915F911D
:103350004F913F912F910F900FBE0F901F90189596
:103360009C014091A5085091A6084617570718F4EC
:10337000F90190E045C06115710511F0AB01F8CF7E
:103380008091E8008E778093E80040E050E0F0CF35
:1033900080919E08882309F445C0853009F444C013
:1033A0008091E80083FF02C081E008958091E800E9
:1033B00082FD32C08091E80080FF22C08091F3003E
:1033C0009091F200782F60E0292F30E0262B372BE8
:1033D00007C081918093F100415050402F5F3F4FD3
:1033E0004115510519F02830310598F390E0283047
:1033F000310509F491E08091E8008E778093E80030
:103400004115510529F6992319F606C080919E08A9
:10341000882341F0853041F08091E80082FFF6CFAB
:1034200080E0089582E0089583E008959C0161158D
:10343000710529F48091E8008B778093E800F90109
:1034400027C080919E08882399F1853099F1809159
:10345000E80083FF02C081E008958091E80082FFC8
:10346000F0CF06C08091F10081936150704059F017
:103470002091F3008091F200322F20E090E0822B27
:10348000932B892B79F78091E8008B778093E80064
:1034900061157105B1F606C080919E08882341F040
:1034A000853041F08091E80080FFF6CF80E00895FC
:1034B00082E0089583E008959C014091A508509111
:1034C000A6084617570718F4F90190E046C06115A1
:1034D000710511F0AB01F8CF8091E8008E778093F1
:1034E000E80040E050E0F0CF80919E08882309F486
:1034F00047C0853009F446C08091E80083FF02C0D0
:1035000081E008958091E80082FD34C08091E80058
:1035100080FF23C08091F3009091F200782F60E04B
:10352000292F30E0262B372B08C084918093F1009F
:103530003196415050402F5F3F4F4115510519F0D2
:103540002830310590F390E02830310509F491E0FE
:103550008091E8008E778093E8004115510521F6AF
:10356000992309F0C1CF06C080919E08882341F0BD
:10357000853041F08091E80082FFF6CF80E0089529
:1035800082E0089583E00895BF92CF92DF92EF9298
:10359000FF920F931F93CF93DF93182F092F7B0177
:1035A0006A018ADDB82E8823B1F5812F902F9C0106
:1035B000E901C114D10439F0F60180819181E81A42
:1035C000F90AC80FD91F00E010E022C08091E8007E
:1035D00085FD16C08091E8008B778093E800E7D1E5
:1035E000C114D10449F0F60180819181800F911FAF
:1035F0009183808385E010C05FDD882349F00CC093
:103600008091F10089930894E108F1080F5F1F4F42
:10361000E114F104D9F68B2DDF91CF911F910F9119
:10362000FF90EF90DF90CF90BF900895BF92CF9220
:10363000DF92EF92FF920F931F93CF93DF93182F98
:10364000092F7B016A0138DDB82E8823B1F5812F5F
:10365000902F9C01E901C114D10439F0F601808159
:103660009181E81AF90AC80FD91F00E010E022C0C2
:103670008091E80085FD16C08091E8008E778093E8
:10368000E80095D1C114D10449F0F60180819181FF
:10369000800F911F9183808385E010C00DDD88230A
:1036A00049F00CC089918093F1000894E108F10879
:1036B0000F5F1F4FE114F104D9F68B2DDF91CF91ED
:1036C0001F910F91FF90EF90DF90CF90BF900895E2
:1036D0000F931F93DF93CF93CDB7DEB7AC970FB6A1
:1036E000F894DEBF0FBECDBFEFE9F8E08091F100A6
:1036F000819328E0E73AF207C9F70E94290A8091EE
:10370000E80083FF3AC180919F083091A0083530CE
:1037100009F487C0363040F43130C9F1313070F0EF
:10372000333009F02AC133C0383009F4F7C03930DA
:1037300009F406C1363009F020C197C0803821F065
:10374000823809F01AC108C090919B0880919C08AA
:10375000882399F0926011C08091A3088F708093A4
:10376000E9008091EB0090E025E0969587952A95F9
:10377000E1F7982F91701092E9008091E800877F1F
:103780008093E8009093F1001092F100D2C088235A
:1037900019F0823009F0F1C090E08F7190700097BD
:1037A00021F0029709F0E9C00CC08091A108813096
:1037B00009F0E3C010929C08333069F580939C08AF
:1037C0002AC08091A108882331F52091A3082F7089
:1037D00009F4D3C02093E9008091EB0080FF1BC067
:1037E000333021F48091EB00806213C08091EB00B4
:1037F00080618093EB0081E090E002C0880F991F08
:103800002A95E2F78093EA001092EA008091EB009B
:1038100088608093EB001092E9008091E800877F38
:103820008BC0882309F0A9C01091A1081F770FB79A
:10383000F8948091E800877F8093E8001CDC8091F9
:10384000E80080FFFCCF8091E3008078812B80939B
:10385000E30080688093E300112311F482E001C04B
:1038600083E080939E080FBF88C08058823008F0A4
:1038700084C08091A1089091A20823E08C3D92071A
:1038800009F033C083E08C838AE28B837FB7F8949E
:10389000DE0115966EE040E050E011E2E62FF0E028
:1038A00010935700849140FF03C082958F706F5F23
:1038B0008F70282F30E08A3018F0C901C79602C0F7
:1038C000C901C0968D939D934F5F5F4F4431510561
:1038D00029F77FBF8091E800877F8093E800CE01C1
:1038E00003966AE270E03CDD13C06091A308AE016C
:1038F0004F5F5F4F0E948907BC01009709F43DC0EC
:103900008091E800877F8093E80089819A81D4DDE7
:103910008091E8008B778093E8002FC0803869F5AC
:103920008091E800877F8093E80080919A088093D7
:10393000F1008091E8008E778093E8009CDB1DC049
:103940008823D9F49091A1089230B8F48091E800CE
:10395000877F8093E80090939A088DDB80919A0886
:10396000882331F48091E30087FD02C081E001C02B
:1039700084E080939E080E94380B8091E80083FFCA
:103980000AC08091EB0080628093EB008091E80098
:10399000877F8093E800AC960FB6F894DEBF0FBE29
:1039A000CDBFCF91DF911F910F91089508951F937F
:1039B00080919E08882361F01091E9001092E9003F
:1039C0008091E80083FF01C083DE1F701093E9003F
:1039D0001F9108956CD008F481E0089594D088F088
:1039E0009F5790F0B92F9927B751A0F0D1F0660FEB
:1039F000771F881F991F1AF0BA95C9F712C0B13006
:103A000081F09BD0B1E0089598C0672F782F882768
:103A1000B85F39F0B93FCCF3869577956795B39544
:103A2000D9F73EF490958095709561957F4F8F4FB3
:103A30009F4F0895E89409C097FB3EF490958095B8
:103A4000709561957F4F8F4F9F4F9923A9F0F92F64
:103A500096E9BB279395F695879577956795B795E2
:103A6000F111F8CFFAF4BB0F11F460FF1BC06F5FC8
:103A70007F4F8F4F9F4F16C0882311F096E911C0DA
:103A8000772321F09EE8872F762F05C0662371F0FB
:103A900096E8862F70E060E02AF09A95660F771F0F
:103AA000881FDAF7880F9695879597F90895990FEB
:103AB0000008550FAA0BE0E8FEEF16161706E807F8
:103AC000F907C0F012161306E407F50798F0621B19
:103AD000730B840B950B39F40A2661F0232B242BEE
:103AE000252B21F408950A2609F4A140A6958FEF0D
:103AF000811D811D089557FD9058440F551F59F0A1
:103B00005F3F71F04795880F97FB991F61F09F3FCA
:103B100079F087950895121613061406551FF2CFF3
:103B20004695F1DF08C0161617061806991FF1CF43
:103B300086957105610508940895E894BB2766276A
:103B40007727CB0197F90895B2DF08F48FEF089536
:103B50000BD078C069D028F06ED018F0952309F00A
:103B60005AC05FC01124EACFC6DFA0F3959FD1F3FE
:103B7000950F50E0551F629FF001729FBB27F00D1B
:103B8000B11D639FAA27F00DB11DAA1F649F662770
:103B9000B00DA11D661F829F2227B00DA11D621FBF
:103BA000739FB00DA11D621F839FA00D611D221F79
:103BB000749F3327A00D611D231F849F600D211D5D
:103BC000822F762F6A2F11249F5750408AF0E1F000
:103BD00088234AF0EE0FFF1FBB1F661F771F881F49
:103BE00091505040A9F79E3F510570F014C0A6CFE8
:103BF0005F3FECF3983EDCF3869577956795B79534
:103C0000F795E7959F5FC1F7FE2B880F911D96955D
:103C1000879597F9089597F99F6780E870E060E0CD
:103C200008959FEF80EC089500240A941616170655
:103C300018060906089500240A941216130614069D
:103C400005060895092E0394000C11F4882352F000
:103C5000BB0F40F4BF2B11F460FF04C06F5F7F4FB8
:103C60008F4F9F4F0895AA1BBB1B51E107C0AA1F8E
:103C7000BB1FA617B70710F0A61BB70B881F991F0D
:103C80005A95A9F780959095BC01CD01089597FBB1
:103C9000092E07260AD077FD04D0E5DF06D00020E4
:103CA0001AF4709561957F4F0895F6F79095819578
:083CB0009F4F0895F894FFCF27
:103CB800FF4765745265706F72740053657452657E
:103CC800706F7274000000000000000853657420D3
:103CD800437573746F6D20466F7263650044697332
:103CE80061626C65204163747561746F727300451D
:103CF8006E61626C65204163747561746F727300E4
:103D080053746F7020416C6C2045666665637473EC
:103D180000526573657400506175736500436F6E7A
:103D280074696E75650053657420446F776E6C6FA7
:103D3800616420466F7263652053616D706C650025
:103D480053657420437573746F6D20466F72636595
:103D580020446174610020203D3E205573623A0082
:103D68003C3D20466662446174613A0002FF7F0070
:103D780000000102040E000800050007000400040A
:103D8800000F00030000000400020002000200050A
:103D980000F000010A0123127F5A1900005A007F1F
:103DA8006400104E7F00007F5A197F01007F0000D9
:103DB800004EF712060502080A0B0D0E0F1001C57A
:103DC80001B57C7FA57F00C506C501C507B04000C9
:103DD800B14000B24000B34000B44000B54000B666
:103DE8004000B74000B84000B94000BA4000BB40AE
:103DF80000BC4000BD4000BE4000BF4000B04000D5
:103E0800B14000B24000B34000B44000B54000B635
:103E18004000B74000B84000B94000BA4000BB407D
:103E280000BC4000BD4000BE4000BF4000C501F0DE
:103E380000010A0110056BF7B5407FA57257B5441C
:103E48007FA53C43B5487FA57E00B54C7FA50400FF
:103E5800B5507FA50200B5547FA50200B5587FA5CF
:103E6800007EB55C7FA53C00B5607FA51465B56490
:103E78007FA57E6BB5687FA53600B56C7FA5280049
:103E8800B5707FA5664CB5747FA57E01C501B57C6C
:103E98007FA57F00C50600010A0100010204023067
:103EA8003132333435363738394142434445460098
:023EB800EF0217
:00000001FF
