:100000005AC4000075C4000072C4000070C400002F
:100010006EC400006CC400006AC4000068C4000024
:1000200066C4000064C400000C94861560C400001F
:100030005EC400005CC400005AC4000058C4000044
:1000400056C4000054C4000052C4000050C4000054
:100050004EC400004CC400004AC4000048C4000064
:1000600046C4000044C4000042C4000040C4000074
:100070003EC400008CC500003AC4000038C4000033
:1000800036C4000034C4000032C4000030C4000094
:100090002EC400002CC400002AC4000028C40000A4
:1000A00026C4000024C4000022C400000501090485
:1000B000A10185010901A1000930093109321600A9
:1000C000FE26FF01350046FF0395037510810209E6
:1000D000351500253F3500452E95017506810275C1
:1000E0000295018101650009330934150025FF459A
:1000F000FF7508750895028102C009361580257FB5
:1001000045FF750895018102050209BB15C0253F11
:10011000457F750895018102050919012908150017
:1001200025014501750195088102190929107501FC
:100130009508810205010939950175041500250707
:10014000463B0165148142750495018101550065A6
:1001500000050F0992A1028502099F09A009A409BF
:10016000A509A615002501350045017501950581F4
:100170000295038103099415002501350045017599
:1001800001950181020922150125283501452875AF
:100190000795018102C00921A102850109221501EB
:1001A0002528350145287508950191020925A102E8
:1001B0000926092709300931093209330934094070
:1001C0000941094209430928250C15013501450C4F
:1001D000750895019100C009500954095115002670
:1001E000FF7F350046FF7F66031055FD75109503B0
:1001F000910255006600000952150026FF003500E7
:1002000046102775089501910209531501250835F7
:100210000145087508950191020955A102050109DA
:1002200030093115002501750195029102C0050FB5
:10023000095695019102950591030957A1020B01F9
:10024000000A000B02000A0066140055FE15002685
:10025000B400350047A08C000066000075089502C8
:1002600091025500660000C0050F66031055FD158C
:100270000026FF7F350046FF7F7510950166000060
:100280005500C0050F095AA1028502092215012552
:100290002835014528750895019102095B095D150E
:1002A0000026FF00350046102795029102095C09DF
:1002B0005E66031055FD26FF7F46FF7F7510910295
:1002C00045006600005500C0095FA10285030922B0
:1002D0001501252835014528750895019102092346
:1002E0001500250135004501750495019102095855
:1002F000A1020B01000A000B02000A007502950220
:100300009102C01580257F36F0D846102709607508
:10031000089501910236F0D84610270961950191A0
:1003200002150026FF003500461027096309647591
:100330000895024610279501C0096EA1028504099F
:1003400022150125283501452875089501910209D6
:1003500070150026FF00350046102775089501919D
:1003600002096F1580257F36F0D846102795019138
:1003700002097166140055FE150026FF003500477E
:10038000A08C00009102097226FF7F46FF7F660362
:100390001055FD7510950191026600005500C009C9
:1003A00073A1028505092215012528350145287507
:1003B000089501910209701601FF26FF0036F0D85A
:1003C000461027751095019102C00974A102850697
:1003D0000922150125283501452875089501910246
:1003E000097509761580257F36F0D84610277508DF
:1003F00095029102C00968A102850709221501250D
:100400002835014528750895019102096C150026CB
:1004100010273500461027751095019102096915BE
:1004200081257F350046FF007508950C920201C0BA
:100430000966A10285080501093009311581257F6A
:10044000350046FF00750895029102C0050F097737
:10045000A102850A092215012528350145287508BC
:10046000950191020978A1020979097A097B1501A0
:100470002503750895019100C0097C150026FF0031
:10048000350046FF009102C00990A102850B0922A8
:100490002528150135014528750895019102C009E7
:1004A00096A102850C099709980999099A099B094F
:1004B0009C15012506750895019100C0097DA102D2
:1004C000850D097E150026FF0035004610277508AA
:1004D00095019102C0096BA102850E092215012523
:1004E0002835014528750895019102096D150026EA
:1004F000FF00350046FF007508950191020951661D
:10050000031055FD150026FF7F350046FF7F75104F
:10051000950191025500660000C009ABA102850556
:100520000925A102092609270930093109320933B1
:10053000093409400941094209430928250C1501DC
:100540003501450C75089501B100C00501093B1541
:100550000026FF01350046FF01750A9501B10275BD
:1005600006B101C0050F0989A102850609222528C7
:1005700015013501452875089501B102098BA102C5
:10058000098C098D098E2503150135014503750870
:100590009501B100C009AC150027FFFF0000350030
:1005A00047FFFF000075109501B100C0097FA1024F
:1005B00085070980751095011500350027FFFF009C
:1005C0000047FFFF0000B102098326FF0046FF003D
:1005D00075089501B10209A909AA750195021500CE
:1005E000250135004501B10275069501B103C0C072
:1005F00012011001EF020108EB034E20010001027D
:10060000000109026600030100C032090400000273
:100610000300000009211101000122440507050221
:100620000340000107058103400001080B0102029D
:10063000020100090401000102020100052400106A
:1006400001042402060524060102070585030800AB
:10065000FF09040200020A0000000705040210005E
:100660000107058302100001040309041803440074
:10067000650061006E002000430061006D006500B0
:1006800072006100000026034C0055004600410046
:1006900020004A006F007900730074006900630055
:1006A0006B00200077004600460042000000205307
:1006B000696E65732064697361626C65640A002009
:1006C000547269616E676C65732064697361626CF2
:1006D00065640A0020436F6E7374616E74732064E6
:1006E000697361626C65640A0020537072696E6799
:1006F000732064697361626C65640A0045666665AF
:100700006374733A0A0020203D20536574436F6E72
:1007100074726F6C4C696E6553746174650020204F
:100720003D205365744C696E65456E636F64696EF8
:10073000670020203D204765744C696E65456E63F7
:100740006F64696E67004374726C526571287661DC
:100750006C2C6964782C726571293A0053746F703F
:10076000206D616E75616C3A000A20206761696EC8
:100770003D000A20206661646554696D653D002076
:10078000206475726174696F6E3D002028456E614A
:10079000626C6564290A00202844697361626C6593
:1007A00064290A002046726565002053656E740056
:1007B00020506C6179696E670A0020416C6C6F6330
:1007C0006174656400203D3E204D6964693A0044CF
:1007D0006576696365204761696E3A20004F7468E9
:1007E00065722000426C6F636B20467265653A202B
:1007F000002053746F7000205374617274536F6CD7
:100800006F00205374617274002020656E64202094
:100810003D00202073746172743D00202069643DA6
:10082000005365742052616D7020466F7263653AA3
:10083000002020706572696F642020203D00202018
:100840007068617365202020203D0020206F66665F
:100850007365742020203D0020206D61676E6974EF
:100860007564653D00202069643D00536574205027
:100870006572696F6469633A004765745265706FA9
:1008800072742050494420506F6F6C20466561742B
:100890007572653A0A20203D3E205573623A004346
:1008A0007265617465204E65772045666665637480
:1008B0003A0A2020000011241FBECFEFDAE0DEBF8D
:1008C000CDBF12E0A0E0B1E0E0EFF5E302C005909B
:1008D0000D92A03FB107D9F716E0A0EFB2E001C03A
:1008E0001D92A339B107E1F760D60C94F61A88CBB4
:1008F0005F935FB75F9357EE56BD4F93AF93BF9330
:10090000B6E0A091560650915706452F5395509347
:10091000570653B15295507E477069F04530B9F093
:10092000423069F04330F1F04630E9F04130E1F017
:100930004430D9F01BC0529556955E931AC0550F9E
:100940004C91542B5C935527551F5E9312C057FB57
:10095000550F550F4C91542B5C935527551F51F94A
:100960005E9307C056955695569556954C91542BC7
:100970005C93A0935606BF91AF914F915F915FBF7B
:100980005F911895DC0154E0A50F5C91509550FBE8
:100990005095A1503C913695579550937E0642E074
:1009A000340F33705C91A1504C91469557955C7F04
:1009B000532B50937F0638E0430F4F70A2505C9149
:1009C000550F550F5051507F542B509380063C913A
:1009D00042E0340F3370A3954C91407F342B329515
:1009E000330F330F54E0A50F5C9150955695379512
:1009F000569537953093810656F9A3504C9145FB97
:100A000057F950938206A1505C9138E0530F5F7004
:100A1000440F551F440F551F509383060895DC0162
:100A200045E0A40F5C91A395A3953C913873330FD7
:100A30003295550F369557954EEF340F33705093CE
:100A40007E064C914770A3505C91550F4695579583
:100A50002EEF420F4370550F441F550F441F532B69
:100A600050937F06342FA2505C91A3954C9148710E
:100A7000550F440F429546955795409540FB52952A
:100A8000452F407F432B409380065F7054F9352FEC
:100A9000A3505C91507747E0A40F4C9146FB57F967
:100AA000505157FB550F532B50938106332730F984
:100AB000AA955C91A3504C9146FB57F95095442759
:100AC000550F441F532B50938206342FA2505C9134
:100AD000A395A3954C914770550F469557952EEFCA
:100AE000420F437057FB550F532B50938306440F0F
:100AF00040F9409384060895482F362F8827F894AC
:100B0000E09AE89A2227189B2FEF51E053BD5CE949
:100B100056BDA89A2093570656E5509356067894EA
:100B20002498259850E05A95F1F7249A259A5091E7
:100B30005706521719F4A89BFACF089550915706FB
:100B4000521B250F231728F444238AF7450F7AF305
:100B5000E7CF83950895D0DF882371F05091570631
:100B6000563151F4F8945527509357065091560634
:100B700053955093560678940895DC0101C06D9307
:100B800041505040E0F7089581E090E008951F92B1
:100B90000F920FB60F9211248F9381E08093F00291
:100BA0008F910F900FBE0F901F901895CF93DF93EA
:100BB000EB0183E085BD0E9473148091F0028823CD
:100BC000C9F11092F0028091F102813069F0813018
:100BD00028F0843089F08530C9F414C08091790000
:100BE0008093F20281E005C0809179008093F30246
:100BF00084E08093F1020CC0809179008093F4022C
:100C000085E0F7CF809179008093F5021092F10290
:100C100080917C00887F80937C0090917C00809103
:100C2000F1028770892B80937C0080917A00806428
:100C300080937A0081E0888380917F0690E08370C2
:100C40009070382F222780917E06280F311D3A831D
:100C5000298380917F0681FF03C03C6F3A832983FB
:100C600080918006282F30E02F70307046E0220FF0
:100C7000331F4A95E1F780917F0686958695280F68
:100C8000311D3C832B838091800683FF03C03C6F22
:100C90003C832B83209181062295269526952370EF
:100CA0008091820690E08F779070880F991F880F4F
:100CB000991F820F911D9D878C8780918006829558
:100CC0008F708E87809181068F7380528F83909171
:100CD00083069F73990F80918206881F8827881F3B
:100CE000980F9B878091830685FF02C0906C9B873D
:100CF0001E821D828091F5022091F40290E0821BF9
:100D0000910962E070E00E94E31A60586A8780915E
:100D1000F30288878091F202898781E090E0DF9179
:100D2000CF9108950E943D1486E08093580683E099
:100D30008093810085E085BD26E02150822F90E0E0
:100D4000FC01E258F94FE081DC01A65AB94F8C91C1
:100D50008E13EC93222389F788EE93E0DBD40E9474
:100D60006C1110BA80917A00876080937A0080912C
:100D70007C00806480937C0080917C008062809302
:100D80007C0080917A00806880937A0080917A005C
:100D9000886080937A0080917A00806480937A00E2
:100DA0000895CF92DF92EF92FF920F931F93DF93FC
:100DB000CF9300D0CDB7DEB7282F6A836A01933076
:100DC000F1F0943030F4913061F0923009F04FC07E
:100DD0000FC0913251F1923269F1943009F047C05D
:100DE00030C070EFE72E75E0F72E02E110E043C04F
:100DF00062E0E62E66E0F62E06E610E03CC08130AA
:100E000049F0813018F0823091F50BC0E8E6F6E049
:100E1000849103C0ECE6F6E08491082F10E07F0196
:100E20002AC0E6E8F6E08491F8CF54E1E52E56E0DA
:100E3000F52E1AC04CEAE42E40E0F42E04E415E04E
:100E40001AC08A81882329F43BE0E32E36E0F32E92
:100E50000BC0813029F091E5E92E96E0F92E04C00F
:100E600083E3E82E86E0F82E09E010E004C0EE24CB
:100E7000FF2400E010E02983CE01019661E070E0DC
:100E80000E949514CE01029661E070E00E949614D3
:100E9000F601F182E082C8010F900F90CF91DF91AF
:100EA0001F910F91FF90EF90DF90CF9008955E9A81
:100EB00008955E980895AF92BF92CF92DF92EF921D
:100EC000FF920F931F93DF93CF93CDB7DEB7A19718
:100ED0000FB6F894DEBF0FBECDBF10918A06143056
:100EE00009F01FC10E94A1141093E9008091E8004D
:100EF00082FF17C15E9A84EF91E020E931E0F901A9
:100F00003197F1F70197D9F75E9884EF91E020E9E6
:100F100031E0F9013197F1F70197D9F7CC24DD24BD
:100F200082E0A82EB12CAC0EBD1E0EC00894C11CD0
:100F3000D11CC80161E070E040E050E00E94601701
:100F40000F5F1F4F853091F32091F3008091F200E5
:100F5000F22EEE2490E08E299F29892B41F080E229
:100F6000C816D10420F485010C0D1D1DDFCF809122
:100F7000E8008B778093E80019828A81843409F431
:100F8000C9C0853440F5883209F4A3C0893298F489
:100F9000833209F494C0843238F4813209F48BC06E
:100FA000823209F0BEC089C0853209F48CC0863215
:100FB00009F0B7C08AC08A3350F4813308F078C092
:100FC000893209F488C08F3209F0ABC080C0833405
:100FD00009F0A7C065C0843609F495C0853698F439
:100FE000843509F462C0853538F48D3409F47CC049
:100FF000833509F096C04FC0853509F47FC083362C
:1010000009F08FC04BC0833709F443C0843730F4F4
:101010008C3671F08D3609F084C061C0853709F4D3
:1010200068C0853708F43FC0843A09F07AC049C0E7
:101030008CEF96E00E9493148E010F5F1F4F02C049
:101040000E94A114C8010E940B118823C9F7809146
:101050006606882321F089EE96E00E949314809121
:101060006706882321F084ED96E00E949314809116
:101070006806882321F08FEB96E00E9493148091FC
:101080006906882309F44DC08EEA96E00E94931405
:1010900048C080E001C081E0ACD343C080E001C023
:1010A00081E0AED33EC080E001C081E0B0D339C062
:1010B000805360E012C081E00FC082E00DC083E089
:1010C0000BC084E009C085E007C086E005C087E06A
:1010D00003C088E001C089E061E03BD722C0909165
:1010E000EE028091EB0213C08091EE029091EB0230
:1010F00015C09091EE028091EC0209C08091EE0241
:101100009091EC020BC09091EE028091ED028095DF
:10111000892305C08091EE029091ED02892B809386
:10112000EE02A1960FB6F894DEBF0FBECDBFCF91F1
:10113000DF911F910F91FF90EF90DF90CF90BF90C4
:10114000AF9008956F927F928F929F92AF92BF92CD
:10115000DF92EF92FF920F931F93DF93CF93CDB760
:10116000DEB7C054D0400FB6F894DEBF0FBECDBF7F
:1011700080918A06843009F084C081E08093E90080
:101180008091E80080FF13C0809100018E010F5F05
:101190001F4FB8010BDDC8016FE070E040E050E088
:1011A0000E94B2178091E8008E778093E80082E079
:1011B0008093E9008091E80082FF63C05E9ADD249D
:1011C0005E010894A11CB11C32E0632E712C6C0EE0
:1011D0007D1E20EA822E2FE0922E3FC0C50161E0E5
:1011E00070E040E050E00E9460178530B9F3D3947E
:1011F000E981F0E0EE0FFF1FED53FE4F00811181FA
:1012000001501040C8018D0D911D8034910598F05A
:1012100020E931E05E9888EE93E0F9013197F1F72B
:101220000197D9F75E9A88EE93E0F9013197F1F7CB
:101230000197D9F7EFCFC301B80140E050E00E9419
:1012400060178530C1F3D00E0F5F1F4FC501B80185
:101250000E94B113C4010197F1F72091F30080912E
:10126000F200F22EEE2490E08E299F29892B21F0A6
:101270008FE38D1508F0B2CF8091E8008B778093D3
:10128000E800C05CDF4F0FB6F894DEBF0FBECDBFE5
:10129000CF91DF911F910F91FF90EF90DF90BF9062
:1012A000AF909F908F907F906F900895EF92FF92F4
:1012B0000F931F93DF93CF93CDB7DEB764970FB62D
:1012C000F894DEBF0FBECDBF80918F06909190063F
:1012D000019719F0EE24FF2404C045E1E42E41E01B
:1012E000F42E8091EE020091ED028023B1F086E4AD
:1012F00097E00E9493148DE896E062E070E00E940F
:1013000095148FE896E062E070E00E9495148CE8F6
:1013100096E061E070E00E94961480918C06803225
:1013200009F497C0813230F4813059F0893009F0E6
:10133000BFC032C0813209F471C0823209F0B8C036
:10134000A4C08091EE02802321F081E091E00E9410
:10135000921480918B06813A09F0AAC05E9A80911E
:101360008D0690918E0623E08730920739F48E0126
:101370000F5F1F4FC8010E94C6113FC08E010A5F58
:101380001F4FB80113DC8091E800877F8093E8004D
:10139000C8016FE070E039C08091EE02802321F037
:1013A0008BE091E00E94921480918B06813209F0CB
:1013B0007FC05E9A8091E800877F8093E8008E016D
:1013C0000A5F1F4F6091910670919206C8010E94BA
:1013D000B2160E94D71480918D0690918E0685508A
:1013E0009340D1F480ED97E00197F1F7C8018E01A9
:1013F0000F5F1F4FB8010E941B138091E800877F89
:101400008093E800C80165E070E00E944C1680916E
:10141000E8008B778093E8005E984AC08091EE02E6
:10142000802321F082E397E00E94931480918B0641
:10143000813A09F03DC08091E800877F8093E80001
:10144000C70167E070E00E944C168091E8008B773E
:1014500019C08091EE02802321F08EE197E00E9476
:10146000931480918B06813219F58091E800877F73
:101470008093E800C70167E070E00E94B216809197
:10148000E8008E778093E80013C08091EE028023FD
:1014900021F086E097E00E94931480918B068132C0
:1014A00039F48091E800877F8093E8000E94D71488
:1014B00064960FB6F894DEBF0FBECDBFCF91DF911B
:1014C0001F910F91FF90EF900895CF92DF92EF92CE
:1014D000FF920F931F9381E061EC42E30E94A214FC
:1014E000082F82E060EC42E30E94A214C82E83E041
:1014F00061E842E10E94A214E82E84E060E842E143
:101500000E94A21410E0DD240C211D210170107036
:10151000FF240E211F2120E030E0012B11F021E0FB
:1015200030E0082F10E00223132385E061EC42E055
:101530000E94A21410921501109216011092170128
:101540001092180120E030E0012B11F021E030E092
:1015500090E028233923232B11F490E401C090E07C
:101560008BB18F7B982B9BB91F910F91FF90EF90C0
:10157000DF90CF90089584B7877F84BF88E10FB64E
:10158000F89480936000109260000FBE80E090E0BD
:1015900020E80FB6F89420936100809361000FBE9D
:1015A000569A5E98BFDB0C946E15E5DF5E987894D2
:1015B00008C05E9A8CE291E0ADD05E988CE291E03A
:1015C000A9D0E2DA892BA9F3BDDD0E94A11473DC56
:1015D0000E94A1140E9473190E94A114F2CF8531B8
:1015E00080F4282F30E085E290E0289FF001299FC9
:1015F000F00D389FF00D1124EA50FD4F808182607C
:1016000080830895853180F4282F30E085E290E0D2
:10161000289FF001299FF00D389FF00D1124EA500A
:10162000FD4F80818D7F808308951F9311E0812F6E
:10163000E9DF1F5F1531D9F71F910895482F8531D4
:10164000A0F4282F30E085E290E0289FF001299F48
:10165000F00D389FF00D1124EA50FD4F108280915B
:10166000BC01481710F44093BC010895FC0120E030
:1016700090E003C08191280F9F5F9617D8F3922FB7
:101680009F7719F080E8891B982F892F08952FEFF5
:101690008F3F920719F420E030E008C09C013070C1
:1016A0003695279580709F77280F391FC9010895B7
:1016B000282F332727FD309587FF02C02058304858
:1016C000C9010895689FB0011124672F770F770B28
:1016D00065956595862F8F7708952498259890EACB
:1016E000892F8A95F1F78AE6282F2A95F1F7249A0F
:1016F000259A282F2A95F1F7292F2A95F1F7282FD7
:101700002A95F1F7292F2A95F1F78A95F1F79A95FD
:10171000F1F70895AF92BF92CF92DF92EF92FF92CE
:101720000F931F93A8959C0140E65AEE4DC02031BF
:10173000310534F0CA010197F1F72F50304044C011
:10174000B901882777FD8095982F0E94B8195B0111
:101750006C0120E030E04AE755E40E94441A7B0126
:101760008C0120E030E040E85FE30E948619882386
:101770001CF461E070E024C0C801B70120E03FEF35
:101780004FE757E40E94401A1816B4F4C601B50199
:1017900020E030E040E251E40E94441A0E948A199D
:1017A00080E991E005C0FC013197F1F7615070408C
:1017B00061157105C1F70CC0C801B7010E948A19F3
:1017C000CB010197F1F704C0121613060CF4AFCF4A
:1017D0001F910F91FF90EF90DF90CF90BF90AF904F
:1017E0000895982F8091C80085FFFCCF9093CE007C
:1017F000089590E0882309F491E090936606089597
:1018000090E0882309F491E090936706089590E0B2
:10181000882309F491E0909368060895EF92FF926F
:101820000F931F93CF93DF937C018B018091EE0286
:10183000882341F085EC97E00E949314C701B8011A
:101840000E949614C0E0D0E006C0F701EC0FFD1F27
:101850008081C7DF2196C017D107B8F3DF91CF9100
:101860001F910F91FF90EF90089584E690E052DF72
:1018700034DF80E69DE60197F1F72FDF2EDF2DDFC5
:101880002CDF83E290E046DF28DF27DF26DF8EE0D3
:1018900090E040DF22DF21DF8EE490E03BDF1DDFC0
:1018A0001CDF80E89EE30197F1F717DF16DF15DFF5
:1018B0008BE390E02FDF11DF10DF8DE792E062E035
:1018C00070E0ACDF84E190E025DF8FE792E069E033
:1018D00070E0A4DF89E390E01DDF88E892E063E335
:1018E00070E09CDF8BEB92E063E270E097DF86E4D0
:1018F00090E010DF8EED92E068E070E08FDF86E42C
:1019000090E008CFEF92FF920F931F93DF93CF9356
:1019100000D00F92CDB7DEB78A0195EB99836A8329
:101920008B837E010894E11CF11CC70163E070E029
:1019300075DF85EA8983802F8F778A8300701F7710
:101940001B83C70163E070E069DF0F900F900F9079
:10195000CF91DF911F910F91FF90EF9008951F930A
:10196000CF93DF93FC01118185E2189FE0011124E0
:10197000CA50DD4F828189878281938197FD06C09D
:101980006D81A0DE8B8F8FE790E006C06D81809522
:1019900099DE8B8F81E091E09AA389A31CA21BA200
:1019A000212F30E085E290E0289FF001299FF00D83
:1019B000389FF00D1124EA50FD4F808182FF0AC04C
:1019C0004B8D812F64E750E09DDF49A15AA1812F03
:1019D0006CE798DFDF91CF911F910895CF92DF924E
:1019E000FF920F931F93CF93DF938C01FC01F18043
:1019F000CF2CDD2485E290E0C89E9001C99E300D79
:101A0000D89E300D1124F901EA50FD4F83858D30A9
:101A100008F47CC0803120F0803109F077C049C0E3
:101A2000E901C050DD4FF8018281882351F484819F
:101A30003FDE98878F83F80183813ADE9C878B870E
:101A400012C0F801848134DE9A878987F801838186
:101A5000803829F48FE790E09E878D8704C08195B8
:101A600027DE9E878D8785E290E0C89EF001C99EA3
:101A7000F00DD89EF00D1124EA50FD4F808182FFB9
:101A800045C0F8018281882351F44F8158858F2DFC
:101A900068E438DF4B855C858F2D60E536C049856D
:101AA0005A858F2D6CE42EDF4D855E858F2D64E584
:101AB0002CC0E901C050DD4FF8018281882329F450
:101AC0008481F6DD98878F8305C0F8018481F0DD7D
:101AD0009A87898785E290E0C89EF001C99EF00D43
:101AE000D89EF00D1124EA50FD4F808182FF0EC078
:101AF000F8018281882329F44F8158858F2D68E46D
:101B000004C049855A858F2D6CE4FCDEDF91CF91AE
:101B10001F910F91FF90DF90CF900895FF920F9348
:101B20001F93CF93DF938C01FC01F18085E2F89E37
:101B3000E0011124CA50DD4F82818F838381888721
:101B4000868197819C838B836D818281BBDD888FA9
:101B50006D81F8018381B6DD8E8FF80184819581D6
:101B600096DD9A8F898FF801868197818F5F9F47D5
:101B700019F41D8E1C8E16C02F2D30E085E290E0EA
:101B8000289FF001299FF00D389FF00D1124EA5095
:101B9000FD4F8181928123813481821B930B77DDFC
:101BA0009D8F8C8F2F2D30E085E290E0289FF001F3
:101BB000299FF00D389FF00D1124EA50FD4F8081D0
:101BC00082FF14C04C8D5D8D8F2D60E69BDE498DAC
:101BD0005A8D8F2D6CE596DE4E8D8F2D6CE650E084
:101BE00091DE488D8F2D64E650E08CDEDF91CF9141
:101BF0001F910F91FF900895DF93CF9300D00F9224
:101C0000CDB7DEB795EB99836A838B83CE010196BE
:101C100063E070E003DE0F900F900F90CF91DF91A3
:101C20000895CF92DF92EF92FF920F931F93DF936D
:101C3000CF9300D0CDB7DEB7F82EE92ED62EC72E23
:101C400080EF89838E010F5F1F4FC80161E070E054
:101C5000E5DD86EE92E064E070E0E0DD8F2D9E2D04
:101C60006D2D7C2DDBDD8F2D9E2D6D2DFFDC8A8370
:101C7000CE01029661E070E0D1DD87EF8983C80173
:101C800061E070E0CBDD0F900F90CF91DF911F915D
:101C90000F91FF90EF90DF90CF9008956F927F9219
:101CA0008F929F92BF92CF92DF92EF92FF920F930B
:101CB0001F93CF93DF938C01DC011196DC90119779
:101CC000ED2CFF2485E290E0FC01EE9EC001EF9E2A
:101CD000900DFE9E900D1124F0E06F2EF3E07F2E0C
:101CE000680E791E13962D913C911497EC01CA5001
:101CF000DD4FFFE72F3F3F0719F41E861D8604C006
:101D0000C901C5DC9E878D87D80113968D919C9162
:101D1000149725E230E0E29EF001E39EF00DF29E82
:101D2000F00D1124EA50FD4F92838183808182FF60
:101D300005C0458556858D2D60E4E4DDF80182817E
:101D4000883030F4833058F4813008F4DFC00AC0A2
:101D50008B3008F4BFC08B3009F0D8C0C9C0CC2488
:101D6000C39401C0CC2485E2D89EE0011124CA505E
:101D7000DD4FEAE08E2E912C8C0E9D1ED8011C9614
:101D80008C911C9790E0880F991F9C0120783170EE
:101D9000220F331F8F779070280F391F3A8B298BB2
:101DA00013968D919C9114978F5F9F4729F08B819B
:101DB0009C818F5F9F4719F41D8E1C8E13C0298153
:101DC0003A818B819C818217930740F489819A81A3
:101DD0002B813C81821B930B5ADC02C08D859E8532
:101DE0009D8F8C8F85E290E0E89EF001E99EF00DDA
:101DF000F89EF00D1124EA50FD4F8581D801199607
:101E00009C911997BB24891789F1BB24B3949583BE
:101E10008F8119966C9156DC888F8885F8016185D1
:101E200051DC8E8FCC20E1F089856D814BDC182F41
:101E30008E81810F3DDC9AA389A38E81811B38DCC2
:101E40009CA38BA3888182FF11C049A15AA18D2D2B
:101E500064E758DD4BA15CA18D2D68E753DD06C01A
:101E60008985D80119966C912DDC8B8F85E290E0E5
:101E7000E89EF001E99EF00DF89EF00D1124EA5065
:101E8000FD4F808182FF1EC049895A898D2D68E4EB
:101E900039DD4C8D5D8D8D2D60E634DDBB20B1F1DB
:101EA0004E8D8D2D6CE650E02DDD488D8D2D64E638
:101EB00050E028DDCC2051F54B8D8D2D64E750E0AE
:101EC00021DD24C0C4016BE170E0ABDE8881846059
:101ED00088831CC085E290E0E89EF001E99EF00D49
:101EE000F89EF00D1124EA50FD4FE0816FE00FC025
:101EF00085E290E0E89EF001E99EF00DF89EF00D7D
:101F00001124EA50FD4FE0816BE001C06BE185E2F6
:101F100090E0E89EE001E99ED00DF89ED00D1124DE
:101F2000CA50DD4F888182FD06C0C30170E079DEB2
:101F3000888184608883DF91CF911F910F91FF90FA
:101F4000EF90DF90CF90BF909F908F907F906F9099
:101F50000895DF93CF930F92CDB7DEB78983282FF3
:101F600030E080E0662309F481E0F901EB59F94F94
:101F7000858385E290E0289FF001299FF00D389F2E
:101F8000F00D1124EA50FD4F8081823069F48CE518
:101F900097E0C9D4CE01019661E070E0C7D4898191
:101FA00031DB898160E328DE0F90CF91DF910895C6
:101FB0000F931F938C018FEC97E0B5D4C801019665
:101FC00061E070E0B3D41F910F910895DF92EF921A
:101FD000FF920F931F93DF93CF930F92CDB7DEB78E
:101FE0008C01FC018181898381E298E09CD4C80145
:101FF00064E070E09BD48BE198E095D4CE0101962B
:1020000061E070E093D482E198E08DD4C80102963B
:1020100061E070E08BD489E098E085D4C801039634
:1020200061E070E083D4D980ED2CFF24F801828137
:10203000282F332727FD309587FF03C02095309543
:10204000316085E290E0E89EF001E99EF00DF89E97
:10205000F00D1124EA50FD4F32A321A3F801838132
:1020600027DB9C0185E290E0E89E8001E99E100D4F
:10207000F89E100D11240A501D4FF80134A323A31C
:10208000808182FF0BC041A152A18D2D68E73ADC0F
:10209000F80143A154A1898164E734DC0F90CF910A
:1020A000DF911F910F91FF90EF90DF900895CF92F5
:1020B000DF92EF92FF920F931F93DF93CF930F92D4
:1020C000CDB7DEB77C01FC01818189838BE698E086
:1020D0002AD4C70167E070E029D485E698E023D4CC
:1020E000CE01019661E070E021D488E598E01BD430
:1020F000C701029661E070E019D48BE498E013D434
:10210000C701039661E070E011D48EE398E00BD430
:10211000C701049661E070E009D481E398E003D43C
:10212000C701059662E070E001D4C98085E2C89ECF
:10213000800111240A501D4FF7018281F801818727
:102140008FE790E092A381A381E091E094A383A321
:10215000F70165817681F3E0683E7F0710F081E04A
:1021600004C06A30710520F48FE6F801878F07C03C
:1021700088EE93E00E94CF1A6F77F801678FF8011D
:102180008385823019F08385833091F5F70184814E
:102190008052813C10F483E001C082E0F801838723
:1021A000F8016581F70182818DDAD82EF7018381EC
:1021B00087FD8F5F85958D0D7BDAF80192A381A352
:1021C000F701838187FD8F5F85958D1971DAF8019D
:1021D00094A383A3808182FF0BC041A152A18C2DC7
:1021E00064E790DBF80143A154A1898168E78ADBA9
:1021F000F801808182FF05C0478D898160E750E04A
:1022000081DB0F90CF91DF911F910F91FF90EF90A5
:10221000DF90CF9008950F931F93CF93DF938C019E
:10222000DC018C91882311F482E08C93F801908179
:10223000943110F080E04BC085E2989FE0011124BA
:10224000CA50DD4FC80161E070E06FD388818130F2
:1022500019F48AEB97E00CC0823019F480EB97E018
:1022600007C0843019F48AEA97E002C084EA97E054
:102270005AD3D801EC91F0E0EB59F94F85818823CE
:1022800019F087E997E002C08BE897E04CD388818A
:102290008823C1F08FE797E046D3CE01019662E034
:1022A00070E043D382E797E03ED3CE01039662E02D
:1022B00070E03BD389E697E036D3CE01059661E026
:1022C00070E033D3F80180818F5F808381E0DF91FC
:1022D000CF911F910F91089525E636E0C90160E086
:1022E00070E049E150E00E94BD05539A1092C80089
:1022F0008FE190E09093CD008093CC0086E88093AE
:10230000CA0088E08093C9001092CE0026EF32E028
:10231000C90160E070E049E053E00E94BD0522E69B
:1023200036E0C90160E070E043E050E00E94BD0586
:1023300082E08093BC0199CA82E08093BC0126EFC1
:1023400032E0C90160E070E049E053E00C94BD0563
:10235000DF93CF930F92CDB7DEB7FC0181818983E4
:1023600084EE97E0E0D2CE01019661E070E0DED22B
:1023700089818F3F19F4E0DF8FE702C05FD989813F
:1023800060E13ADC0F90CF91DF9108950F931F9396
:102390008C0189E798E0C7D2CFDF87E0F80180831E
:1023A0008FEF9FEF928381838AE0838383E084832E
:1023B000C80165E070E0BAD21F910F9108951F9394
:1023C0008091BC01843111F410E03BC01091BC013C
:1023D0001F5F1093BC01115025E230E009C08091CD
:1023E000BC018431A0F48091BC018F5F8093BC015B
:1023F0008091BC0190E0829FF001839FF00D929F3D
:10240000F00D1124EA50FD4F8081882341F7212FE0
:1024100030E085E290E0A901489F9001499F300D8E
:10242000589F300D1124F901EA50FD4F81E080835F
:1024300020503D4FC90160E070E04BE150E00E9448
:10244000BD05812F1F9108958CE191E06BC2CF9360
:10245000DF93EC01998182E08093620680916306AC
:102460008460809363068091630680618093630635
:1024700010926406913039F48DE291E053D280914C
:1024800063068E7F08C0923049F48FE391E04AD210
:102490008091630684608093630657C0933011F582
:1024A00080E591E03FD28FE092E062E070E0B6D943
:1024B0008EE591E020E931E0F9013197F1F70197DC
:1024C000D9F780E991E020E931E0F9013197F1F79E
:1024D0000197D9F781E192E068E070E09FD910920E
:1024E000640633C09430E1F481E691E01BD289E1C7
:1024F00092E062E070E092D98EE591E020E931E06F
:10250000F9013197F1F70197D9F780E991E020E9D6
:1025100031E0F9013197F1F70197D9F70DDF15C0D7
:10252000953019F487E691E004C0963021F48DE6E9
:1025300091E0F8D10AC0907C41F08DED97E0F3D1A5
:10254000CE01019661E070E0F1D1DF91CF91089565
:1025500086E791E0E7C180E991E0E4C10F931F9322
:10256000DF93CF930F92CDB7DEB78C01FC01818151
:102570008983CE01019661E070E0D7D189818F3FD8
:1025800011F48FE78983F80182818130B1F482E010
:1025900098E0CAD1CE01019661E070E0C7D1F801A0
:1025A00081811DD89981E92FF0E0EB59F94F8581A0
:1025B000882309F03AC0892F1CC08230E1F487EFEC
:1025C00097E0B2D132D8E981F0E0EB59F94F85813B
:1025D000882319F48FE760E30FDBF80181810E9403
:1025E000EF0AE981F0E0EB59F94F85818823E9F49E
:1025F0008FE760E213C0833099F481EF97E094D1C4
:10260000F80181810E94020B9981E92FF0E0EB59DA
:10261000F94F8581882349F4892F60E3EDDA05C0FD
:10262000C801029661E070E081D10F90CF91DF91F7
:102630001F910F9108950F931F93CF93DF938C01F8
:10264000EB018FE998E06FD1C80164E070E06ED1D2
:1026500086E08883B4DE982F8983882319F482E08A
:102660008A836BC021E02A8385E2989FD0011124E0
:10267000AA50BD4F8FEF9FE712969C938E931197B0
:1026800014969C938E9313978FEF15968C931597B2
:1026900016961C92169717968C93179718968C93EC
:1026A00018979FE75B969C935B975F962C935F9739
:1026B000F8018181E82FF0E0EE5FFD4F80811B96ED
:1026C0008C931B9758961C9258975A961C921E9260
:1026D00059975E961C925E975D961C921E925C972F
:1026E00083E21A968C931A971C969C931C9750968B
:1026F0001C921E921F9753969C93539784E6549670
:102700008C93549755961C92559780E156968C93CE
:1027100056978EE457968C9357971B968C911B97E0
:10272000823129F494961C921E92939706C081E000
:1027300091E094969C938E9393978FEF9FEF9C8359
:102740008B8386EA91E06881AE0125E030E0EFD02E
:1027500080E29EE40197F1F7DF91CF911F910F91F5
:102760000895CF93DF93EC019B015E9A8091EE0276
:102770009091ED02892331F080EB91E065EC71E0FE
:10278000AE01DED08881873099F1883078F48330CB
:1027900019F1843030F48130C9F0823009F03CC046
:1027A00018C08530F9F0863000F519C08B3049F13A
:1027B0008C3028F48830F9F08A3071F51FC08D30E4
:1027C00031F18D3008F18E3039F524C0CE0166DA52
:1027D00023C0CE01A3D920C0CE0100D91DC0CE0197
:1027E00066DC1AC0CE01BBD817C0CE01EFDB14C027
:1027F000CE01B1DE11C0CE01ABDE0EC0CE01AEDE29
:102800000BC0CE01A5DD08C0CE0121DE05C0CE0182
:10281000CFDB02C0CE0118DE5E98DF91CF91089524
:1028200023B5216023BD909385008093840081E0CF
:1028300086BBB09BFECF0895FC01918182819827D1
:10284000808198278381982784819827858198277C
:10285000892F82958F708927982F9695969598271E
:10286000892F86958927817008955E9A81EC9FEF64
:10287000D7DF5E9883E89FEFD3CF1DB880E48EB991
:1028800010BA83EF81BB93E095BD85E08093810012
:10289000909369008BEC93EFC3DFE7DF8BEC93EF52
:1028A000BFDF80E06EE70E947C05DFDF8091570686
:1028B00080915706813121F080915706813389F448
:1028C00083B18091570680E596E0B6DF882349F012
:1028D00083E080938506E898F8948FE08093FF0565
:1028E0000895E898DACF80E060E10E947C05E898DE
:1028F000882361F4809100068F5F809300068B30FF
:1029000080F0F89480E28093D800FFCF1092000608
:1029100080E596E091DF882321F080E596E00C9435
:10292000C204089508950895089508950895DF93C1
:10293000CF930F92CDB7DEB70F90CF91DF9108956F
:1029400008950895382F282F2CC02093E9002317CD
:1029500021F4762F942F50E006C07091EC009091F6
:10296000ED005091F00091FF1BC08091EB008E7F35
:102970008093EB008091ED008D7F8093ED0080913E
:10298000EB0081608093EB007093EC009093ED007E
:102990005093F0008091EE0087FD02C080E0089522
:1029A0002F5F273090F23093E90081E00895809105
:1029B0008B0688239CF404C080918A068823B9F092
:1029C0008091E80082FFF8CF8091E8008B778093B8
:1029D000E800089580918A06882349F08091E800F4
:1029E00080FFF8CF8091E8008E778093E80008950B
:1029F0004091E4005091E50024E68091EC0080FFD6
:102A000024C08091E80080FD1EC080918A06882342
:102A100011F482E00895853011F483E008958091E7
:102A2000EB0085FF02C081E008958091E400909161
:102A3000E5008417950709F3222311F484E0089533
:102A40002150AC01DACF80E008958091E80082FF48
:102A5000DCCFF9CFEF92FF920F931F934AD051D062
:102A600008ED10E0F80180818F7780838081806895
:102A7000808380818F7D808319BC10928A0610929A
:102A80008606109288061092870680EEE82EF12CBA
:102A9000F70180818B7F8083F80180818160808352
:102AA00080E060E042E04EDFE1EEF0E080818E7F8A
:102AB0008083E2EEF0E080818160808380818860A5
:102AC0008083F70180818E7F8083F801808180611F
:102AD00080831F910F91FF90EF900895E7EDF0E054
:102AE00080818160808384E082BF81E08093890659
:102AF000B1CFE8EDF0E080818E7F80831092E2001C
:102B000008951092DA001092E10008951F920F923A
:102B10000FB60F9211242F933F934F935F936F93B0
:102B20007F938F939F93AF93BF93EF93FF93809186
:102B3000E10082FF0AC08091E20082FF06C080911E
:102B4000E1008B7F8093E100CDD38091DA0080FF9C
:102B50001FC08091D80080FF1BC08091DA008E7F5B
:102B60008093DA008091D90080FF0DC080E189BD9B
:102B700082E189BD09B400FEFDCF81E080938A0621
:102B80000E94570705C019BC10928A060E94590777
:102B90008091E10080FF18C08091E20080FF14C0A6
:102BA0008091E2008E7F8093E2008091E20080615C
:102BB0008093E2008091D80080628093D80019BC95
:102BC00085E080938A068ED38091E10084FF2DC03A
:102BD0008091E20084FF29C080E189BD82E189BD46
:102BE00009B400FEFDCF8091D8008F7D8093D8007E
:102BF0008091E1008F7E8093E1008091E2008F7EE2
:102C00008093E2008091E20081608093E2008091F5
:102C10008606882331F48091E30087FD02C081E0BD
:102C200001C084E080938A065DD38091E10083FF38
:102C300022C08091E20083FF1EC08091E100877F67
:102C40008093E10082E080938A061092860680914C
:102C5000E1008E7F8093E1008091E2008E7F80937F
:102C6000E2008091E20080618093E20080E060E019
:102C700042E068DE37D3FF91EF91BF91AF919F9112
:102C80008F917F916F915F914F913F912F910F9015
:102C90000FBE0F901F9018959C0140919106509186
:102CA00092064617570718F4F90190E045C06115E0
:102CB000710511F0AB01F8CF8091E8008E77809319
:102CC000E80040E050E0F0CF80918A06882309F4C4
:102CD00045C0853009F444C08091E80083FF02C0FC
:102CE00081E008958091E80082FD32C08091E80083
:102CF00080FF22C08091F3009091F200782F60E075
:102D0000292F30E0262B372B07C081918093F100CB
:102D1000415050402F5F3F4F4115510519F0283069
:102D2000310598F390E02830310509F491E0809165
:102D3000E8008E778093E8004115510529F6992324
:102D400019F606C080918A06882341F0853041F04B
:102D50008091E80082FFF6CF80E0089582E0089538
:102D600083E008959C016115710529F48091E800C4
:102D70008B778093E800F90127C080918A06882329
:102D800099F1853099F18091E80083FF02C081E0DC
:102D900008958091E80082FFF0CF06C08091F10095
:102DA00081936150704059F02091F3008091F200BE
:102DB000322F20E090E0822B932B892B79F78091A2
:102DC000E8008B778093E80061157105B1F606C0C5
:102DD00080918A06882341F0853041F08091E80097
:102DE00080FFF6CF80E0089582E0089583E00895A3
:102DF0009C0140919106509192064617570718F48E
:102E0000F90190E046C06115710511F0AB01F8CFF2
:102E10008091E8008E778093E80040E050E0F0CFAA
:102E200080918A06882309F447C0853009F446C09A
:102E30008091E80083FF02C081E008958091E8005E
:102E400082FD34C08091E80080FF23C08091F300B0
:102E50009091F200782F60E0292F30E0262B372B5D
:102E600008C084918093F1003196415050402F5F0B
:102E70003F4F4115510519F02830310590F390E08E
:102E80002830310509F491E08091E8008E77809335
:102E9000E8004115510521F6992309F0C1CF06C07C
:102EA00080918A06882341F0853041F08091E800C6
:102EB00082FFF6CF80E0089582E0089583E00895D0
:102EC000BF92CF92DF92EF92FF920F931F93CF9317
:102ED000DF93182F092F7B016A018ADDB82E882322
:102EE000B1F5812F902F9C01E901C114D10439F073
:102EF000F60180819181E81AF90AC80FD91F00E014
:102F000010E022C08091E80085FD16C08091E800A5
:102F10008B778093E800E7D1C114D10449F0F60122
:102F200080819181800F911F9183808385E010C003
:102F30005FDD882349F00CC08091F10089930894EB
:102F4000E108F1080F5F1F4FE114F104D9F68B2D52
:102F5000DF91CF911F910F91FF90EF90DF90CF9075
:102F6000BF900895BF92CF92DF92EF92FF920F939E
:102F70001F93CF93DF93182F092F7B016A0138DD50
:102F8000B82E8823B1F5812F902F9C01E901C1143F
:102F9000D10439F0F60180819181E81AF90AC80F4D
:102FA000D91F00E010E022C08091E80085FD16C026
:102FB0008091E8008E778093E80095D1C114D10408
:102FC00049F0F60180819181800F911F9183808368
:102FD00085E010C00DDD882349F00CC089918093F5
:102FE000F1000894E108F1080F5F1F4FE114F104AC
:102FF000D9F68B2DDF91CF911F910F91FF90EF901C
:10300000DF90CF90BF9008950F931F93DF93CF93DE
:10301000CDB7DEB7AC970FB6F894DEBF0FBECDBF0D
:10302000EBE8F6E08091F100819326E0E339F207C6
:10303000C9F70E9456098091E80083FF3AC1809148
:103040008B0630918C06353009F487C0363040F459
:103050003130C9F1313070F0333009F02AC133C05A
:10306000383009F4F7C0393009F406C1363009F0B8
:1030700020C197C0803821F0823809F01AC108C0F9
:103080009091870680918806882399F0926011C0FC
:1030900080918F068F708093E9008091EB0090E023
:1030A00025E0969587952A95E1F7982F91701092D3
:1030B000E9008091E800877F8093E8009093F10019
:1030C0001092F100D2C0882319F0823009F0F1C0CB
:1030D00090E08F719070009721F0029709F0E9C09D
:1030E0000CC080918D06813009F0E3C010928806F3
:1030F000333069F5809388062AC080918D06882335
:1031000031F520918F062F7009F4D3C02093E90088
:103110008091EB0080FF1BC0333021F48091EB00E5
:10312000806213C08091EB0080618093EB0081E0AE
:1031300090E002C0880F991F2A95E2F78093EA0079
:103140001092EA008091EB0088608093EB0010926F
:10315000E9008091E800877F8BC0882309F0A9C02F
:1031600010918D061F770FB7F8948091E800877F44
:103170008093E8001CDC8091E80080FFFCCF809108
:10318000E3008078812B8093E30080688093E300E4
:10319000112311F482E001C083E080938A060FBFFF
:1031A00088C08058823008F084C080918D0690914C
:1031B0008E0623E08C3D920709F033C083E08C83B8
:1031C0008AE28B837FB7F894DE0115966EE040E0CB
:1031D00050E011E2E62FF0E010935700849140FF99
:1031E00003C082958F706F5F8F70282F30E08A3018
:1031F00018F0C901C79602C0C901C0968D939D936E
:103200004F5F5F4F4431510529F77FBF8091E80040
:10321000877F8093E800CE0103966AE270E03CDD90
:1032200013C060918F06AE014F5F5F4F0E94D106C1
:10323000BC01009709F43DC08091E800877F80932E
:10324000E80089819A81D4DD8091E8008B778093B2
:10325000E8002FC0803869F58091E800877F80936F
:10326000E800809186068093F1008091E8008E77D7
:103270008093E8009CDB1DC08823D9F490918D06D3
:103280009230B8F48091E800877F8093E8009093B3
:1032900086068DDB80918606882331F48091E300D9
:1032A00087FD02C081E001C084E080938A060E940D
:1032B000650A8091E80083FF0AC08091EB0080627C
:1032C0008093EB008091E800877F8093E800AC96C4
:1032D0000FB6F894DEBF0FBECDBFCF91DF911F9127
:1032E0000F91089508951F9380918A06882361F0B5
:1032F0001091E9001092E9008091E80083FF01C07D
:1033000083DE1F701093E9001F9108956CD008F4BC
:1033100081E0089594D088F09F5790F0B92F9927B5
:10332000B751A0F0D1F0660F771F881F991F1AF0D0
:10333000BA95C9F712C0B13081F09BD0B1E00895C1
:1033400098C0672F782F8827B85F39F0B93FCCF342
:10335000869577956795B395D9F73EF490958095C6
:10336000709561957F4F8F4F9F4F0895E89409C0E6
:1033700097FB3EF490958095709561957F4F8F4FA8
:103380009F4F9923A9F0F92F96E9BB279395F695BE
:10339000879577956795B795F111F8CFFAF4BB0F3C
:1033A00011F460FF1BC06F5F7F4F8F4F9F4F16C0A0
:1033B000882311F096E911C0772321F09EE8872F2A
:1033C000762F05C0662371F096E8862F70E060E0E6
:1033D0002AF09A95660F771F881FDAF7880F96955F
:1033E000879597F90895990F0008550FAA0BE0E803
:1033F000FEEF16161706E807F907C0F012161306B7
:10340000E407F50798F0621B730B840B950B39F4F6
:103410000A2661F0232B242B252B21F408950A265C
:1034200009F4A140A6958FEF811D811D089557FDD8
:103430009058440F551F59F05F3F71F04795880F22
:1034400097FB991F61F09F3F79F0879508951216B9
:1034500013061406551FF2CF4695F1DF08C0161665
:1034600017061806991FF1CF869571056105089416
:103470000895E894BB2766277727CB0197F908952D
:10348000B2DF08F48FEF08950BD078C069D028F030
:103490006ED018F0952309F05AC05FC01124EACF0E
:1034A000C6DFA0F3959FD1F3950F50E0551F629FA3
:1034B000F001729FBB27F00DB11D639FAA27F00D8D
:1034C000B11DAA1F649F6627B00DA11D661F829FB4
:1034D0002227B00DA11D621F739FB00DA11D621F99
:1034E000839FA00D611D221F749F3327A00D611DB6
:1034F000231F849F600D211D822F762F6A2F112498
:103500009F5750408AF0E1F088234AF0EE0FFF1FEA
:10351000BB1F661F771F881F91505040A9F79E3F21
:10352000510570F014C0A6CF5F3FECF3983EDCF37A
:10353000869577956795B795F795E7959F5FC1F75E
:10354000FE2B880F911D9695879597F9089597F909
:103550009F6780E870E060E008959FEF80EC089539
:1035600000240A9416161706180609060895002462
:103570000A9412161306140605060895092E0394DC
:10358000000C11F4882352F0BB0F40F4BF2B11F450
:1035900060FF04C06F5F7F4F8F4F9F4F0895AA1B3E
:1035A000BB1B51E107C0AA1FBB1FA617B70710F02E
:1035B000A61BB70B881F991F5A95A9F78095909560
:1035C000BC01CD01089597FB092E07260AD077FD8F
:1035D00004D0E5DF06D000201AF4709561957F4F86
:1035E0000895F6F7909581959F4F0895F894FFCF31
:1035F000FF4765745265706F72740053657452654D
:10360000706F7274000000000000000853657420A1
:10361000437573746F6D20466F7263650044697300
:1036200061626C65204163747561746F72730045EB
:103630006E61626C65204163747561746F727300B2
:1036400053746F7020416C6C2045666665637473BB
:1036500000526573657400506175736500436F6E49
:1036600074696E75650053657420446F776E6C6F76
:10367000616420466F7263652053616D706C6500F4
:1036800053657420437573746F6D20466F72636564
:1036900020446174610020203D3E205573623A0051
:1036A0003C3D20466662446174613A0002FF7F003F
:1036B00000000102040E00080005000700040004D9
:1036C000000F0003000000040002000200020005D9
:1036D00000F000010A0123127F5A1900005A007FEE
:1036E0006400104E7F00007F5A197F01007F0000A8
:1036F000004EF712060502080A0B0D0E0F1001C549
:1037000001B57C7FA57F00C506C501C507B0400097
:10371000B14000B24000B34000B44000B54000B634
:103720004000B74000B84000B94000BA4000BB407C
:1037300000BC4000BD4000BE4000BF4000B04000A3
:10374000B14000B24000B34000B44000B54000B604
:103750004000B74000B84000B94000BA4000BB404C
:1037600000BC4000BD4000BE4000BF4000C501F0AD
:1037700000010A0110056BF7B5407FA57257B544EB
:103780007FA53C43B5487FA57E00B54C7FA50400CE
:10379000B5507FA50200B5547FA50200B5587FA59E
:1037A000007EB55C7FA53C00B5607FA51465B5645F
:1037B0007FA57E6BB5687FA53600B56C7FA5280018
:1037C000B5707FA5664CB5747FA57E01C501B57C3B
:1037D0007FA57F00C50600010A0100010204020066
:00000001FF
