:1000000038C3000053C3000050C300004EC30000BB
:100010004CC300004AC3000048C3000046C30000B0
:1000200044C3000042C300000C942A113EC30000E8
:100030003CC300003AC3000038C3000036C30000D0
:1000400034C3000032C3000030C300002EC30000E0
:100050002CC300002AC3000028C3000026C30000F0
:1000600024C3000022C3000020C300001EC3000000
:100070001CC3000063C4000018C3000016C30000C6
:1000800014C3000012C3000010C300000EC3000020
:100090000CC300000AC3000008C3000006C3000030
:1000A00004C3000002C3000000C3000005010904EE
:1000B000A10185010901A1000930093109321600A9
:1000C000FE26FF01350046FF0395037510810209E6
:1000D000351500253F3500452E95017506810275C1
:1000E0000295018101650009330934150025FF459A
:1000F000FF7508750895028102C009361580257FB5
:1001000045FF750895018102050209BB15C0253F11
:10011000457F750895018102050919012908150017
:1001200025014501750195088102190929107501FC
:100130009508810205010939950175041500250707
:10014000463B0165148142750495018101550065A6
:1001500000050F0992A1028502099F09A009A409BF
:10016000A509A615002501350045017501950581F4
:100170000295038103099415002501350045017599
:1001800001950181020922150125283501452875AF
:100190000795018102C00921A102850109221501EB
:1001A0002528350145287508950191020925A102E8
:1001B0000926092709300931093209330934094070
:1001C0000941094209430928250C15013501450C4F
:1001D000750895019100C009500954095115002670
:1001E000FF7F350046FF7F66031055FD75109503B0
:1001F000910255006600000952150026FF003500E7
:1002000046102775089501910209531501250835F7
:100210000145087508950191020955A102050109DA
:1002200030093115002501750195029102C0050FB5
:10023000095695019102950591030957A1020B01F9
:10024000000A000B02000A0066140055FE15002685
:10025000FF00350047A08C0000660000750895027D
:1002600091025500660000C0050F66031055FD158C
:100270000026FF7F350046FF7F7510950166000060
:100280005500C0050F095AA1028502092215012552
:100290002835014528750895019102095B095D150E
:1002A0000026FF00350046102795029102095C09DF
:1002B0005E66031055FD26FF7F46FF7F7510910295
:1002C00045006600005500C0095FA10285030922B0
:1002D0001501252835014528750895019102092346
:1002E0001500250135004501750495019102095855
:1002F000A1020B01000A000B02000A007502950220
:100300009102C01580257F36F0D846102709607508
:10031000089501910236F0D84610270961950191A0
:1003200002150026FF003500461027096309647591
:100330000895024610279501C0096EA1028504099F
:1003400022150125283501452875089501910209D6
:1003500070150026FF00350046102775089501919D
:1003600002096F1580257F36F0D846102795019138
:1003700002097166140055FE150026FF003500477E
:10038000A08C00009102097226FF7F46FF7F660362
:100390001055FD7510950191026600005500C009C9
:1003A00073A1028505092215012528350145287507
:1003B000089501910209701601FF26FF0036F0D85A
:1003C000461027751095019102C00974A102850697
:1003D0000922150125283501452875089501910246
:1003E000097509761580257F36F0D84610277508DF
:1003F00095029102C00968A102850709221501250D
:100400002835014528750895019102096C150026CB
:1004100010273500461027751095019102096915BE
:1004200081257F350046FF007508950C920201C0BA
:100430000966A10285080501093009311581257F6A
:10044000350046FF00750895029102C0050F097737
:10045000A102850A092215012528350145287508BC
:10046000950191020978A1020979097A097B1501A0
:100470002503750895019100C0097C150026FF0031
:10048000350046FF009102C00990A102850B0922A8
:100490002528150135014528750895019102C009E7
:1004A00096A102850C099709980999099A099B094F
:1004B0009C15012506750895019100C0097DA102D2
:1004C000850D097E150026FF0035004610277508AA
:1004D00095019102C0096BA102850E092215012523
:1004E0002835014528750895019102096D150026EA
:1004F000FF00350046FF007508950191020951661D
:10050000031055FD150026FF7F350046FF7F75104F
:10051000950191025500660000C009ABA102850556
:100520000925A102092609270930093109320933B1
:10053000093409400941094209430928250C1501DC
:100540003501450C75089501B100C00501093B1541
:100550000026FF01350046FF01750A9501B10275BD
:1005600006B101C0050F0989A102850609222528C7
:1005700015013501452875089501B102098BA102C5
:10058000098C098D098E2503150135014503750870
:100590009501B100C009AC150027FFFF0000350030
:1005A00047FFFF000075109501B100C0097FA1024F
:1005B00085070980751095011500350027FFFF009C
:1005C0000047FFFF0000B102098326FF0046FF003D
:1005D00075089501B10209A909AA750195021500CE
:1005E000250135004501B10275069501B103C0C072
:1005F0001201100100000008EB0356200100010267
:10060000000109022900010100C0320904000002B2
:100610000300000009211101000122440507050221
:100620000340000107058103400001040309041889
:10063000034400650061006E002000430061006D0E
:1006400000650072006100000026034C0055004662
:1006500000410020004A006F0079007300740069B7
:100660000063006B00200077004600460042000057
:10067000000011241FBECFEFDAE0DEBFCDBF13E0D4
:10068000A0E0B1E0E6E4FDE202C005900D92AA3FD1
:10069000B107D9F717E0AAEFB3E001C01D92A43863
:1006A000B107E1F71CD40C94A116AACC5F935FB7F5
:1006B0005F9357EE56BD4F93AF93BF93B7E0A091B2
:1006C000600750916107452F53955093610753B1CF
:1006D0005295507E477069F04530B9F0423069F06C
:1006E0004330F1F04630E9F04130E1F04430D9F0E8
:1006F0001BC0529556955E931AC0550F4C91542BC2
:100700005C935527551F5E9312C057FB550F550F2D
:100710004C91542B5C935527551F51F95E9307C09C
:1007200056955695569556954C91542B5C93A0939F
:100730006007BF91AF914F915F915FBF5F91189537
:10074000DC0154E0A50F5C91509550FB5095A150F1
:100750003C913695579550936F0742E0340F3370B4
:100760005C91A1504C91469557955C7F532B5093CB
:10077000700738E0430F4F70A2505C91550F550F32
:100780005051507F542B509371073C9142E0340FED
:100790003370A3954C91407F342B3295330F330F38
:1007A00054E0A50F5C915095569537955695379521
:1007B0003093720756F9A3504C9145FB57F950936B
:1007C0007307A1505C9138E0530F5F70440F551FC1
:1007D000440F551F509374070895DC0145E0A40FA2
:1007E0005C91A395A3953C913873330F3295550FC7
:1007F000369557954EEF340F337050936F074C91E9
:100800004770A3505C91550F469557952EEF420FB8
:100810004370550F441F550F441F532B50937007BF
:10082000342FA2505C91A3954C914871550F440F01
:10083000429546955795409540FB5295452F407FF0
:10084000432B409371075F7054F9352FA3505C918F
:10085000507747E0A40F4C9146FB57F9505157FB96
:10086000550F532B50937207332730F9AA955C919B
:10087000A3504C9146FB57F950954427550F441F00
:10088000532B50937307342FA2505C91A395A395DB
:100890004C914770550F469557952EEF420F437078
:1008A00057FB550F532B50937407440F40F9409357
:1008B00075070895482F362F8827F894E09AE89A0C
:1008C0002227189B2FEF51E053BD5CE956BDA89A33
:1008D0002093610750E650936007789424982598F8
:1008E00050E05A95F1F7249A259A509161075217D2
:1008F00019F4A89BFACF089550916107521B250F58
:10090000231728F444238AF7450F7AF3E7CF83951A
:100910000895D0DF882371F050916107563151F46A
:10092000F894552750936107509160075395509361
:1009300060077894089581E090E008951F920F92E7
:100940000FB60F9211248F9381E08093FA038F9159
:100950000F900FBE0F901F901895CF93DF93EB0170
:1009600083E085BD0E94AF0F8091FA038823C9F10F
:100970001092FA038091FB03813069F0813028F0F6
:10098000843089F08530C9F414C080917900809357
:10099000FC0381E005C0809179008093FD0384E031
:1009A0008093FB030CC0809179008093FE0385E067
:1009B000F7CF809179008093FF031092FB03809121
:1009C0007C00887F80937C0090917C008091FB0369
:1009D0008770892B80937C0080917A00806480935B
:1009E0007A0081E088838091700790E08370907036
:1009F000382F222780916F07280F311D3A832983D2
:100A00008091700781FF03C03C6F3A8329838091F6
:100A10007107282F30E02F70307046E0220F331F0F
:100A20004A95E1F78091700786958695280F311DCC
:100A30003C832B838091710783FF03C03C6F3C8311
:100A40002B832091720722952695269523708091FD
:100A5000730790E08F779070880F991F880F991F08
:100A6000820F911D9D878C878091710782958F7071
:100A70008E87809172078F7380528F839091740755
:100A80009F73990F80917307881F8827881F980F7D
:100A90009B878091740785FF02C0906C9B871E82A4
:100AA0001D828091FF032091FE0390E0821B91093B
:100AB00062E070E00E94871660586A878091FD03AB
:100AC00088878091FC03898781E090E0DF91CF9156
:100AD00008950E94790F86E08093620783E08093F7
:100AE000810085E085BD26E02150822F90E0FC0149
:100AF000E159F84FE081DC01AC59B84F8C918E136D
:100B0000EC93222389F788EE93E097D2ECD310BAC6
:100B100080917A00876080937A0080917C00806465
:100B200080937C0080917C00806280937C00809127
:100B30007A00806880937A0080917A008860809340
:100B40007A0080917A00806480937A000895DA01B7
:100B50009330B1F0943028F4913041F0923079F52F
:100B60000AC0913211F1923251F524C0E0EFF5E064
:100B700022E130E028C0E2E0F6E029E230E023C0E4
:100B8000813049F0813018F08230C9F40AC0EBE2BC
:100B9000F6E0849103C0EFE2F6E08491282F30E084
:100BA00012C0E9E4F6E08491F9CFE4E1F6E029E04F
:100BB00030E009C0ECEAF0E024E435E004C0E0E015
:100BC000F0E020E030E0ED93FC93C90108955E9AD7
:100BD00008955E9808956F927F928F929F92AF9240
:100BE000BF92DF92EF92FF920F931F93DF93CF9309
:100BF000CDB7DEB7C054D0400FB6F894DEBF0FBEFD
:100C0000CDBF80917B07843009F083C081E0809361
:100C1000E9008091E80080FF13C0809100018E01FF
:100C20000F5F1F4FB80199DEC8016FE070E040E030
:100C300050E00E9456138091E8008E778093E80080
:100C400082E08093E9008091E80082FF62C05E9AB2
:100C5000DD245E010894A11CB11C22E0622E712CDF
:100C60006C0E7D1E90EA892E9FE0992E3EC0C50134
:100C700061E070E040E050E00E9404138530B9F379
:100C8000D394E981F0E0EE0FFF1FEE52FD4F00819B
:100C9000118101501040C8018D0D911D80349105C6
:100CA00098F020E931E05E9888EE93E0F901319701
:100CB000F1F70197D9F75E9A88EE93E0F901319741
:100CC000F1F70197D9F7EFCFC301B80140E050E049
:100CD0000E9404138530C1F3D00E0F5F1F4FC50172
:100CE000B801FAD7C4010197F1F72091F300809180
:100CF000F200F22EEE2490E08E299F29892B21F01C
:100D00008FE38D1508F0B3CF8091E8008B77809347
:100D1000E800C05CDF4F0FB6F894DEBF0FBECDBF5A
:100D2000CF91DF911F910F91FF90EF90DF90BF90D7
:100D3000AF909F908F907F906F9008950F931F9327
:100D4000DF93CF93CDB7DEB764970FB6F894DEBFCD
:100D50000FBECDBF81E091E00E9408108EE797E0C2
:100D600062E070E00E94EE0F80E897E062E070E0E1
:100D70000E94EE0F8CE797E068E070E00E94EE0FB3
:100D800080917D07813021F0893009F066C02AC04A
:100D90008CE291E00E94081080917C07813A09F072
:100DA0005CC05E9A80917E0790917F0723E0873038
:100DB000920751F48AE391E00E9408108E010F5FC0
:100DC0001F4FC801C3D239C08E010A5F1F4FB8013F
:100DD000C4DD8091E800877F8093E800C8016FE060
:100DE00070E033C085E591E00E94081080917C0797
:100DF000813299F55E9A8091E800877F8093E800C0
:100E00008E010A5F1F4F6091820770918307C801AE
:100E10000E9456120E947B1080917E0790917F075E
:100E200085509340C9F480ED97E00197F1F7C80130
:100E30008E010F5F1F4FB8019DD78091E800877F1B
:100E40008093E800C80165E070E00E94F011809195
:100E5000E8008B778093E8005E9864960FB6F8946C
:100E6000DEBF0FBECDBFCF91DF911F910F910895CF
:100E70000F931F9381E061EC42E30E944610082F1C
:100E800082E060EC42E30E94461010E090E008230C
:100E9000192300FF02C090E001C090E48BB18F7B6A
:100EA000982B9BB91F910F91089584B7877F84BFBA
:100EB00088E10FB6F89480936000109260000FBE36
:100EC00080E090E020E80FB6F894209361008093D2
:100ED00061000FBE569A5E98FCDD0C941211E5DF9E
:100EE0005E98789408C05E9A8CE291E0A6D05E98F5
:100EF0008CE291E0A2D01FDD892BA9F36CDE0E9469
:100F00001715F9CF853180F4282F30E085E290E085
:100F1000289FF001299FF00D389FF00D1124E0501B
:100F2000FC4F8081826080830895853180F4282F72
:100F300030E085E290E0289FF001299FF00D389F76
:100F4000F00D1124E050FC4F80818D7F8083089547
:100F50001F9311E0812FE9DF1F5F1531D9F71F9132
:100F60000895482F8531A0F4282F30E085E290E0E5
:100F7000289FF001299FF00D389FF00D1124E050BB
:100F8000FC4F10828091CC02481710F44093CC02A1
:100F90000895FC0120E090E003C08191280F9F5F3D
:100FA0009617D8F3922F9F7719F080E8891B982F16
:100FB000892F08952FEF8F3F920719F420E030E03A
:100FC00008C09C0130703695279580709F77280F58
:100FD000391FC9010895282F332727FD309587FF32
:100FE00002C020583048C9010895689FB0011124FB
:100FF000672F770F770B65956595862F8F77089507
:101000002498259890EA892F8A95F1F78AE6282F67
:101010002A95F1F7249A259A282F2A95F1F7292F56
:101020002A95F1F7282F2A95F1F7292F2A95F1F71C
:101030008A95F1F79A95F1F70895AF92BF92CF9202
:10104000DF92EF92FF920F931F93A8959C0140E6C9
:101050005AEE4DC02031310534F0CA010197F1F745
:101060002F50304044C0B901882777FD8095982FD4
:101070000E945C155B016C0120E030E04AE755E41A
:101080000E94E8157B018C0120E030E040E85FE33E
:101090000E942A1588231CF461E070E024C0C80176
:1010A000B70120E03FEF4FE757E40E94E415181620
:1010B000B4F4C601B50120E030E040E251E40E9402
:1010C000E8150E942E1580E991E005C0FC013197DA
:1010D000F1F76150704061157105C1F70CC0C8018E
:1010E000B7010E942E15CB010197F1F704C012162B
:1010F00013060CF4AFCF1F910F91FF90EF90DF908C
:10110000CF90BF90AF900895982F8091C80085FF31
:10111000FCCF9093CE000895EF92FF920F931F9310
:10112000CF93DF937C018B01C0E0D0E006C0F701D4
:10113000EC0FFD1F8081E8DF2196C017D107B8F3BF
:10114000DF91CF911F910F91FF90EF90089584E66A
:1011500090E073DF55DF80E69DE60197F1F750DF01
:101160004FDF4EDF4DDF83E290E067DF49DF48DF8E
:1011700047DF8EE090E061DF43DF42DF8EE490E006
:101180005CDF3EDF3DDF80E89EE30197F1F738DF6B
:1011900037DF36DF8BE390E050DF32DF31DF8CE882
:1011A00093E062E070E0B8DF84E190E046DF8EE833
:1011B00093E069E070E0B0DF89E390E03EDF87E92B
:1011C00093E063E370E0A8DF8AEC93E063E270E011
:1011D000A3DF86E490E031DF8DEE93E068E070E01D
:1011E0009BDF86E490E029CFEF92FF920F931F934D
:1011F000DF93CF9300D00F92CDB7DEB78A0195EB86
:1012000099836A838B837E010894E11CF11CC701DA
:1012100063E070E081DF85EA8983802F8F778A839E
:1012200000701F771B83C70163E070E075DF0F90CC
:101230000F900F90CF91DF911F910F91FF90EF9042
:101240000895DF93CF9300D00F92CDB7DEB795EB23
:1012500099836A838B83CE01019663E070E05CDF43
:101260000F900F900F90CF91DF910895CF92DF9262
:10127000EF92FF920F931F93DF93CF9300D0CDB7E0
:10128000DEB7F82EE92ED62EC72E80EF89838E0189
:101290000F5F1F4FC80161E070E03EDF85EF93E014
:1012A00064E070E039DF8F2D9E2D6D2D7C2D34DFB5
:1012B0008F2D9E2D6D2D6DDE8A83CE01029661E00D
:1012C00070E02ADF87EF8983C80161E070E024DFE6
:1012D0000F900F90CF91DF911F910F91FF90EF90A2
:1012E000DF90CF900895539A1092C8008FE190E05C
:1012F0009093CD008093CC0086E88093CA0088E06C
:101300008093C9001092CE0020E034E0C90160E073
:1013100070E049E053E00E949A162CE637E0C901DC
:1013200060E070E043E050E00E949A1682E0809313
:10133000CC020DCF82E08093CC0220E034E0C901E2
:1013400060E070E049E053E00C949A160F931F930D
:101350008C01F0DF87E0F80180838FEF9FEF9283AD
:1013600081838AE0838383E084831F910F910895B2
:101370001F938091CC02843111F410E03BC0109196
:10138000CC021F5F1093CC02115025E230E009C05F
:101390008091CC028431A0F48091CC028F5F809345
:1013A000CC028091CC0290E0829FF001839FF00DEF
:1013B000929FF00D1124E050FC4F8081882341F76B
:1013C000212F30E085E290E0A901489F9001499FDC
:1013D000300D589F300D1124F901E050FC4F81E091
:1013E0008083265F3B4FC90160E070E04BE150E035
:1013F0000E949A16812F1F91089583E691E008C6F6
:1014000084E791E005C61F93CF93DF93EC0180E85A
:1014100091E0FED519811F3F09F41FE78A818130D1
:1014200039F481E991E0F4D589816CDD812F0CC01C
:10143000823061F489E991E0EBD58ADD8FE760E3E2
:1014400000DF89815FDD8FE760E209C0833041F40E
:1014500085EA91E0DDD5898168DD812F60E3F1DEE9
:10146000DF91CF911F9108958CEA91E0D1C586EC70
:1014700091E0CEC5CF93DF93EC018CED91E0C8D520
:10148000998182E080936C0780916D0784608093DE
:101490006D0780916D07806180936D0710926E07D4
:1014A000913039F48BEE91E0B3D580916D078E7F4A
:1014B00008C0923049F48FEF91E0AAD580916D0772
:1014C000846080936D0755C0933009F58EE193E0F9
:1014D00062E070E021DE8EE591E020E931E0F90183
:1014E0003197F1F70197D9F780E991E020E931E0F0
:1014F000F9013197F1F70197D9F780E293E068E0BD
:1015000070E00ADE10926E0782E192E026C094300D
:10151000D9F488E293E062E070E0FEDD8EE591E0D0
:1015200020E931E0F9013197F1F70197D9F780E926
:1015300091E020E931E0F9013197F1F70197D9F70E
:10154000F9DE85E292E009C0953019F48DE292E06F
:1015500004C0963021F485E392E05AD50AC0907C0D
:1015600041F080E492E054D5CE01019661E070E054
:1015700035D5DF91CF9108950F931F93DF93CF93CC
:101580000F92CDB7DEB78C0188E492E041D5F80127
:1015900081818983CE01019661E070E01FD5898148
:1015A0008F3F19F4C7DE8FE702C0DBDC898160E181
:1015B00048DE0F90CF91DF911F910F910895FF9218
:1015C0000F931F93CF93DF93EC0183E592E020D537
:1015D000CE0164E070E002D5F9800F2D10E08A8121
:1015E000282F332727FD309587FF03C0209530959E
:1015F000316085E290E0089FF001099FF00D189F8F
:10160000F00D1124E050FC4F32A321A38B81E3DCC9
:101610009C0185E290E0089FE001099FD00D189F92
:10162000D00D1124C050DC4F3CA32BA3888182FF36
:101630000AC049A15AA18F2D68E7D6DD4BA15CA154
:101640008F2D64E7D1DDDF91CF911F910F91FF9036
:101650000895FF920F931F93CF93DF938C0182E63F
:1016600092E0D6D4C80164E070E0B8D4F801F1800B
:1016700085E2F89EE0011124C050DC4F8281898709
:101680008281938197FD06C06D81AFDC8B8F8FE7E0
:1016900090E006C06D818095A8DC8B8F81E091E0A1
:1016A0009AA389A31CA21BA22F2D30E085E290E013
:1016B000289FF001299FF00D389FF00D1124E05074
:1016C000FC4F808182FF0AC04B8D8F2D64E750E074
:1016D0008BDD49A15AA18F2D6CE786DDDF91CF917B
:1016E0001F910F91FF900895EF92FF920F931F9318
:1016F000CF93DF938C0185E792E08AD4C80167E03D
:1017000070E06CD4F801E18085E2E89EE0011124EC
:10171000C050DC4F828189878FE790E09AA389A32C
:1017200081E091E09CA38BA365817681F3E0683E24
:101730007F0710F081E004C06A30710518F48FE66D
:101740008F8F06C088EE93E00E9473166F776F8FBD
:101750008B85823019F08B85833069F5F80184819F
:101760008052813C10F483E001C082E08B876D8160
:10177000F80182813ADCF82EF801838187FD8F5FC2
:1017800085958F0D28DC9AA389A3F801838187FDB5
:101790008F5F85958F191FDC9CA38BA3888182FFA7
:1017A0000AC049A15AA18E2D64E71EDD4BA15CA1A0
:1017B0008E2D68E719DD888182FF05C04F8D8E2D43
:1017C00060E750E011DDDF91CF911F910F91FF9005
:1017D000EF900895CF92DF92FF920F931F93CF93D4
:1017E000DF938C0182E892E013D4C80165E070E0D9
:1017F000F5D3F801F180CF2CDD2485E290E0C89E7E
:101800009001C99E300DD89E300D1124F901E05091
:10181000FC4F83858D3008F47CC0803120F080310E
:1018200009F077C049C0E901C65FDB4FF80182814A
:10183000882351F48481CFDB98878F83F8018381DB
:10184000CADB9C878B8712C0F8018481C4DB9A872E
:101850008987F8018381803829F48FE790E09E879B
:101860008D8704C08195B7DB9E878D8785E290E0E8
:10187000C89EF001C99EF00DD89EF00D1124E050D5
:10188000FC4F808182FF45C0F8018281882351F49A
:101890004F8158858F2D68E4A7DC4B855C858F2DA3
:1018A00060E536C049855A858F2D6CE49DDC4D85F9
:1018B0005E858F2D64E52CC0E901C65FDB4FF80122
:1018C0008281882329F4848186DB98878F8305C0F1
:1018D000F801848180DB9A87898785E290E0C89E41
:1018E000F001C99EF00DD89EF00D1124E050FC4F80
:1018F000808182FF0EC0F8018281882329F44F8104
:1019000058858F2D68E404C049855A858F2D6CE475
:101910006BDCDF91CF911F910F91FF90DF90CF9003
:101920000895FF920F931F93CF93DF938C0180E96B
:1019300092E06ED3C80168E070E050D3F801F18006
:1019400085E2F89EE0011124C050DC4F82818F8334
:1019500083818887868197819C838B836D81828137
:1019600044DB888F6D81F80183813FDB8E8FF80126
:10197000848195811FDB9A8F898FF80186819781F9
:101980008F5F9F4719F41D8E1C8E16C02F2D30E0DF
:1019900085E290E0289FF001299FF00D389FF00D1F
:1019A0001124E050FC4F8181928123813481821B7C
:1019B000930B00DB9D8F8C8F2F2D30E085E290E024
:1019C000289FF001299FF00D389FF00D1124E05061
:1019D000FC4F808182FF14C04C8D5D8D8F2D60E6A1
:1019E00003DC498D5A8D8F2D6CE5FEDB4E8D8F2DDE
:1019F0006CE650E0F9DB488D8F2D64E650E0F4DBB7
:101A0000DF91CF911F910F91FF9008956F927F9278
:101A10008F929F92BF92CF92DF92EF92FF920F939D
:101A20001F93CF93DF938C018DE992E0F1D2C8012F
:101A30006EE070E0D3D2D8011196DC901197ED2CB6
:101A4000FF2485E290E0FC01EE9EC001EF9E900D28
:101A5000FE9E900D1124FAE06F2EF4E07F2E680EAA
:101A6000791E13962D913C911497EC01C050DC4FD8
:101A7000FFE72F3F3F0719F41E861D8604C0C901EA
:101A800099DA9E878D87D80113968D919C91149732
:101A900025E230E0E29EF001E39EF00DF29EF00DB3
:101AA0001124E050FC4F92838183808182FF05C026
:101AB000458556858D2D60E497DBF801828188305D
:101AC00030F4833058F4813008F4E3C00AC08B301E
:101AD00008F4C3C08B3009F0DCC0CDC0CC24C39463
:101AE00001C0CC2485E2D89EE0011124C050DC4F17
:101AF000EAE08E2E912C8C0E9D1ED8011C968C91A6
:101B00001C972AE5829FC001112476E0969587955F
:101B10007A95E1F79C0120783170220F331F8F777F
:101B20009070280F391F3A8B298B13968D919C91B9
:101B300014978F5F9F4729F08B819C818F5F9F4710
:101B400019F41D8E1C8E13C029813A818B819C81D2
:101B50008217930740F489819A812B813C81821BF3
:101B6000930B28DA02C08D859E859D8F8C8F85E230
:101B700090E0E89EF001E99EF00DF89EF00D112432
:101B8000E050FC4F8581D80119969C911997BB2490
:101B9000891789F1BB24B39495838F8119966C9131
:101BA00024DA888F8885F80161851FDA8E8FCC2032
:101BB000E1F089856D8119DA182F8E81810F0BDA9A
:101BC0009AA389A38E81811B06DA9CA38BA38881AB
:101BD00082FF11C049A15AA18D2D64E705DB4BA1FD
:101BE0005CA18D2D68E700DB06C08985D8011996B8
:101BF0006C91FBD98B8F85E290E0E89EF001E99E25
:101C0000F00DF89EF00D1124E050FC4F808182FF12
:101C10001CC049895A898D2D68E4E6DA4C8D5D8DAA
:101C20008D2D60E6E1DABB20A1F14E8D8D2D6CE6A5
:101C300050E0DADA488D8D2D64E650E0D5DA4B8D30
:101C40008D2D64E750E0D0DA24C0C4016BE170E070
:101C50000DDB8881846088831CC085E290E0E89E6B
:101C6000F001E99EF00DF89EF00D1124E050FC4FBC
:101C7000E0816FE00FC085E290E0E89EF001E99E10
:101C8000F00DF89EF00D1124E050FC4FE0816BE068
:101C900001C06BE185E290E0E89EE001E99ED00D95
:101CA000F89ED00D1124C050DC4F888182FD06C003
:101CB000C30170E0DBDA888184608883DF91CF9193
:101CC0001F910F91FF90EF90DF90CF90BF909F906A
:101CD0008F907F906F900895FC015E9A808187308D
:101CE00099F1883078F4833019F1843030F4813000
:101CF000C9F0823009F03CC018C08530F9F0863058
:101D000000F519C08B3049F18C3028F48830F9F097
:101D10008A3071F51FC08D3031F18D3008F18E3071
:101D200039F524C0CF0172DE23C0CF01FADD20C017
:101D3000CF0150DD1DC0CF01D7DC1AC0CF0189DC37
:101D400017C0CF013CDC14C0CF0191DB11C0CF0123
:101D50008BDB0EC0CF0157DB0BC0CF010DDC08C001
:101D6000CF0188DB05C0CF014BDB02C0CF0145DBD3
:101D70005E9808950F931F93CF93DF938C01EB012F
:101D800088EA92E045D1C80164E070E027D186E09E
:101D90008883EEDA982F8983882319F482E08A8376
:101DA0006BC021E02A8385E2989FD0011124A050C6
:101DB000BC4F8FEF9FE712969C938E9311971496CA
:101DC0009C938E9313978FEF15968C931597169679
:101DD0001C92169717968C93179718968C931897B2
:101DE0009FE75B969C935B975F962C935F97F801B8
:101DF0008181E82FF0E0EF5EFC4F80811B968C9391
:101E00001B9758961C9258975A961C921E92599757
:101E10005E961C925E975D961C921E925C9783E282
:101E20001A968C931A971C969C931C9750961C920A
:101E30001E921F9753969C93539784E654968C93C7
:101E4000549755961C92559780E156968C935697C9
:101E50008EE457968C9357971B968C911B978231E3
:101E600029F494961C921E92939706C081E091E00B
:101E700094969C938E9393978FEF9FEF9C838B8385
:101E80008AEB92E06881AE0125E030E0E2D0DF919C
:101E9000CF911F910F91089523B5216023BD909399
:101EA00085008093840081E086BBB09BFECF0895BF
:101EB000FC019181828198278081982783819827CE
:101EC0008481982785819827892F82958F7089270B
:101ED000982F969596959827892F869589278170B2
:101EE00008955E9A81EC9FEFD7DF5E9883E89FEFBD
:101EF000D3CF1DB880E48EB910BA83EF81BB93E0D5
:101F000095BD85E080938100909369008BEC93EF01
:101F1000C3DFE7DF8BEC93EFBFDF80E06EE70E946B
:101F20005A04DFDF8091610780916107813121F0E0
:101F300080916107813389F483B1809161078AE5DB
:101F400097E0B6DF882349F083E080937607E8982E
:101F5000F8948FE0809309070895E898DACF80E03D
:101F600060E10E945A04E898882361F480910A078E
:101F70008F5F80930A078B3080F0F89480E2809323
:101F8000D800FFCF10920A078AE597E091DF8823F7
:101F900021F08AE597E00C94A003089580EB94E08B
:101FA0000197F1F70895EF92FF920F931F93CF934C
:101FB000DF937C018B01C0E0D0E006C0F701EC0F9D
:101FC000FD1F8081EBDF2196C017D107B8F3DF91A9
:101FD000CF911F910F91FF90EF9008950F931F9352
:101FE000DF93CF930F92CDB7DEB78C01662351F00C
:101FF0006983CE01019661E070E0D5DF6981C80197
:1020000070E0D1DF0F90CF91DF911F910F91089574
:102010000F931F93DF93CF930F92CDB7DEB7182F97
:10202000092F1982CE01019661E070E0BCDFE12F3B
:10203000F02FDF010D900020E9F7AE1BBF0B812FC1
:10204000902FBD01B0DF0F90CF91DF911F910F91C5
:102050000895EF92FF920F931F93DF93CF930F9208
:10206000CDB7DEB769838A017901D2DFCE0101964F
:1020700061E070E0B3DFC801B701B0DF0F90CF912E
:10208000DF911F910F91FF90EF900895382F282F27
:102090002CC02093E900231721F4762F942F50E0D1
:1020A00006C07091EC009091ED005091F00091FF0E
:1020B0001BC08091EB008E7F8093EB008091ED0040
:1020C0008D7F8093ED008091EB0081608093EB0029
:1020D0007093EC009093ED005093F0008091EE002F
:1020E00087FD02C080E008952F5F273090F2309383
:1020F000E90081E0089580917C0788239CF404C066
:1021000080917B078823B9F08091E80082FFF8CFA7
:102110008091E8008B778093E800089580917B0799
:10212000882349F08091E80080FFF8CF8091E80093
:102130008E778093E80008954091E4005091E50087
:1021400024E68091EC0080FF24C08091E80080FDAF
:102150001EC080917B07882311F482E008958530AA
:1021600011F483E008958091EB0085FF02C081E0C7
:1021700008958091E4009091E5008417950709F394
:10218000222311F484E008952150AC01DACF80E0DD
:1021900008958091E80082FFDCCFF9CFEF92FF92A3
:1021A0000F931F934AD051D008ED10E0F8018081C1
:1021B0008F77808380818068808380818F7D80831A
:1021C00019BC10927B071092770710927907109232
:1021D000780780EEE82EF12CF70180818B7F8083D9
:1021E000F80180818160808380E060E042E04EDF22
:1021F000E1EEF0E080818E7F8083E2EEF0E080818E
:1022000081608083808188608083F70180818E7FF8
:102210008083F8018081806180831F910F91FF90FE
:10222000EF900895E7EDF0E080818160808384E0A5
:1022300082BF81E080937A07B1CFE8EDF0E0808142
:102240008E7F80831092E20008951092DA0010923F
:10225000E10008951F920F920FB60F9211242F9351
:102260003F934F935F936F937F938F939F93AF931E
:10227000BF93EF93FF938091E10082FF0AC08091AA
:10228000E20082FF06C08091E1008B7F8093E10035
:10229000CDD38091DA0080FF1FC08091D80080FFED
:1022A0001BC08091DA008E7F8093DA008091D90084
:1022B00080FF0DC080E189BD82E189BD09B400FEC7
:1022C000FDCF81E080937B070E94E70505C019BC24
:1022D00010927B070E94E9058091E10080FF18C001
:1022E0008091E20080FF14C08091E2008E7F809395
:1022F000E2008091E20080618093E2008091D8004A
:1023000080628093D80019BC85E080937B078ED3D0
:102310008091E10084FF2DC08091E20084FF29C0FC
:1023200080E189BD82E189BD09B400FEFDCF8091C5
:10233000D8008F7D8093D8008091E1008F7E8093BC
:10234000E1008091E2008F7E8093E2008091E200C4
:1023500081608093E20080917707882331F4809137
:10236000E30087FD02C081E001C084E080937B0729
:102370005DD38091E10083FF22C08091E20083FF62
:102380001EC08091E100877F8093E10082E080930E
:102390007B07109277078091E1008E7F8093E100A8
:1023A0008091E2008E7F8093E2008091E200806164
:1023B0008093E20080E060E042E068DE37D3FF9186
:1023C000EF91BF91AF919F918F917F916F915F91AD
:1023D0004F913F912F910F900FBE0F901F90189526
:1023E0009C0140918207509183074617570718F4C4
:1023F000F90190E045C06115710511F0AB01F8CF0E
:102400008091E8008E778093E80040E050E0F0CFC4
:1024100080917B07882309F445C0853009F444C0C6
:102420008091E80083FF02C081E008958091E80078
:1024300082FD32C08091E80080FF22C08091F300CD
:102440009091F200782F60E0292F30E0262B372B77
:1024500007C081918093F100415050402F5F3F4F62
:102460004115510519F02830310598F390E02830D6
:10247000310509F491E08091E8008E778093E800BF
:102480004115510529F6992319F606C080917B075D
:10249000882341F0853041F08091E80082FFF6CF3B
:1024A00080E0089582E0089583E008959C0161151D
:1024B000710529F48091E8008B778093E800F90199
:1024C00027C080917B07882399F1853099F180910D
:1024D000E80083FF02C081E008958091E80082FF58
:1024E000F0CF06C08091F10081936150704059F0A7
:1024F0002091F3008091F200322F20E090E0822BB7
:10250000932B892B79F78091E8008B778093E800F3
:1025100061157105B1F606C080917B07882341F0F3
:10252000853041F08091E80080FFF6CF80E008958B
:1025300082E0089583E008959C01409182075091C4
:1025400083074617570718F4F90190E046C0611554
:10255000710511F0AB01F8CF8091E8008E77809380
:10256000E80040E050E0F0CF80917B07882309F439
:1025700047C0853009F446C08091E80083FF02C05F
:1025800081E008958091E80082FD34C08091E800E8
:1025900080FF23C08091F3009091F200782F60E0DB
:1025A000292F30E0262B372B08C084918093F1002F
:1025B0003196415050402F5F3F4F4115510519F062
:1025C0002830310590F390E02830310509F491E08E
:1025D0008091E8008E778093E8004115510521F63F
:1025E000992309F0C1CF06C080917B07882341F071
:1025F000853041F08091E80082FFF6CF80E00895B9
:1026000082E0089583E00895BF92CF92DF92EF9227
:10261000FF920F931F93CF93DF93182F092F7B0106
:102620006A018ADDB82E8823B1F5812F902F9C0195
:10263000E901C114D10439F0F60180819181E81AD1
:10264000F90AC80FD91F00E010E022C08091E8000D
:1026500085FD16C08091E8008B778093E800E7D174
:10266000C114D10449F0F60180819181800F911F3E
:102670009183808385E010C05FDD882349F00CC022
:102680008091F10089930894E108F1080F5F1F4FD2
:10269000E114F104D9F68B2DDF91CF911F910F91A9
:1026A000FF90EF90DF90CF90BF900895BF92CF92B0
:1026B000DF92EF92FF920F931F93CF93DF93182F28
:1026C000092F7B016A0138DDB82E8823B1F5812FEF
:1026D000902F9C01E901C114D10439F0F6018081E9
:1026E0009181E81AF90AC80FD91F00E010E022C052
:1026F0008091E80085FD16C08091E8008E77809378
:10270000E80095D1C114D10449F0F601808191818E
:10271000800F911F9183808385E010C00DDD882399
:1027200049F00CC089918093F1000894E108F10808
:102730000F5F1F4FE114F104D9F68B2DDF91CF917C
:102740001F910F91FF90EF90DF90CF90BF90089571
:102750000F931F93DF93CF93CDB7DEB7AC970FB630
:10276000F894DEBF0FBECDBFECE7F7E08091F1003B
:10277000819327E0E438F207C9F70E949E06809112
:10278000E80083FF3AC180917C0730917D073530A6
:1027900009F487C0363040F43130C9F1313070F07F
:1027A000333009F02AC133C0383009F4F7C039306A
:1027B00009F406C1363009F020C197C0803821F0F5
:1027C000823809F01AC108C0909178078091790782
:1027D000882399F0926011C0809180078F70809358
:1027E000E9008091EB0090E025E0969587952A9589
:1027F000E1F7982F91701092E9008091E800877FAF
:102800008093E8009093F1001092F100D2C08823E9
:1028100019F0823009F0F1C090E08F71907000974C
:1028200021F0029709F0E9C00CC080917E07813049
:1028300009F0E3C010927907333069F58093790786
:102840002AC080917E07882331F5209180072F7060
:1028500009F4D3C02093E9008091EB0080FF1BC0F6
:10286000333021F48091EB00806213C08091EB0043
:1028700080618093EB0081E090E002C0880F991F97
:102880002A95E2F78093EA001092EA008091EB002B
:1028900088608093EB001092E9008091E800877FC8
:1028A0008BC0882309F0A9C010917E071F770FB74E
:1028B000F8948091E800877F8093E8001CDC809189
:1028C000E80080FFFCCF8091E3008078812B80932B
:1028D000E30080688093E300112311F482E001C0DB
:1028E00083E080937B070FBF88C08058823008F058
:1028F00084C080917E0790917F0723E08C3D9207F2
:1029000009F033C083E08C838AE28B837FB7F8942D
:10291000DE0115966EE040E050E011E2E62FF0E0B7
:1029200010935700849140FF03C082958F706F5FB2
:102930008F70282F30E08A3018F0C901C79602C086
:10294000C901C0968D939D934F5F5F4F44315105F0
:1029500029F77FBF8091E800877F8093E800CE0150
:1029600003966AE270E03CDD13C060918007AE011F
:102970004F5F5F4F0E94A705BC01009709F43DC05F
:102980008091E800877F8093E80089819A81D4DD77
:102990008091E8008B778093E8002FC0803869F53C
:1029A0008091E800877F8093E8008091770780938B
:1029B000F1008091E8008E778093E8009CDB1DC0D9
:1029C0008823D9F490917E079230B8F48091E80082
:1029D000877F8093E800909377078DDB809177075E
:1029E000882331F48091E30087FD02C081E001C0BB
:1029F00084E080937B070E9438078091E80083FF82
:102A00000AC08091EB0080628093EB008091E80027
:102A1000877F8093E800AC960FB6F894DEBF0FBEB8
:102A2000CDBFCF91DF911F910F91089508951F930E
:102A300080917B07882361F01091E9001092E900F2
:102A40008091E80083FF01C083DE1F701093E900CE
:102A50001F9108956CD008F481E0089594D088F017
:102A60009F5790F0B92F9927B751A0F0D1F0660F7A
:102A7000771F881F991F1AF0BA95C9F712C0B13095
:102A800081F09BD0B1E0089598C0672F782F8827F8
:102A9000B85F39F0B93FCCF3869577956795B395D4
:102AA000D9F73EF490958095709561957F4F8F4F43
:102AB0009F4F0895E89409C097FB3EF49095809548
:102AC000709561957F4F8F4F9F4F9923A9F0F92FF4
:102AD00096E9BB279395F695879577956795B79572
:102AE000F111F8CFFAF4BB0F11F460FF1BC06F5F58
:102AF0007F4F8F4F9F4F16C0882311F096E911C06A
:102B0000772321F09EE8872F762F05C0662371F08A
:102B100096E8862F70E060E02AF09A95660F771F9E
:102B2000881FDAF7880F9695879597F90895990F7A
:102B30000008550FAA0BE0E8FEEF16161706E80787
:102B4000F907C0F012161306E407F50798F0621BA8
:102B5000730B840B950B39F40A2661F0232B242B7D
:102B6000252B21F408950A2609F4A140A6958FEF9C
:102B7000811D811D089557FD9058440F551F59F030
:102B80005F3F71F04795880F97FB991F61F09F3F5A
:102B900079F087950895121613061406551FF2CF83
:102BA0004695F1DF08C0161617061806991FF1CFD3
:102BB00086957105610508940895E894BB276627FA
:102BC0007727CB0197F90895B2DF08F48FEF0895C6
:102BD0000BD078C069D028F06ED018F0952309F09A
:102BE0005AC05FC01124EACFC6DFA0F3959FD1F38E
:102BF000950F50E0551F629FF001729FBB27F00DAB
:102C0000B11D639FAA27F00DB11DAA1F649F6627FF
:102C1000B00DA11D661F829F2227B00DA11D621F4E
:102C2000739FB00DA11D621F839FA00D611D221F08
:102C3000749F3327A00D611D231F849F600D211DEC
:102C4000822F762F6A2F11249F5750408AF0E1F08F
:102C500088234AF0EE0FFF1FBB1F661F771F881FD8
:102C600091505040A9F79E3F510570F014C0A6CF77
:102C70005F3FECF3983EDCF3869577956795B795C3
:102C8000F795E7959F5FC1F7FE2B880F911D9695ED
:102C9000879597F9089597F99F6780E870E060E05D
:102CA00008959FEF80EC089500240A9416161706E5
:102CB00018060906089500240A941216130614062D
:102CC00005060895092E0394000C11F4882352F090
:102CD000BB0F40F4BF2B11F460FF04C06F5F7F4F48
:102CE0008F4F9F4F0895AA1BBB1B51E107C0AA1F1E
:102CF000BB1FA617B70710F0A61BB70B881F991F9D
:102D00005A95A9F780959095BC01CD01089597FB40
:102D1000092E07260AD077FD04D0E5DF06D0002073
:102D20001AF4709561957F4F0895F6F79095819507
:102D30009F4F0895DC0101C06D9341505040E0F772
:062D40000895F894FFCF96
:102D4600FF436F6E74726F6C205265717565737494
:102D5600202876616C75652C20696E6465782C2058
:102D6600616C6C2064617461293A200020203D204A
:102D76004765745265706F7274004765745265706A
:102D86006F72742050494420506F6F6C2046656105
:102D9600747572650020203D205365745265706F0E
:102DA60072740053657420437573746F6D20466F9B
:102DB60072636500446576696365204761696E00E4
:102DC600456666656374204F7065726174696F6EDF
:102DD6000020205374617274002020537461727451
:102DE600536F6C6F00202053746F7000536574200E
:102DF600446F776E6C6F616420466F726365205313
:102E0600616D706C650053657420437573746F6DE6
:102E160020466F726365204461746100446576697B
:102E2600636520436F6E74726F6C00202044697373
:102E360061626C65204163747561746F7273002002
:102E460020456E61626C65204163747561746F72B2
:102E56007300202053746F7020416C6C20456666A9
:102E660065637473002020526573657400202050DA
:102E760061757365002020436F6E74696E75650019
:102E860020204F7468657200426C6F636B20467237
:102E96006565005365742052616D7020466F7263DC
:102EA600650053657420436F6E7374616E742046BB
:102EB6006F7263650053657420506572696F64694B
:102EC600630053657420436F6E646974696F6E00A6
:102ED60053657420456E76656C6F70650053657436
:102EE6002045666665637400437265617465204EAD
:102EF60065772045666665637400202020203D3E88
:102F06002053656E7420446174613A0002FF7F00AD
:102F1600000102040E00080005000700040004007A
:102F26000F0003000000040002000200020005007A
:102F3600F000010A0123127F5A1900005A007F642B
:102F460000104E7F00007F5A197F01007F000000AD
:102F56004EF712060502080A0B0D0E0F1001C501E9
:102F6600B57C7FA57F00C506C501C507B04000B189
:102F76004000B24000B34000B44000B54000B64047
:102F860000B74000B84000B94000BA4000BB40005E
:102F9600BC4000BD4000BE4000BF4000B04000B194
:102FA6004000B24000B34000B44000B54000B64017
:102FB60000B74000B84000B94000BA4000BB40002E
:102FC600BC4000BD4000BE4000BF4000C501F0004F
:102FD600010A0110056BF7B5407FA57257B5447F0E
:102FE600A53C43B5487FA57E00B54C7FA50400B53A
:102FF600507FA50200B5547FA50200B5587FA500F5
:103006007EB55C7FA53C00B5607FA51465B5647F81
:10301600A57E6BB5687FA53600B56C7FA52800B583
:10302600707FA5664CB5747FA57E01C501B57C7F12
:0A303600A57F00C50600010A010095
:00000001FF
